{
  "abi": [
    {
      "constant": true,
      "inputs": [],
      "name": "seed_tokens",
      "outputs": [
        {
          "name": "",
          "type": "uint256"
        }
      ],
      "payable": false,
      "stateMutability": "view",
      "type": "function"
    },
    {
      "constant": true,
      "inputs": [],
      "name": "private_tokens",
      "outputs": [
        {
          "name": "",
          "type": "uint256"
        }
      ],
      "payable": false,
      "stateMutability": "view",
      "type": "function"
    },
    {
      "constant": true,
      "inputs": [],
      "name": "get_available_team_balance",
      "outputs": [
        {
          "name": "",
          "type": "uint256"
        }
      ],
      "payable": false,
      "stateMutability": "view",
      "type": "function"
    },
    {
      "constant": true,
      "inputs": [],
      "name": "name",
      "outputs": [
        {
          "name": "",
          "type": "string"
        }
      ],
      "payable": false,
      "stateMutability": "view",
      "type": "function"
    },
    {
      "constant": false,
      "inputs": [
        {
          "name": "spender",
          "type": "address"
        },
        {
          "name": "value",
          "type": "uint256"
        }
      ],
      "name": "approve",
      "outputs": [
        {
          "name": "",
          "type": "bool"
        }
      ],
      "payable": false,
      "stateMutability": "nonpayable",
      "type": "function"
    },
    {
      "constant": true,
      "inputs": [
        {
          "name": "",
          "type": "address"
        }
      ],
      "name": "seed_balance",
      "outputs": [
        {
          "name": "",
          "type": "uint256"
        }
      ],
      "payable": false,
      "stateMutability": "view",
      "type": "function"
    },
    {
      "constant": true,
      "inputs": [],
      "name": "totalSupply",
      "outputs": [
        {
          "name": "",
          "type": "uint256"
        }
      ],
      "payable": false,
      "stateMutability": "view",
      "type": "function"
    },
    {
      "constant": true,
      "inputs": [
        {
          "name": "",
          "type": "address"
        }
      ],
      "name": "private_balance",
      "outputs": [
        {
          "name": "",
          "type": "uint256"
        }
      ],
      "payable": false,
      "stateMutability": "view",
      "type": "function"
    },
    {
      "constant": false,
      "inputs": [
        {
          "name": "sender",
          "type": "address"
        },
        {
          "name": "recipient",
          "type": "address"
        },
        {
          "name": "amount",
          "type": "uint256"
        }
      ],
      "name": "transferFrom",
      "outputs": [
        {
          "name": "",
          "type": "bool"
        }
      ],
      "payable": false,
      "stateMutability": "nonpayable",
      "type": "function"
    },
    {
      "constant": true,
      "inputs": [],
      "name": "marketing",
      "outputs": [
        {
          "name": "",
          "type": "address"
        }
      ],
      "payable": false,
      "stateMutability": "view",
      "type": "function"
    },
    {
      "constant": false,
      "inputs": [],
      "name": "unlock_seed",
      "outputs": [],
      "payable": false,
      "stateMutability": "nonpayable",
      "type": "function"
    },
    {
      "constant": true,
      "inputs": [],
      "name": "decimals",
      "outputs": [
        {
          "name": "",
          "type": "uint8"
        }
      ],
      "payable": false,
      "stateMutability": "view",
      "type": "function"
    },
    {
      "constant": false,
      "inputs": [],
      "name": "burn_seed_tokens",
      "outputs": [],
      "payable": false,
      "stateMutability": "nonpayable",
      "type": "function"
    },
    {
      "constant": false,
      "inputs": [
        {
          "name": "spender",
          "type": "address"
        },
        {
          "name": "addedValue",
          "type": "uint256"
        }
      ],
      "name": "increaseAllowance",
      "outputs": [
        {
          "name": "",
          "type": "bool"
        }
      ],
      "payable": false,
      "stateMutability": "nonpayable",
      "type": "function"
    },
    {
      "constant": true,
      "inputs": [],
      "name": "UNLOCK_TIME",
      "outputs": [
        {
          "name": "",
          "type": "uint256"
        }
      ],
      "payable": false,
      "stateMutability": "view",
      "type": "function"
    },
    {
      "constant": true,
      "inputs": [
        {
          "name": "sender",
          "type": "address"
        }
      ],
      "name": "get_available_private_balance",
      "outputs": [
        {
          "name": "",
          "type": "uint256"
        }
      ],
      "payable": false,
      "stateMutability": "view",
      "type": "function"
    },
    {
      "constant": true,
      "inputs": [],
      "name": "STOP_ALL_LOCKS_TIME",
      "outputs": [
        {
          "name": "",
          "type": "uint256"
        }
      ],
      "payable": false,
      "stateMutability": "view",
      "type": "function"
    },
    {
      "constant": true,
      "inputs": [
        {
          "name": "",
          "type": "address"
        }
      ],
      "name": "seed_bonus",
      "outputs": [
        {
          "name": "",
          "type": "uint256"
        }
      ],
      "payable": false,
      "stateMutability": "view",
      "type": "function"
    },
    {
      "constant": true,
      "inputs": [],
      "name": "reserve_tokens",
      "outputs": [
        {
          "name": "",
          "type": "uint256"
        }
      ],
      "payable": false,
      "stateMutability": "view",
      "type": "function"
    },
    {
      "constant": true,
      "inputs": [
        {
          "name": "account",
          "type": "address"
        }
      ],
      "name": "balanceOf",
      "outputs": [
        {
          "name": "",
          "type": "uint256"
        }
      ],
      "payable": false,
      "stateMutability": "view",
      "type": "function"
    },
    {
      "constant": false,
      "inputs": [],
      "name": "renounceOwnership",
      "outputs": [],
      "payable": false,
      "stateMutability": "nonpayable",
      "type": "function"
    },
    {
      "constant": true,
      "inputs": [
        {
          "name": "sender",
          "type": "address"
        }
      ],
      "name": "get_available_private_bonus",
      "outputs": [
        {
          "name": "",
          "type": "uint256"
        }
      ],
      "payable": false,
      "stateMutability": "view",
      "type": "function"
    },
    {
      "constant": true,
      "inputs": [],
      "name": "bank",
      "outputs": [
        {
          "name": "",
          "type": "address"
        }
      ],
      "payable": false,
      "stateMutability": "view",
      "type": "function"
    },
    {
      "constant": true,
      "inputs": [
        {
          "name": "",
          "type": "address"
        }
      ],
      "name": "seed_locked",
      "outputs": [
        {
          "name": "",
          "type": "bool"
        }
      ],
      "payable": false,
      "stateMutability": "view",
      "type": "function"
    },
    {
      "constant": true,
      "inputs": [
        {
          "name": "sender",
          "type": "address"
        }
      ],
      "name": "get_available_seed_balance",
      "outputs": [
        {
          "name": "",
          "type": "uint256"
        }
      ],
      "payable": false,
      "stateMutability": "view",
      "type": "function"
    },
    {
      "constant": true,
      "inputs": [],
      "name": "get_available_marketing_balance",
      "outputs": [
        {
          "name": "",
          "type": "uint256"
        }
      ],
      "payable": false,
      "stateMutability": "view",
      "type": "function"
    },
    {
      "constant": false,
      "inputs": [
        {
          "name": "recipient",
          "type": "address"
        },
        {
          "name": "amount",
          "type": "uint256"
        }
      ],
      "name": "send_seed_tokens",
      "outputs": [
        {
          "name": "",
          "type": "bool"
        }
      ],
      "payable": false,
      "stateMutability": "nonpayable",
      "type": "function"
    },
    {
      "constant": true,
      "inputs": [],
      "name": "STOP_SELL_TIME",
      "outputs": [
        {
          "name": "",
          "type": "uint256"
        }
      ],
      "payable": false,
      "stateMutability": "view",
      "type": "function"
    },
    {
      "constant": true,
      "inputs": [],
      "name": "team",
      "outputs": [
        {
          "name": "",
          "type": "address"
        }
      ],
      "payable": false,
      "stateMutability": "view",
      "type": "function"
    },
    {
      "constant": false,
      "inputs": [],
      "name": "unlock_private",
      "outputs": [],
      "payable": false,
      "stateMutability": "nonpayable",
      "type": "function"
    },
    {
      "constant": true,
      "inputs": [
        {
          "name": "sender",
          "type": "address"
        }
      ],
      "name": "get_available_seed_bonus",
      "outputs": [
        {
          "name": "",
          "type": "uint256"
        }
      ],
      "payable": false,
      "stateMutability": "view",
      "type": "function"
    },
    {
      "constant": true,
      "inputs": [],
      "name": "marketing_tokens",
      "outputs": [
        {
          "name": "",
          "type": "uint256"
        }
      ],
      "payable": false,
      "stateMutability": "view",
      "type": "function"
    },
    {
      "constant": true,
      "inputs": [],
      "name": "owner",
      "outputs": [
        {
          "name": "",
          "type": "address"
        }
      ],
      "payable": false,
      "stateMutability": "view",
      "type": "function"
    },
    {
      "constant": true,
      "inputs": [
        {
          "name": "sender",
          "type": "address"
        }
      ],
      "name": "get_available_balance",
      "outputs": [
        {
          "name": "",
          "type": "uint256"
        }
      ],
      "payable": false,
      "stateMutability": "view",
      "type": "function"
    },
    {
      "constant": true,
      "inputs": [],
      "name": "isOwner",
      "outputs": [
        {
          "name": "",
          "type": "bool"
        }
      ],
      "payable": false,
      "stateMutability": "view",
      "type": "function"
    },
    {
      "constant": false,
      "inputs": [
        {
          "name": "recipient",
          "type": "address"
        },
        {
          "name": "amount",
          "type": "uint256"
        }
      ],
      "name": "transfer_from_bank",
      "outputs": [],
      "payable": false,
      "stateMutability": "nonpayable",
      "type": "function"
    },
    {
      "constant": true,
      "inputs": [],
      "name": "symbol",
      "outputs": [
        {
          "name": "",
          "type": "string"
        }
      ],
      "payable": false,
      "stateMutability": "view",
      "type": "function"
    },
    {
      "constant": false,
      "inputs": [
        {
          "name": "recipient",
          "type": "address"
        },
        {
          "name": "amount",
          "type": "uint256"
        }
      ],
      "name": "send_launchpad_tokens",
      "outputs": [
        {
          "name": "",
          "type": "bool"
        }
      ],
      "payable": false,
      "stateMutability": "nonpayable",
      "type": "function"
    },
    {
      "constant": false,
      "inputs": [
        {
          "name": "spender",
          "type": "address"
        },
        {
          "name": "subtractedValue",
          "type": "uint256"
        }
      ],
      "name": "decreaseAllowance",
      "outputs": [
        {
          "name": "",
          "type": "bool"
        }
      ],
      "payable": false,
      "stateMutability": "nonpayable",
      "type": "function"
    },
    {
      "constant": false,
      "inputs": [
        {
          "name": "recipient",
          "type": "address"
        },
        {
          "name": "amount",
          "type": "uint256"
        }
      ],
      "name": "transfer",
      "outputs": [
        {
          "name": "",
          "type": "bool"
        }
      ],
      "payable": false,
      "stateMutability": "nonpayable",
      "type": "function"
    },
    {
      "constant": true,
      "inputs": [],
      "name": "tokens_holder",
      "outputs": [
        {
          "name": "",
          "type": "address"
        }
      ],
      "payable": false,
      "stateMutability": "view",
      "type": "function"
    },
    {
      "constant": true,
      "inputs": [
        {
          "name": "",
          "type": "address"
        }
      ],
      "name": "tokens_for_sell",
      "outputs": [
        {
          "name": "",
          "type": "uint256"
        }
      ],
      "payable": false,
      "stateMutability": "view",
      "type": "function"
    },
    {
      "constant": false,
      "inputs": [],
      "name": "burn_launchpad_tokens",
      "outputs": [],
      "payable": false,
      "stateMutability": "nonpayable",
      "type": "function"
    },
    {
      "constant": true,
      "inputs": [
        {
          "name": "",
          "type": "address"
        }
      ],
      "name": "private_locked",
      "outputs": [
        {
          "name": "",
          "type": "bool"
        }
      ],
      "payable": false,
      "stateMutability": "view",
      "type": "function"
    },
    {
      "constant": true,
      "inputs": [],
      "name": "get_available_reserve_balance",
      "outputs": [
        {
          "name": "",
          "type": "uint256"
        }
      ],
      "payable": false,
      "stateMutability": "view",
      "type": "function"
    },
    {
      "constant": true,
      "inputs": [],
      "name": "reserve",
      "outputs": [
        {
          "name": "",
          "type": "address"
        }
      ],
      "payable": false,
      "stateMutability": "view",
      "type": "function"
    },
    {
      "constant": true,
      "inputs": [],
      "name": "launchpad_tokens",
      "outputs": [
        {
          "name": "",
          "type": "uint256"
        }
      ],
      "payable": false,
      "stateMutability": "view",
      "type": "function"
    },
    {
      "constant": true,
      "inputs": [],
      "name": "team_tokens",
      "outputs": [
        {
          "name": "",
          "type": "uint256"
        }
      ],
      "payable": false,
      "stateMutability": "view",
      "type": "function"
    },
    {
      "constant": false,
      "inputs": [
        {
          "name": "bank_address",
          "type": "address"
        }
      ],
      "name": "set_bank",
      "outputs": [],
      "payable": false,
      "stateMutability": "nonpayable",
      "type": "function"
    },
    {
      "constant": true,
      "inputs": [
        {
          "name": "owner",
          "type": "address"
        },
        {
          "name": "spender",
          "type": "address"
        }
      ],
      "name": "allowance",
      "outputs": [
        {
          "name": "",
          "type": "uint256"
        }
      ],
      "payable": false,
      "stateMutability": "view",
      "type": "function"
    },
    {
      "constant": false,
      "inputs": [],
      "name": "burn_private_tokens",
      "outputs": [],
      "payable": false,
      "stateMutability": "nonpayable",
      "type": "function"
    },
    {
      "constant": true,
      "inputs": [
        {
          "name": "",
          "type": "address"
        }
      ],
      "name": "private_bonus",
      "outputs": [
        {
          "name": "",
          "type": "uint256"
        }
      ],
      "payable": false,
      "stateMutability": "view",
      "type": "function"
    },
    {
      "constant": false,
      "inputs": [
        {
          "name": "newOwner",
          "type": "address"
        }
      ],
      "name": "transferOwnership",
      "outputs": [],
      "payable": false,
      "stateMutability": "nonpayable",
      "type": "function"
    },
    {
      "constant": false,
      "inputs": [
        {
          "name": "recipient",
          "type": "address"
        },
        {
          "name": "amount",
          "type": "uint256"
        }
      ],
      "name": "send_private_tokens",
      "outputs": [
        {
          "name": "",
          "type": "bool"
        }
      ],
      "payable": false,
      "stateMutability": "nonpayable",
      "type": "function"
    },
    {
      "inputs": [
        {
          "name": "_tokens_holder",
          "type": "address"
        },
        {
          "name": "_team",
          "type": "address"
        },
        {
          "name": "_marketing",
          "type": "address"
        },
        {
          "name": "_reserve",
          "type": "address"
        }
      ],
      "payable": false,
      "stateMutability": "nonpayable",
      "type": "constructor"
    },
    {
      "anonymous": false,
      "inputs": [
        {
          "indexed": true,
          "name": "previousOwner",
          "type": "address"
        },
        {
          "indexed": true,
          "name": "newOwner",
          "type": "address"
        }
      ],
      "name": "OwnershipTransferred",
      "type": "event"
    },
    {
      "anonymous": false,
      "inputs": [
        {
          "indexed": true,
          "name": "from",
          "type": "address"
        },
        {
          "indexed": true,
          "name": "to",
          "type": "address"
        },
        {
          "indexed": false,
          "name": "value",
          "type": "uint256"
        }
      ],
      "name": "Transfer",
      "type": "event"
    },
    {
      "anonymous": false,
      "inputs": [
        {
          "indexed": true,
          "name": "owner",
          "type": "address"
        },
        {
          "indexed": true,
          "name": "spender",
          "type": "address"
        },
        {
          "indexed": false,
          "name": "value",
          "type": "uint256"
        }
      ],
      "name": "Approval",
      "type": "event"
    }
  ],
  "bytecode": "60806040523480156200001157600080fd5b5060405160808062003a9d833981018060405260808110156200003357600080fd5b50805160208083015160408085015160609095015181518083018352600b81527f4973696e6120546f6b656e000000000000000000000000000000000000000000818601908152835180850190945260038085527f49534e00000000000000000000000000000000000000000000000000000000009685019690965281519697949694959294919392601292620000cb9290620004bf565b508151620000e1906004906020850190620004bf565b506005805460ff191660ff9290921691909117610100600160a81b03191661010033810291909117918290556040516001600160a01b0391909204169250600091507f8be0079c531659141344cd1fd0a4f28419497f9722a3daafe3b4186f6b6457e0908290a3600c80546001600160a01b0319166001600160a01b038616179055620001746200031e602090811b901c565b60ff16600a0a6306177edc02600981905550620001966200031e60201b60201c565b60ff16600a0a6309bf316002600a81905550620001b86200031e60201b60201c565b60ff16600a0a6304df98b002600b81905550620001fb600c60009054906101000a90046001600160a01b0316600b54600a5460095401016200032860201b60201c565b600d80546001600160a01b0319166001600160a01b038516179055620002276200031e602090811b901c565b60ff16600a0a6301b4a8a4026006819055600d5462000259916001600160a01b039091169062000328602090811b901c565b600e80546001600160a01b0319166001600160a01b038416179055620002856200031e602090811b901c565b60ff16600a0a623e613c026007819055600e54620002b6916001600160a01b039091169062000328602090811b901c565b600f80546001600160a01b0319166001600160a01b038316179055620002e26200031e602090811b901c565b60ff16600a0a6301b4a8a4026008819055600f5462000314916001600160a01b039091169062000328602090811b901c565b5050505062000561565b60055460ff165b90565b6001600160a01b0382166200039e57604080517f08c379a000000000000000000000000000000000000000000000000000000000815260206004820152601f60248201527f45524332303a206d696e7420746f20746865207a65726f206164647265737300604482015290519081900360640190fd5b620003ba816002546200044360201b620030411790919060201c565b6002556001600160a01b03821660009081526020818152604090912054620003ed9183906200304162000443821b17901c565b6001600160a01b0383166000818152602081815260408083209490945583518581529351929391927fddf252ad1be2c89b69c2b068fc378daa952ba7f163c4a11628f55a4df523b3ef9281900390910190a35050565b600082820183811015620004b857604080517f08c379a000000000000000000000000000000000000000000000000000000000815260206004820152601b60248201527f536166654d6174683a206164646974696f6e206f766572666c6f770000000000604482015290519081900360640190fd5b9392505050565b828054600181600116156101000203166002900490600052602060002090601f016020900481019282601f106200050257805160ff191683800117855562000532565b8280016001018555821562000532579182015b828111156200053257825182559160200191906001019062000515565b506200054092915062000544565b5090565b6200032591905b808211156200054057600081556001016200054b565b61352c80620005716000396000f3fe608060405234801561001057600080fd5b50600436106103425760003560e01c806385cde77f116101b8578063ab3e21ca11610104578063d973d490116100a2578063e02362041161007c578063e023620414610874578063eba5d84f1461087c578063f2fde38b146108a2578063ff6e1492146108c857610342565b8063d973d49014610818578063dacf64e214610820578063dd62ed3e1461084657610342565b8063bc109f9c116100de578063bc109f9c146107da578063bd7e700714610800578063cd3293de14610808578063d4fb3be91461081057610342565b8063ab3e21ca146107a4578063b22683fa146107ac578063b8c563f3146107d257610342565b80638e8a8d611161017157806395d89b411161014b57806395d89b41146107185780639cf5b6df14610720578063a457c2d71461074c578063a9059cbb1461077857610342565b80638e8a8d61146106be5780638f32d59b146106e457806393c2c682146106ec57610342565b806385cde77f1461056657806385f2aef21461067857806389807b6e146106805780638b74730c146106885780638c800d17146106ae5780638da5cb5b146106b657610342565b80633950935111610292578063715018a6116102305780637766fe6a1161020a5780637766fe6a146105f85780637891df9a1461061e57806382cf50641461064457806385cbc9261461064c57610342565b8063715018a6146105c257806372918a78146105ca57806376cdb03b146105f057610342565b806357fbc9401161026c57806357fbc940146105665780636c1030671461056e5780636f4a48e21461059457806370a082311461059c57610342565b8063395093511461050c57806341319831146105385780634f98fb101461054057610342565b806318160ddd116102ff5780632d3e474a116102d95780632d3e474a146104b85780632f8b4b7d146104dc578063313ce567146104e65780633918e59f1461050457610342565b806318160ddd146104545780631febcfee1461045c57806323b872dd1461048257610342565b80630253040114610347578063027c4ed2146103615780630655949c1461036957806306fdde0314610371578063095ea7b3146103ee5780630aa1d3f31461042e575b600080fd5b61034f6108f4565b60408051918252519081900360200190f35b61034f6108fa565b61034f610900565b610379610b2c565b6040805160208082528351818301528351919283929083019185019080838360005b838110156103b357818101518382015260200161039b565b50505050905090810190601f1680156103e05780820380516001836020036101000a031916815260200191505b509250505060405180910390f35b61041a6004803603604081101561040457600080fd5b506001600160a01b038135169060200135610bc2565b604080519115158252519081900360200190f35b61034f6004803603602081101561044457600080fd5b50356001600160a01b0316610bd9565b61034f610beb565b61034f6004803603602081101561047257600080fd5b50356001600160a01b0316610bf1565b61041a6004803603606081101561049857600080fd5b506001600160a01b03813581169160208101359091169060400135610c03565b6104c0610c3e565b604080516001600160a01b039092168252519081900360200190f35b6104e4610c4d565b005b6104ee610e0a565b6040805160ff9092168252519081900360200190f35b6104e4610e13565b61041a6004803603604081101561052257600080fd5b506001600160a01b038135169060200135610e83565b61034f610ebf565b61034f6004803603602081101561055657600080fd5b50356001600160a01b0316610ec4565b61034f61130e565b61034f6004803603602081101561058457600080fd5b50356001600160a01b0316611316565b61034f611328565b61034f600480360360208110156105b257600080fd5b50356001600160a01b031661132e565b6104e4611349565b61034f600480360360208110156105e057600080fd5b50356001600160a01b03166113e3565b6104c0611632565b61041a6004803603602081101561060e57600080fd5b50356001600160a01b0316611641565b61034f6004803603602081101561063457600080fd5b50356001600160a01b0316611656565b61034f611a5b565b61041a6004803603604081101561066257600080fd5b506001600160a01b038135169060200135611c4e565b6104c0611df0565b6104e4611dff565b61034f6004803603602081101561069e57600080fd5b50356001600160a01b0316611fa0565b61034f6121ca565b6104c06121d0565b61034f600480360360208110156106d457600080fd5b50356001600160a01b03166121e4565b61041a6123ef565b6104e46004803603604081101561070257600080fd5b506001600160a01b038135169060200135612405565b61037961246a565b61041a6004803603604081101561073657600080fd5b506001600160a01b0381351690602001356124cb565b61041a6004803603604081101561076257600080fd5b506001600160a01b038135169060200135612598565b61041a6004803603604081101561078e57600080fd5b506001600160a01b0381351690602001356125d4565b6104c06125e1565b61034f600480360360208110156107c257600080fd5b50356001600160a01b03166125f0565b6104e4612602565b61041a600480360360208110156107f057600080fd5b50356001600160a01b0316612672565b61034f612687565b6104c06128a1565b61034f6128b0565b61034f6128b6565b6104e46004803603602081101561083657600080fd5b50356001600160a01b03166128bc565b61034f6004803603604081101561085c57600080fd5b506001600160a01b0381358116916020013516612928565b6104e4612953565b61034f6004803603602081101561089257600080fd5b50356001600160a01b03166129c3565b6104e4600480360360208110156108b857600080fd5b50356001600160a01b03166129d5565b61041a600480360360408110156108de57600080fd5b506001600160a01b038135169060200135612a2b565b60095481565b600a5481565b6000635ed4450042101561091657506000610b29565b63603c2e8042101561095057610949606461093d600a600654612bbf90919063ffffffff16565b9063ffffffff612c1b16565b9050610b29565b63621d620042101561097757610949606461093d6014600654612bbf90919063ffffffff16565b636387ee8042101561099e57610949606461093d601e600654612bbf90919063ffffffff16565b6363fe95804210156109c557610949606461093d6023600654612bbf90919063ffffffff16565b6364c84b004210156109ec57610949606461093d6028600654612bbf90919063ffffffff16565b6365badf00421015610a1357610949606461093d602d600654612bbf90919063ffffffff16565b636609f900421015610a3a57610949606461093d6032600654612bbf90919063ffffffff16565b6366aad000421015610a6157610949606461093d6037600654612bbf90919063ffffffff16565b6366fb3b80421015610a8857610949606461093d603c600654612bbf90919063ffffffff16565b63674ba700421015610aaf57610949606461093d6041600654612bbf90919063ffffffff16565b6367c24e00421015610ad657610949606461093d6046600654612bbf90919063ffffffff16565b6368632500421015610afd57610949606461093d6050600654612bbf90919063ffffffff16565b63692cda80421015610b2457610949606461093d605a600654612bbf90919063ffffffff16565b506006545b90565b60038054604080516020601f6002600019610100600188161502019095169490940493840181900481028201810190925282815260609390929091830182828015610bb85780601f10610b8d57610100808354040283529160200191610bb8565b820191906000526020600020905b815481529060010190602001808311610b9b57829003601f168201915b5050505050905090565b6000610bcf338484612c88565b5060015b92915050565b60116020526000908152604090205481565b60025490565b60126020526000908152604090205481565b6000610c10848484612d7a565b610c348433610c2f85610c238933612928565b9063ffffffff612fe116565b612c88565b5060019392505050565b600e546001600160a01b031681565b6001421015610c9057604051600160e51b62461bcd02815260040180806020018281038252602c815260200180613395602c913960400191505060405180910390fd5b3360009081526015602052604090205460ff16610cf75760408051600160e51b62461bcd02815260206004820152601760248201527f546f6b656e73206d75737420626520756e6c6f636b6564000000000000000000604482015290519081900360640190fd5b63692cda804210610d3c57604051600160e51b62461bcd02815260040180806020018281038252602d81526020018061344a602d913960400191505060405180910390fd5b336000818152601560205260409020805460ff19169055610d9c90610d8090610d6490611656565b336000908152601160205260409020549063ffffffff612fe116565b336000908152601760205260409020549063ffffffff61304116565b336000818152601760209081526040808320949094556011905291822091909155610dea90610d8090610dce90611fa0565b336000908152601360205260409020549063ffffffff612fe116565b336000908152601760209081526040808320939093556013905290812055565b60055460ff1690565b600c546001600160a01b03163314610e635760408051600160e51b62461bcd02815260206004820152601e60248201526000805160206134bd833981519152604482015290519081900360640190fd5b600c54600954610e7c916001600160a01b03169061309e565b6000600955565b3360008181526001602090815260408083206001600160a01b03871684529091528120549091610bcf918590610c2f908663ffffffff61304116565b600181565b6000635de30280421015610eda57506000611309565b635e34bf80421015610f1e576001600160a01b038216600090815260126020526040902054610f179060649061093d90600f63ffffffff612bbf16565b9050611309565b635eab6680421015610f5b576001600160a01b038216600090815260126020526040902054610f179060649061093d90601463ffffffff612bbf16565b635fc58780421015610f98576001600160a01b038216600090815260126020526040902054610f179060649061093d90601963ffffffff612bbf16565b6360650d00421015610fd5576001600160a01b038216600090815260126020526040902054610f179060649061093d90601e63ffffffff612bbf16565b63608c9a00421015611012576001600160a01b038216600090815260126020526040902054610f179060649061093d90602363ffffffff612bbf16565b636105e40042101561104f576001600160a01b038216600090815260126020526040902054610f179060649061093d90602863ffffffff612bbf16565b6361a6bb0042101561108c576001600160a01b038216600090815260126020526040902054610f179060649061093d90602d63ffffffff612bbf16565b63621d62004210156110c9576001600160a01b038216600090815260126020526040902054610f179060649061093d90603263ffffffff612bbf16565b6362be3900421015611106576001600160a01b038216600090815260126020526040902054610f179060649061093d90603763ffffffff612bbf16565b6363378300421015611143576001600160a01b038216600090815260126020526040902054610f179060649061093d90603c63ffffffff612bbf16565b636387ee80421015611180576001600160a01b038216600090815260126020526040902054610f179060649061093d90604163ffffffff612bbf16565b63642774004210156111bd576001600160a01b038216600090815260126020526040902054610f179060649061093d90604663ffffffff612bbf16565b63649f6c804210156111fa576001600160a01b038216600090815260126020526040902054610f179060649061093d90604b63ffffffff612bbf16565b636518b680421015611237576001600160a01b038216600090815260126020526040902054610f179060649061093d90605063ffffffff612bbf16565b6365692200421015611274576001600160a01b038216600090815260126020526040902054610f179060649061093d90605563ffffffff612bbf16565b6365e11a804210156112b1576001600160a01b038216600090815260126020526040902054610f179060649061093d90605a63ffffffff612bbf16565b636681f1804210156112ee576001600160a01b038216600090815260126020526040902054610f179060649061093d90605f63ffffffff612bbf16565b506001600160a01b0381166000908152601260205260409020545b919050565b63692cda8081565b60136020526000908152604090205481565b60085481565b6001600160a01b031660009081526020819052604090205490565b6113516123ef565b6113935760408051600160e51b62461bcd028152602060048201819052602482015260008051602061342a833981519152604482015290519081900360640190fd5b60055460405160009161010090046001600160a01b0316907f8be0079c531659141344cd1fd0a4f28419497f9722a3daafe3b4186f6b6457e0908390a360058054610100600160a81b0319169055565b6001600160a01b038116600090815260146020526040812054819061140f90601263ffffffff612c1b16565b9050635de30280421015611427576000915050611309565b635e34bf8042101561143a579050611309565b635eab668042101561145f5761145781600263ffffffff612bbf16565b915050611309565b635fc5878042101561147c5761145781600363ffffffff612bbf16565b6360650d004210156114995761145781600463ffffffff612bbf16565b63608c9a004210156114b65761145781600563ffffffff612bbf16565b636105e4004210156114d35761145781600663ffffffff612bbf16565b6361a6bb004210156114f05761145781600763ffffffff612bbf16565b63621d620042101561150d5761145781600863ffffffff612bbf16565b6362be390042101561152a5761145781600963ffffffff612bbf16565b63633783004210156115475761145781600a63ffffffff612bbf16565b636387ee804210156115645761145781600b63ffffffff612bbf16565b63642774004210156115815761145781600c63ffffffff612bbf16565b63649f6c8042101561159e5761145781600d63ffffffff612bbf16565b636518b6804210156115bb5761145781600e63ffffffff612bbf16565b63656922004210156115d85761145781600f63ffffffff612bbf16565b6365e11a804210156115f55761145781601063ffffffff612bbf16565b636681f1804210156116125761145781601163ffffffff612bbf16565b50506001600160a01b038116600090815260146020526040902054611309565b6010546001600160a01b031681565b60156020526000908152604090205460ff1681565b6000635de3028042101561166c57506000611309565b635e5afb004210156116a9576001600160a01b038216600090815260116020526040902054610f179060649061093d90601463ffffffff612bbf16565b635efbd2004210156116e6576001600160a01b038216600090815260116020526040902054610f179060649061093d90601963ffffffff612bbf16565b635fc58780421015611723576001600160a01b038216600090815260116020526040902054610f179060649061093d90601e63ffffffff612bbf16565b6360650d00421015611760576001600160a01b038216600090815260116020526040902054610f179060649061093d90602363ffffffff612bbf16565b6360dd058042101561179d576001600160a01b038216600090815260116020526040902054610f179060649061093d90602863ffffffff612bbf16565b6361564f804210156117da576001600160a01b038216600090815260116020526040902054610f179060649061093d90602d63ffffffff612bbf16565b6361a6bb00421015611817576001600160a01b038216600090815260116020526040902054610f179060649061093d90603263ffffffff612bbf16565b63621d6200421015611854576001600160a01b038216600090815260116020526040902054610f179060649061093d90603763ffffffff612bbf16565b636296ac00421015611891576001600160a01b038216600090815260116020526040902054610f179060649061093d90603c63ffffffff612bbf16565b63630ff6004210156118ce576001600160a01b038216600090815260116020526040902054610f179060649061093d90604163ffffffff612bbf16565b636387ee8042101561190b576001600160a01b038216600090815260116020526040902054610f179060649061093d90604663ffffffff612bbf16565b6363fe9580421015611948576001600160a01b038216600090815260116020526040902054610f179060649061093d90604b63ffffffff612bbf16565b63644f0100421015611985576001600160a01b038216600090815260116020526040902054610f179060649061093d90605063ffffffff612bbf16565b63649f6c804210156119c2576001600160a01b038216600090815260116020526040902054610f179060649061093d90605563ffffffff612bbf16565b636518b6804210156119ff576001600160a01b038216600090815260116020526040902054610f179060649061093d90605a63ffffffff612bbf16565b6365692200421015611a3c576001600160a01b038216600090815260116020526040902054610f179060649061093d90605f63ffffffff612bbf16565b506001600160a01b038116600090815260116020526040902054611309565b6000635eab6680421015611a7157506000610b29565b63603c2e80421015611a9857610949606461093d600a600754612bbf90919063ffffffff16565b6362464080421015611abf57610949606461093d6014600754612bbf90919063ffffffff16565b6362be3900421015611ae657610949606461093d601e600754612bbf90919063ffffffff16565b636387ee80421015611b0d57610949606461093d6023600754612bbf90919063ffffffff16565b63644f0100421015611b3457610949606461093d6028600754612bbf90919063ffffffff16565b6364c84b00421015611b5b57610949606461093d6032600754612bbf90919063ffffffff16565b636609f900421015611b8257610949606461093d6037600754612bbf90919063ffffffff16565b6366aad000421015611ba957610949606461093d603c600754612bbf90919063ffffffff16565b63674ba700421015611bd057610949606461093d6041600754612bbf90919063ffffffff16565b6367eb2c80421015611bf757610949606461093d6046600754612bbf90919063ffffffff16565b63688c0380421015611c1e57610949606461093d6050600754612bbf90919063ffffffff16565b63692cda80421015611c4557610949606461093d605a600754612bbf90919063ffffffff16565b50600754610b29565b600c546000906001600160a01b03163314611ca15760408051600160e51b62461bcd02815260206004820152601e60248201526000805160206134bd833981519152604482015290519081900360640190fd5b600060095411611cfb5760408051600160e51b62461bcd02815260206004820181905260248201527f546f6b656e7320617265206f766572206f722073616c6520697320656e646564604482015290519081900360640190fd5b6001600160a01b038316600090815260116020526040902054611d24908363ffffffff61304116565b6001600160a01b038416600090815260116020526040812091909155611d5861271061093d856105d863ffffffff612bbf16565b6001600160a01b038516600090815260136020526040902054909150611d84908263ffffffff61304116565b6001600160a01b0385166000908152601360209081526040808320939093556015905220805460ff19166001179055600954611dcc908290610c23908663ffffffff612fe116565b600955611de884611de3858463ffffffff61304116565b6125d4565b949350505050565b600d546001600160a01b031681565b6001421015611e4257604051600160e51b62461bcd02815260040180806020018281038252602c815260200180613395602c913960400191505060405180910390fd5b3360009081526016602052604090205460ff16611ea95760408051600160e51b62461bcd02815260206004820152601760248201527f546f6b656e73206d75737420626520756e6c6f636b6564000000000000000000604482015290519081900360640190fd5b63692cda804210611eee57604051600160e51b62461bcd02815260040180806020018281038252602d81526020018061344a602d913960400191505060405180910390fd5b336000818152601660205260409020805460ff19169055611f3290610d8090611f1690610ec4565b336000908152601260205260409020549063ffffffff612fe116565b336000818152601760209081526040808320949094556012905291822091909155611f8090610d8090611f64906113e3565b336000908152601460205260409020549063ffffffff612fe116565b336000908152601760209081526040808320939093556014905290812055565b6001600160a01b0381166000908152601360205260408120548190611fcc90601163ffffffff612c1b16565b9050635de30280421015611fe4576000915050611309565b635e5afb00421015611ff7579050611309565b635efbd2004210156120145761145781600263ffffffff612bbf16565b635fc587804210156120315761145781600363ffffffff612bbf16565b6360650d0042101561204e5761145781600463ffffffff612bbf16565b6360dd058042101561206b5761145781600563ffffffff612bbf16565b6361564f804210156120885761145781600663ffffffff612bbf16565b6361a6bb004210156120a55761145781600763ffffffff612bbf16565b63621d62004210156120c25761145781600863ffffffff612bbf16565b636296ac004210156120df5761145781600963ffffffff612bbf16565b63630ff6004210156120fc5761145781600a63ffffffff612bbf16565b636387ee804210156121195761145781600b63ffffffff612bbf16565b6363fe95804210156121365761145781600c63ffffffff612bbf16565b63644f01004210156121535761145781600d63ffffffff612bbf16565b63649f6c804210156121705761145781600e63ffffffff612bbf16565b636518b68042101561218d5761145781600f63ffffffff612bbf16565b63656922004210156121aa5761145781601063ffffffff612bbf16565b50506001600160a01b038116600090815260136020526040902054611309565b60075481565b60055461010090046001600160a01b031690565b6000806121f08361132e565b600d549091506001600160a01b038481169116141561223657612233612226612217610900565b6006549063ffffffff612fe116565b829063ffffffff612fe116565b90505b600e546001600160a01b038481169116141561226c5761226961222661225a611a5b565b6007549063ffffffff612fe116565b90505b600f546001600160a01b03848116911614156122a25761229f612226612290612687565b6008549063ffffffff612fe116565b90505b6001600160a01b03831660009081526015602052604090205460ff1615612330576122f76122266122d285611656565b6001600160a01b0386166000908152601160205260409020549063ffffffff612fe116565b905061232d61222661230885611fa0565b6001600160a01b0386166000908152601360205260409020549063ffffffff612fe116565b90505b6001600160a01b03831660009081526016602052604090205460ff16156123be5761238561222661236085610ec4565b6001600160a01b0386166000908152601260205260409020549063ffffffff612fe116565b90506123bb612226612396856113e3565b6001600160a01b0386166000908152601460205260409020549063ffffffff612fe116565b90505b6001600160a01b0383166000908152601760205260409020546123e890829063ffffffff612fe116565b9392505050565b60055461010090046001600160a01b0316331490565b61240d6123ef565b61244f5760408051600160e51b62461bcd028152602060048201819052602482015260008051602061342a833981519152604482015290519081900360640190fd5b601054612466906001600160a01b0316838361317a565b5050565b60048054604080516020601f6002600019610100600188161502019095169490940493840181900481028201810190925282815260609390929091830182828015610bb85780601f10610b8d57610100808354040283529160200191610bb8565b600c546000906001600160a01b0316331461251e5760408051600160e51b62461bcd02815260206004820152601e60248201526000805160206134bd833981519152604482015290519081900360640190fd5b6000600b54116125785760408051600160e51b62461bcd02815260206004820181905260248201527f546f6b656e7320617265206f766572206f722073616c6520697320656e646564604482015290519081900360640190fd5b600b5461258b908363ffffffff612fe116565b600b556123e883836125d4565b3360008181526001602090815260408083206001600160a01b03871684529091528120549091610bcf918590610c2f908663ffffffff612fe116565b6000610bcf338484612d7a565b600c546001600160a01b031681565b60176020526000908152604090205481565b600c546001600160a01b031633146126525760408051600160e51b62461bcd02815260206004820152601e60248201526000805160206134bd833981519152604482015290519081900360640190fd5b600c54600b5461266b916001600160a01b03169061309e565b6000600b55565b60166020526000908152604090205460ff1681565b6000635f4d8f0042101561269d57506000610b29565b63608c9a004210156126c457610949606461093d600a600854612bbf90919063ffffffff16565b63612ec2804210156126eb57610949606461093d600f600854612bbf90919063ffffffff16565b636296ac0042101561271257610949606461093d6014600854612bbf90919063ffffffff16565b636337830042101561273957610949606461093d6019600854612bbf90919063ffffffff16565b63644f010042101561276057610949606461093d601e600854612bbf90919063ffffffff16565b6364c84b0042101561278757610949606461093d6028600854612bbf90919063ffffffff16565b63663186004210156127ae57610949606461093d602d600854612bbf90919063ffffffff16565b636681f1804210156127d557610949606461093d6037600854612bbf90919063ffffffff16565b6366fb3b804210156127fc57610949606461093d603c600854612bbf90919063ffffffff16565b63674ba70042101561282357610949606461093d6041600854612bbf90919063ffffffff16565b636812b98042101561284a57610949606461093d6046600854612bbf90919063ffffffff16565b6368b4e20042101561287157610949606461093d6050600854612bbf90919063ffffffff16565b63692cda8042101561289857610949606461093d605a600854612bbf90919063ffffffff16565b50600854610b29565b600f546001600160a01b031681565b600b5481565b60065481565b6128c46123ef565b6129065760408051600160e51b62461bcd028152602060048201819052602482015260008051602061342a833981519152604482015290519081900360640190fd5b601080546001600160a01b0319166001600160a01b0392909216919091179055565b6001600160a01b03918216600090815260016020908152604080832093909416825291909152205490565b600c546001600160a01b031633146129a35760408051600160e51b62461bcd02815260206004820152601e60248201526000805160206134bd833981519152604482015290519081900360640190fd5b600c54600a546129bc916001600160a01b03169061309e565b6000600a55565b60146020526000908152604090205481565b6129dd6123ef565b612a1f5760408051600160e51b62461bcd028152602060048201819052602482015260008051602061342a833981519152604482015290519081900360640190fd5b612a28816132c2565b50565b600c546000906001600160a01b03163314612a7e5760408051600160e51b62461bcd02815260206004820152601e60248201526000805160206134bd833981519152604482015290519081900360640190fd5b6000600a5411612ad85760408051600160e51b62461bcd02815260206004820181905260248201527f546f6b656e7320617265206f766572206f722073616c6520697320656e646564604482015290519081900360640190fd5b6001600160a01b038316600090815260126020526040902054612b01908363ffffffff61304116565b6001600160a01b038416600090815260126020526040812091909155612b346103e861093d85606363ffffffff612bbf16565b6001600160a01b038516600090815260146020526040902054909150612b60908263ffffffff61304116565b6001600160a01b0385166000908152601460209081526040808320939093556016905220805460ff19166001179055600a54612ba8908290610c23908663ffffffff612fe116565b600a55611de884611de3858463ffffffff61304116565b600082612bce57506000610bd3565b82820282848281612bdb57fe5b04146123e857604051600160e51b62461bcd0281526004018080602001828103825260218152602001806134096021913960400191505060405180910390fd5b6000808211612c745760408051600160e51b62461bcd02815260206004820152601a60248201527f536166654d6174683a206469766973696f6e206279207a65726f000000000000604482015290519081900360640190fd5b6000828481612c7f57fe5b04949350505050565b6001600160a01b038316612cd057604051600160e51b62461bcd0281526004018080602001828103825260248152602001806134dd6024913960400191505060405180910390fd5b6001600160a01b038216612d1857604051600160e51b62461bcd0281526004018080602001828103825260228152602001806133e76022913960400191505060405180910390fd5b6001600160a01b03808416600081815260016020908152604080832094871680845294825291829020859055815185815291517f8c5be1e5ebec7d5bd14f71427d1e84f3dd0314c0f7b2291e5b200ac8c7c3b9259281900390910190a3505050565b63692cda80421015612fd1576010546001600160a01b0383811691161415612f71576001600160a01b038316600090815260176020526040902054811115612e0c5760408051600160e51b62461bcd02815260206004820152601760248201527f546f6b656e73206d75737420626520756e6c6f636b6564000000000000000000604482015290519081900360640190fd5b63692cda804210612e5157604051600160e51b62461bcd02815260040180806020018281038252602d81526020018061344a602d913960400191505060405180910390fd5b60105460408051600160e31b6309444b130281526001600160a01b0386811660048301526024820185905291519190921691634a2258989160448083019260209291908290030181600087803b158015612eaa57600080fd5b505af1158015612ebe573d6000803e3d6000fd5b505050506040513d6020811015612ed457600080fd5b5051612f2a5760408051600160e51b62461bcd02815260206004820152600c60248201527f42616e6b2070726f626c656d0000000000000000000000000000000000000000604482015290519081900360640190fd5b6001600160a01b038316600090815260176020526040902054612f53908263ffffffff612fe116565b6001600160a01b038416600090815260176020526040902055612fd1565b612f7a836121e4565b811115612fd15760408051600160e51b62461bcd02815260206004820152601460248201527f4e6f20617661696c61626c652062616c616e6365000000000000000000000000604482015290519081900360640190fd5b612fdc83838361317a565b505050565b60008282111561303b5760408051600160e51b62461bcd02815260206004820152601e60248201527f536166654d6174683a207375627472616374696f6e206f766572666c6f770000604482015290519081900360640190fd5b50900390565b6000828201838110156123e85760408051600160e51b62461bcd02815260206004820152601b60248201527f536166654d6174683a206164646974696f6e206f766572666c6f770000000000604482015290519081900360640190fd5b6001600160a01b0382166130e657604051600160e51b62461bcd0281526004018080602001828103825260218152602001806134776021913960400191505060405180910390fd5b6002546130f9908263ffffffff612fe116565b6002556001600160a01b038216600090815260208190526040902054613125908263ffffffff612fe116565b6001600160a01b038316600081815260208181526040808320949094558351858152935191937fddf252ad1be2c89b69c2b068fc378daa952ba7f163c4a11628f55a4df523b3ef929081900390910190a35050565b6001600160a01b0383166131c257604051600160e51b62461bcd0281526004018080602001828103825260258152602001806134986025913960400191505060405180910390fd5b6001600160a01b03821661320a57604051600160e51b62461bcd0281526004018080602001828103825260238152602001806133726023913960400191505060405180910390fd5b6001600160a01b038316600090815260208190526040902054613233908263ffffffff612fe116565b6001600160a01b038085166000908152602081905260408082209390935590841681522054613268908263ffffffff61304116565b6001600160a01b038084166000818152602081815260409182902094909455805185815290519193928716927fddf252ad1be2c89b69c2b068fc378daa952ba7f163c4a11628f55a4df523b3ef92918290030190a3505050565b6001600160a01b03811661330a57604051600160e51b62461bcd0281526004018080602001828103825260268152602001806133c16026913960400191505060405180910390fd5b6005546040516001600160a01b0380841692610100900416907f8be0079c531659141344cd1fd0a4f28419497f9722a3daafe3b4186f6b6457e090600090a3600580546001600160a01b0390921661010002610100600160a81b031990921691909117905556fe45524332303a207472616e7366657220746f20746865207a65726f20616464726573735468652074696d65206d757374206265206c6f6e676572207468616e2074686520756e6c6f636b2074696d654f776e61626c653a206e6577206f776e657220697320746865207a65726f206164647265737345524332303a20617070726f766520746f20746865207a65726f2061646472657373536166654d6174683a206d756c7469706c69636174696f6e206f766572666c6f774f776e61626c653a2063616c6c6572206973206e6f7420746865206f776e65725468652074696d65206d757374206265206c657373207468616e207468652073746f702073656c6c2074696d6545524332303a206275726e2066726f6d20746865207a65726f206164647265737345524332303a207472616e736665722066726f6d20746865207a65726f206164647265737353656e646572206d757374206265206120746f6b656e7320686f6c646572000045524332303a20617070726f76652066726f6d20746865207a65726f2061646472657373a165627a7a723058206cf9d88efc1353e9467216f803ac40a96208cecb29dc5c7717a77a7e600cdae80029",
  "bytecodeSha1": "64ed05262a12bb9e2322053ae5f35ba65a814679",
  "compiler": {
    "minify_source": false,
    "optimize": true,
    "runs": 200,
    "version": "Version: 0.5.7+commit.6da8b019.Darwin.appleclang"
  },
  "contractName": "IsinaToken",
  "opcodes": "PUSH1 0x80 PUSH1 0x40 MSTORE CALLVALUE DUP1 ISZERO PUSH2 0x10 JUMPI PUSH1 0x0 DUP1 REVERT JUMPDEST POP PUSH1 0x4 CALLDATASIZE LT PUSH2 0x342 JUMPI PUSH1 0x0 CALLDATALOAD PUSH1 0xE0 SHR DUP1 PUSH4 0x85CDE77F GT PUSH2 0x1B8 JUMPI DUP1 PUSH4 0xAB3E21CA GT PUSH2 0x104 JUMPI DUP1 PUSH4 0xD973D490 GT PUSH2 0xA2 JUMPI DUP1 PUSH4 0xE0236204 GT PUSH2 0x7C JUMPI DUP1 PUSH4 0xE0236204 EQ PUSH2 0x874 JUMPI DUP1 PUSH4 0xEBA5D84F EQ PUSH2 0x87C JUMPI DUP1 PUSH4 0xF2FDE38B EQ PUSH2 0x8A2 JUMPI DUP1 PUSH4 0xFF6E1492 EQ PUSH2 0x8C8 JUMPI PUSH2 0x342 JUMP JUMPDEST DUP1 PUSH4 0xD973D490 EQ PUSH2 0x818 JUMPI DUP1 PUSH4 0xDACF64E2 EQ PUSH2 0x820 JUMPI DUP1 PUSH4 0xDD62ED3E EQ PUSH2 0x846 JUMPI PUSH2 0x342 JUMP JUMPDEST DUP1 PUSH4 0xBC109F9C GT PUSH2 0xDE JUMPI DUP1 PUSH4 0xBC109F9C EQ PUSH2 0x7DA JUMPI DUP1 PUSH4 0xBD7E7007 EQ PUSH2 0x800 JUMPI DUP1 PUSH4 0xCD3293DE EQ PUSH2 0x808 JUMPI DUP1 PUSH4 0xD4FB3BE9 EQ PUSH2 0x810 JUMPI PUSH2 0x342 JUMP JUMPDEST DUP1 PUSH4 0xAB3E21CA EQ PUSH2 0x7A4 JUMPI DUP1 PUSH4 0xB22683FA EQ PUSH2 0x7AC JUMPI DUP1 PUSH4 0xB8C563F3 EQ PUSH2 0x7D2 JUMPI PUSH2 0x342 JUMP JUMPDEST DUP1 PUSH4 0x8E8A8D61 GT PUSH2 0x171 JUMPI DUP1 PUSH4 0x95D89B41 GT PUSH2 0x14B JUMPI DUP1 PUSH4 0x95D89B41 EQ PUSH2 0x718 JUMPI DUP1 PUSH4 0x9CF5B6DF EQ PUSH2 0x720 JUMPI DUP1 PUSH4 0xA457C2D7 EQ PUSH2 0x74C JUMPI DUP1 PUSH4 0xA9059CBB EQ PUSH2 0x778 JUMPI PUSH2 0x342 JUMP JUMPDEST DUP1 PUSH4 0x8E8A8D61 EQ PUSH2 0x6BE JUMPI DUP1 PUSH4 0x8F32D59B EQ PUSH2 0x6E4 JUMPI DUP1 PUSH4 0x93C2C682 EQ PUSH2 0x6EC JUMPI PUSH2 0x342 JUMP JUMPDEST DUP1 PUSH4 0x85CDE77F EQ PUSH2 0x566 JUMPI DUP1 PUSH4 0x85F2AEF2 EQ PUSH2 0x678 JUMPI DUP1 PUSH4 0x89807B6E EQ PUSH2 0x680 JUMPI DUP1 PUSH4 0x8B74730C EQ PUSH2 0x688 JUMPI DUP1 PUSH4 0x8C800D17 EQ PUSH2 0x6AE JUMPI DUP1 PUSH4 0x8DA5CB5B EQ PUSH2 0x6B6 JUMPI PUSH2 0x342 JUMP JUMPDEST DUP1 PUSH4 0x39509351 GT PUSH2 0x292 JUMPI DUP1 PUSH4 0x715018A6 GT PUSH2 0x230 JUMPI DUP1 PUSH4 0x7766FE6A GT PUSH2 0x20A JUMPI DUP1 PUSH4 0x7766FE6A EQ PUSH2 0x5F8 JUMPI DUP1 PUSH4 0x7891DF9A EQ PUSH2 0x61E JUMPI DUP1 PUSH4 0x82CF5064 EQ PUSH2 0x644 JUMPI DUP1 PUSH4 0x85CBC926 EQ PUSH2 0x64C JUMPI PUSH2 0x342 JUMP JUMPDEST DUP1 PUSH4 0x715018A6 EQ PUSH2 0x5C2 JUMPI DUP1 PUSH4 0x72918A78 EQ PUSH2 0x5CA JUMPI DUP1 PUSH4 0x76CDB03B EQ PUSH2 0x5F0 JUMPI PUSH2 0x342 JUMP JUMPDEST DUP1 PUSH4 0x57FBC940 GT PUSH2 0x26C JUMPI DUP1 PUSH4 0x57FBC940 EQ PUSH2 0x566 JUMPI DUP1 PUSH4 0x6C103067 EQ PUSH2 0x56E JUMPI DUP1 PUSH4 0x6F4A48E2 EQ PUSH2 0x594 JUMPI DUP1 PUSH4 0x70A08231 EQ PUSH2 0x59C JUMPI PUSH2 0x342 JUMP JUMPDEST DUP1 PUSH4 0x39509351 EQ PUSH2 0x50C JUMPI DUP1 PUSH4 0x41319831 EQ PUSH2 0x538 JUMPI DUP1 PUSH4 0x4F98FB10 EQ PUSH2 0x540 JUMPI PUSH2 0x342 JUMP JUMPDEST DUP1 PUSH4 0x18160DDD GT PUSH2 0x2FF JUMPI DUP1 PUSH4 0x2D3E474A GT PUSH2 0x2D9 JUMPI DUP1 PUSH4 0x2D3E474A EQ PUSH2 0x4B8 JUMPI DUP1 PUSH4 0x2F8B4B7D EQ PUSH2 0x4DC JUMPI DUP1 PUSH4 0x313CE567 EQ PUSH2 0x4E6 JUMPI DUP1 PUSH4 0x3918E59F EQ PUSH2 0x504 JUMPI PUSH2 0x342 JUMP JUMPDEST DUP1 PUSH4 0x18160DDD EQ PUSH2 0x454 JUMPI DUP1 PUSH4 0x1FEBCFEE EQ PUSH2 0x45C JUMPI DUP1 PUSH4 0x23B872DD EQ PUSH2 0x482 JUMPI PUSH2 0x342 JUMP JUMPDEST DUP1 PUSH4 0x2530401 EQ PUSH2 0x347 JUMPI DUP1 PUSH4 0x27C4ED2 EQ PUSH2 0x361 JUMPI DUP1 PUSH4 0x655949C EQ PUSH2 0x369 JUMPI DUP1 PUSH4 0x6FDDE03 EQ PUSH2 0x371 JUMPI DUP1 PUSH4 0x95EA7B3 EQ PUSH2 0x3EE JUMPI DUP1 PUSH4 0xAA1D3F3 EQ PUSH2 0x42E JUMPI JUMPDEST PUSH1 0x0 DUP1 REVERT JUMPDEST PUSH2 0x34F PUSH2 0x8F4 JUMP JUMPDEST PUSH1 0x40 DUP1 MLOAD SWAP2 DUP3 MSTORE MLOAD SWAP1 DUP2 SWAP1 SUB PUSH1 0x20 ADD SWAP1 RETURN JUMPDEST PUSH2 0x34F PUSH2 0x8FA JUMP JUMPDEST PUSH2 0x34F PUSH2 0x900 JUMP JUMPDEST PUSH2 0x379 PUSH2 0xB2C JUMP JUMPDEST PUSH1 0x40 DUP1 MLOAD PUSH1 0x20 DUP1 DUP3 MSTORE DUP4 MLOAD DUP2 DUP4 ADD MSTORE DUP4 MLOAD SWAP2 SWAP3 DUP4 SWAP3 SWAP1 DUP4 ADD SWAP2 DUP6 ADD SWAP1 DUP1 DUP4 DUP4 PUSH1 0x0 JUMPDEST DUP4 DUP2 LT ISZERO PUSH2 0x3B3 JUMPI DUP2 DUP2 ADD MLOAD DUP4 DUP3 ADD MSTORE PUSH1 0x20 ADD PUSH2 0x39B JUMP JUMPDEST POP POP POP POP SWAP1 POP SWAP1 DUP2 ADD SWAP1 PUSH1 0x1F AND DUP1 ISZERO PUSH2 0x3E0 JUMPI DUP1 DUP3 SUB DUP1 MLOAD PUSH1 0x1 DUP4 PUSH1 0x20 SUB PUSH2 0x100 EXP SUB NOT AND DUP2 MSTORE PUSH1 0x20 ADD SWAP2 POP JUMPDEST POP SWAP3 POP POP POP PUSH1 0x40 MLOAD DUP1 SWAP2 SUB SWAP1 RETURN JUMPDEST PUSH2 0x41A PUSH1 0x4 DUP1 CALLDATASIZE SUB PUSH1 0x40 DUP2 LT ISZERO PUSH2 0x404 JUMPI PUSH1 0x0 DUP1 REVERT JUMPDEST POP PUSH1 0x1 PUSH1 0x1 PUSH1 0xA0 SHL SUB DUP2 CALLDATALOAD AND SWAP1 PUSH1 0x20 ADD CALLDATALOAD PUSH2 0xBC2 JUMP JUMPDEST PUSH1 0x40 DUP1 MLOAD SWAP2 ISZERO ISZERO DUP3 MSTORE MLOAD SWAP1 DUP2 SWAP1 SUB PUSH1 0x20 ADD SWAP1 RETURN JUMPDEST PUSH2 0x34F PUSH1 0x4 DUP1 CALLDATASIZE SUB PUSH1 0x20 DUP2 LT ISZERO PUSH2 0x444 JUMPI PUSH1 0x0 DUP1 REVERT JUMPDEST POP CALLDATALOAD PUSH1 0x1 PUSH1 0x1 PUSH1 0xA0 SHL SUB AND PUSH2 0xBD9 JUMP JUMPDEST PUSH2 0x34F PUSH2 0xBEB JUMP JUMPDEST PUSH2 0x34F PUSH1 0x4 DUP1 CALLDATASIZE SUB PUSH1 0x20 DUP2 LT ISZERO PUSH2 0x472 JUMPI PUSH1 0x0 DUP1 REVERT JUMPDEST POP CALLDATALOAD PUSH1 0x1 PUSH1 0x1 PUSH1 0xA0 SHL SUB AND PUSH2 0xBF1 JUMP JUMPDEST PUSH2 0x41A PUSH1 0x4 DUP1 CALLDATASIZE SUB PUSH1 0x60 DUP2 LT ISZERO PUSH2 0x498 JUMPI PUSH1 0x0 DUP1 REVERT JUMPDEST POP PUSH1 0x1 PUSH1 0x1 PUSH1 0xA0 SHL SUB DUP2 CALLDATALOAD DUP2 AND SWAP2 PUSH1 0x20 DUP2 ADD CALLDATALOAD SWAP1 SWAP2 AND SWAP1 PUSH1 0x40 ADD CALLDATALOAD PUSH2 0xC03 JUMP JUMPDEST PUSH2 0x4C0 PUSH2 0xC3E JUMP JUMPDEST PUSH1 0x40 DUP1 MLOAD PUSH1 0x1 PUSH1 0x1 PUSH1 0xA0 SHL SUB SWAP1 SWAP3 AND DUP3 MSTORE MLOAD SWAP1 DUP2 SWAP1 SUB PUSH1 0x20 ADD SWAP1 RETURN JUMPDEST PUSH2 0x4E4 PUSH2 0xC4D JUMP JUMPDEST STOP JUMPDEST PUSH2 0x4EE PUSH2 0xE0A JUMP JUMPDEST PUSH1 0x40 DUP1 MLOAD PUSH1 0xFF SWAP1 SWAP3 AND DUP3 MSTORE MLOAD SWAP1 DUP2 SWAP1 SUB PUSH1 0x20 ADD SWAP1 RETURN JUMPDEST PUSH2 0x4E4 PUSH2 0xE13 JUMP JUMPDEST PUSH2 0x41A PUSH1 0x4 DUP1 CALLDATASIZE SUB PUSH1 0x40 DUP2 LT ISZERO PUSH2 0x522 JUMPI PUSH1 0x0 DUP1 REVERT JUMPDEST POP PUSH1 0x1 PUSH1 0x1 PUSH1 0xA0 SHL SUB DUP2 CALLDATALOAD AND SWAP1 PUSH1 0x20 ADD CALLDATALOAD PUSH2 0xE83 JUMP JUMPDEST PUSH2 0x34F PUSH2 0xEBF JUMP JUMPDEST PUSH2 0x34F PUSH1 0x4 DUP1 CALLDATASIZE SUB PUSH1 0x20 DUP2 LT ISZERO PUSH2 0x556 JUMPI PUSH1 0x0 DUP1 REVERT JUMPDEST POP CALLDATALOAD PUSH1 0x1 PUSH1 0x1 PUSH1 0xA0 SHL SUB AND PUSH2 0xEC4 JUMP JUMPDEST PUSH2 0x34F PUSH2 0x130E JUMP JUMPDEST PUSH2 0x34F PUSH1 0x4 DUP1 CALLDATASIZE SUB PUSH1 0x20 DUP2 LT ISZERO PUSH2 0x584 JUMPI PUSH1 0x0 DUP1 REVERT JUMPDEST POP CALLDATALOAD PUSH1 0x1 PUSH1 0x1 PUSH1 0xA0 SHL SUB AND PUSH2 0x1316 JUMP JUMPDEST PUSH2 0x34F PUSH2 0x1328 JUMP JUMPDEST PUSH2 0x34F PUSH1 0x4 DUP1 CALLDATASIZE SUB PUSH1 0x20 DUP2 LT ISZERO PUSH2 0x5B2 JUMPI PUSH1 0x0 DUP1 REVERT JUMPDEST POP CALLDATALOAD PUSH1 0x1 PUSH1 0x1 PUSH1 0xA0 SHL SUB AND PUSH2 0x132E JUMP JUMPDEST PUSH2 0x4E4 PUSH2 0x1349 JUMP JUMPDEST PUSH2 0x34F PUSH1 0x4 DUP1 CALLDATASIZE SUB PUSH1 0x20 DUP2 LT ISZERO PUSH2 0x5E0 JUMPI PUSH1 0x0 DUP1 REVERT JUMPDEST POP CALLDATALOAD PUSH1 0x1 PUSH1 0x1 PUSH1 0xA0 SHL SUB AND PUSH2 0x13E3 JUMP JUMPDEST PUSH2 0x4C0 PUSH2 0x1632 JUMP JUMPDEST PUSH2 0x41A PUSH1 0x4 DUP1 CALLDATASIZE SUB PUSH1 0x20 DUP2 LT ISZERO PUSH2 0x60E JUMPI PUSH1 0x0 DUP1 REVERT JUMPDEST POP CALLDATALOAD PUSH1 0x1 PUSH1 0x1 PUSH1 0xA0 SHL SUB AND PUSH2 0x1641 JUMP JUMPDEST PUSH2 0x34F PUSH1 0x4 DUP1 CALLDATASIZE SUB PUSH1 0x20 DUP2 LT ISZERO PUSH2 0x634 JUMPI PUSH1 0x0 DUP1 REVERT JUMPDEST POP CALLDATALOAD PUSH1 0x1 PUSH1 0x1 PUSH1 0xA0 SHL SUB AND PUSH2 0x1656 JUMP JUMPDEST PUSH2 0x34F PUSH2 0x1A5B JUMP JUMPDEST PUSH2 0x41A PUSH1 0x4 DUP1 CALLDATASIZE SUB PUSH1 0x40 DUP2 LT ISZERO PUSH2 0x662 JUMPI PUSH1 0x0 DUP1 REVERT JUMPDEST POP PUSH1 0x1 PUSH1 0x1 PUSH1 0xA0 SHL SUB DUP2 CALLDATALOAD AND SWAP1 PUSH1 0x20 ADD CALLDATALOAD PUSH2 0x1C4E JUMP JUMPDEST PUSH2 0x4C0 PUSH2 0x1DF0 JUMP JUMPDEST PUSH2 0x4E4 PUSH2 0x1DFF JUMP JUMPDEST PUSH2 0x34F PUSH1 0x4 DUP1 CALLDATASIZE SUB PUSH1 0x20 DUP2 LT ISZERO PUSH2 0x69E JUMPI PUSH1 0x0 DUP1 REVERT JUMPDEST POP CALLDATALOAD PUSH1 0x1 PUSH1 0x1 PUSH1 0xA0 SHL SUB AND PUSH2 0x1FA0 JUMP JUMPDEST PUSH2 0x34F PUSH2 0x21CA JUMP JUMPDEST PUSH2 0x4C0 PUSH2 0x21D0 JUMP JUMPDEST PUSH2 0x34F PUSH1 0x4 DUP1 CALLDATASIZE SUB PUSH1 0x20 DUP2 LT ISZERO PUSH2 0x6D4 JUMPI PUSH1 0x0 DUP1 REVERT JUMPDEST POP CALLDATALOAD PUSH1 0x1 PUSH1 0x1 PUSH1 0xA0 SHL SUB AND PUSH2 0x21E4 JUMP JUMPDEST PUSH2 0x41A PUSH2 0x23EF JUMP JUMPDEST PUSH2 0x4E4 PUSH1 0x4 DUP1 CALLDATASIZE SUB PUSH1 0x40 DUP2 LT ISZERO PUSH2 0x702 JUMPI PUSH1 0x0 DUP1 REVERT JUMPDEST POP PUSH1 0x1 PUSH1 0x1 PUSH1 0xA0 SHL SUB DUP2 CALLDATALOAD AND SWAP1 PUSH1 0x20 ADD CALLDATALOAD PUSH2 0x2405 JUMP JUMPDEST PUSH2 0x379 PUSH2 0x246A JUMP JUMPDEST PUSH2 0x41A PUSH1 0x4 DUP1 CALLDATASIZE SUB PUSH1 0x40 DUP2 LT ISZERO PUSH2 0x736 JUMPI PUSH1 0x0 DUP1 REVERT JUMPDEST POP PUSH1 0x1 PUSH1 0x1 PUSH1 0xA0 SHL SUB DUP2 CALLDATALOAD AND SWAP1 PUSH1 0x20 ADD CALLDATALOAD PUSH2 0x24CB JUMP JUMPDEST PUSH2 0x41A PUSH1 0x4 DUP1 CALLDATASIZE SUB PUSH1 0x40 DUP2 LT ISZERO PUSH2 0x762 JUMPI PUSH1 0x0 DUP1 REVERT JUMPDEST POP PUSH1 0x1 PUSH1 0x1 PUSH1 0xA0 SHL SUB DUP2 CALLDATALOAD AND SWAP1 PUSH1 0x20 ADD CALLDATALOAD PUSH2 0x2598 JUMP JUMPDEST PUSH2 0x41A PUSH1 0x4 DUP1 CALLDATASIZE SUB PUSH1 0x40 DUP2 LT ISZERO PUSH2 0x78E JUMPI PUSH1 0x0 DUP1 REVERT JUMPDEST POP PUSH1 0x1 PUSH1 0x1 PUSH1 0xA0 SHL SUB DUP2 CALLDATALOAD AND SWAP1 PUSH1 0x20 ADD CALLDATALOAD PUSH2 0x25D4 JUMP JUMPDEST PUSH2 0x4C0 PUSH2 0x25E1 JUMP JUMPDEST PUSH2 0x34F PUSH1 0x4 DUP1 CALLDATASIZE SUB PUSH1 0x20 DUP2 LT ISZERO PUSH2 0x7C2 JUMPI PUSH1 0x0 DUP1 REVERT JUMPDEST POP CALLDATALOAD PUSH1 0x1 PUSH1 0x1 PUSH1 0xA0 SHL SUB AND PUSH2 0x25F0 JUMP JUMPDEST PUSH2 0x4E4 PUSH2 0x2602 JUMP JUMPDEST PUSH2 0x41A PUSH1 0x4 DUP1 CALLDATASIZE SUB PUSH1 0x20 DUP2 LT ISZERO PUSH2 0x7F0 JUMPI PUSH1 0x0 DUP1 REVERT JUMPDEST POP CALLDATALOAD PUSH1 0x1 PUSH1 0x1 PUSH1 0xA0 SHL SUB AND PUSH2 0x2672 JUMP JUMPDEST PUSH2 0x34F PUSH2 0x2687 JUMP JUMPDEST PUSH2 0x4C0 PUSH2 0x28A1 JUMP JUMPDEST PUSH2 0x34F PUSH2 0x28B0 JUMP JUMPDEST PUSH2 0x34F PUSH2 0x28B6 JUMP JUMPDEST PUSH2 0x4E4 PUSH1 0x4 DUP1 CALLDATASIZE SUB PUSH1 0x20 DUP2 LT ISZERO PUSH2 0x836 JUMPI PUSH1 0x0 DUP1 REVERT JUMPDEST POP CALLDATALOAD PUSH1 0x1 PUSH1 0x1 PUSH1 0xA0 SHL SUB AND PUSH2 0x28BC JUMP JUMPDEST PUSH2 0x34F PUSH1 0x4 DUP1 CALLDATASIZE SUB PUSH1 0x40 DUP2 LT ISZERO PUSH2 0x85C JUMPI PUSH1 0x0 DUP1 REVERT JUMPDEST POP PUSH1 0x1 PUSH1 0x1 PUSH1 0xA0 SHL SUB DUP2 CALLDATALOAD DUP2 AND SWAP2 PUSH1 0x20 ADD CALLDATALOAD AND PUSH2 0x2928 JUMP JUMPDEST PUSH2 0x4E4 PUSH2 0x2953 JUMP JUMPDEST PUSH2 0x34F PUSH1 0x4 DUP1 CALLDATASIZE SUB PUSH1 0x20 DUP2 LT ISZERO PUSH2 0x892 JUMPI PUSH1 0x0 DUP1 REVERT JUMPDEST POP CALLDATALOAD PUSH1 0x1 PUSH1 0x1 PUSH1 0xA0 SHL SUB AND PUSH2 0x29C3 JUMP JUMPDEST PUSH2 0x4E4 PUSH1 0x4 DUP1 CALLDATASIZE SUB PUSH1 0x20 DUP2 LT ISZERO PUSH2 0x8B8 JUMPI PUSH1 0x0 DUP1 REVERT JUMPDEST POP CALLDATALOAD PUSH1 0x1 PUSH1 0x1 PUSH1 0xA0 SHL SUB AND PUSH2 0x29D5 JUMP JUMPDEST PUSH2 0x41A PUSH1 0x4 DUP1 CALLDATASIZE SUB PUSH1 0x40 DUP2 LT ISZERO PUSH2 0x8DE JUMPI PUSH1 0x0 DUP1 REVERT JUMPDEST POP PUSH1 0x1 PUSH1 0x1 PUSH1 0xA0 SHL SUB DUP2 CALLDATALOAD AND SWAP1 PUSH1 0x20 ADD CALLDATALOAD PUSH2 0x2A2B JUMP JUMPDEST PUSH1 0x9 SLOAD DUP2 JUMP JUMPDEST PUSH1 0xA SLOAD DUP2 JUMP JUMPDEST PUSH1 0x0 PUSH4 0x5ED44500 TIMESTAMP LT ISZERO PUSH2 0x916 JUMPI POP PUSH1 0x0 PUSH2 0xB29 JUMP JUMPDEST PUSH4 0x603C2E80 TIMESTAMP LT ISZERO PUSH2 0x950 JUMPI PUSH2 0x949 PUSH1 0x64 PUSH2 0x93D PUSH1 0xA PUSH1 0x6 SLOAD PUSH2 0x2BBF SWAP1 SWAP2 SWAP1 PUSH4 0xFFFFFFFF AND JUMP JUMPDEST SWAP1 PUSH4 0xFFFFFFFF PUSH2 0x2C1B AND JUMP JUMPDEST SWAP1 POP PUSH2 0xB29 JUMP JUMPDEST PUSH4 0x621D6200 TIMESTAMP LT ISZERO PUSH2 0x977 JUMPI PUSH2 0x949 PUSH1 0x64 PUSH2 0x93D PUSH1 0x14 PUSH1 0x6 SLOAD PUSH2 0x2BBF SWAP1 SWAP2 SWAP1 PUSH4 0xFFFFFFFF AND JUMP JUMPDEST PUSH4 0x6387EE80 TIMESTAMP LT ISZERO PUSH2 0x99E JUMPI PUSH2 0x949 PUSH1 0x64 PUSH2 0x93D PUSH1 0x1E PUSH1 0x6 SLOAD PUSH2 0x2BBF SWAP1 SWAP2 SWAP1 PUSH4 0xFFFFFFFF AND JUMP JUMPDEST PUSH4 0x63FE9580 TIMESTAMP LT ISZERO PUSH2 0x9C5 JUMPI PUSH2 0x949 PUSH1 0x64 PUSH2 0x93D PUSH1 0x23 PUSH1 0x6 SLOAD PUSH2 0x2BBF SWAP1 SWAP2 SWAP1 PUSH4 0xFFFFFFFF AND JUMP JUMPDEST PUSH4 0x64C84B00 TIMESTAMP LT ISZERO PUSH2 0x9EC JUMPI PUSH2 0x949 PUSH1 0x64 PUSH2 0x93D PUSH1 0x28 PUSH1 0x6 SLOAD PUSH2 0x2BBF SWAP1 SWAP2 SWAP1 PUSH4 0xFFFFFFFF AND JUMP JUMPDEST PUSH4 0x65BADF00 TIMESTAMP LT ISZERO PUSH2 0xA13 JUMPI PUSH2 0x949 PUSH1 0x64 PUSH2 0x93D PUSH1 0x2D PUSH1 0x6 SLOAD PUSH2 0x2BBF SWAP1 SWAP2 SWAP1 PUSH4 0xFFFFFFFF AND JUMP JUMPDEST PUSH4 0x6609F900 TIMESTAMP LT ISZERO PUSH2 0xA3A JUMPI PUSH2 0x949 PUSH1 0x64 PUSH2 0x93D PUSH1 0x32 PUSH1 0x6 SLOAD PUSH2 0x2BBF SWAP1 SWAP2 SWAP1 PUSH4 0xFFFFFFFF AND JUMP JUMPDEST PUSH4 0x66AAD000 TIMESTAMP LT ISZERO PUSH2 0xA61 JUMPI PUSH2 0x949 PUSH1 0x64 PUSH2 0x93D PUSH1 0x37 PUSH1 0x6 SLOAD PUSH2 0x2BBF SWAP1 SWAP2 SWAP1 PUSH4 0xFFFFFFFF AND JUMP JUMPDEST PUSH4 0x66FB3B80 TIMESTAMP LT ISZERO PUSH2 0xA88 JUMPI PUSH2 0x949 PUSH1 0x64 PUSH2 0x93D PUSH1 0x3C PUSH1 0x6 SLOAD PUSH2 0x2BBF SWAP1 SWAP2 SWAP1 PUSH4 0xFFFFFFFF AND JUMP JUMPDEST PUSH4 0x674BA700 TIMESTAMP LT ISZERO PUSH2 0xAAF JUMPI PUSH2 0x949 PUSH1 0x64 PUSH2 0x93D PUSH1 0x41 PUSH1 0x6 SLOAD PUSH2 0x2BBF SWAP1 SWAP2 SWAP1 PUSH4 0xFFFFFFFF AND JUMP JUMPDEST PUSH4 0x67C24E00 TIMESTAMP LT ISZERO PUSH2 0xAD6 JUMPI PUSH2 0x949 PUSH1 0x64 PUSH2 0x93D PUSH1 0x46 PUSH1 0x6 SLOAD PUSH2 0x2BBF SWAP1 SWAP2 SWAP1 PUSH4 0xFFFFFFFF AND JUMP JUMPDEST PUSH4 0x68632500 TIMESTAMP LT ISZERO PUSH2 0xAFD JUMPI PUSH2 0x949 PUSH1 0x64 PUSH2 0x93D PUSH1 0x50 PUSH1 0x6 SLOAD PUSH2 0x2BBF SWAP1 SWAP2 SWAP1 PUSH4 0xFFFFFFFF AND JUMP JUMPDEST PUSH4 0x692CDA80 TIMESTAMP LT ISZERO PUSH2 0xB24 JUMPI PUSH2 0x949 PUSH1 0x64 PUSH2 0x93D PUSH1 0x5A PUSH1 0x6 SLOAD PUSH2 0x2BBF SWAP1 SWAP2 SWAP1 PUSH4 0xFFFFFFFF AND JUMP JUMPDEST POP PUSH1 0x6 SLOAD JUMPDEST SWAP1 JUMP JUMPDEST PUSH1 0x3 DUP1 SLOAD PUSH1 0x40 DUP1 MLOAD PUSH1 0x20 PUSH1 0x1F PUSH1 0x2 PUSH1 0x0 NOT PUSH2 0x100 PUSH1 0x1 DUP9 AND ISZERO MUL ADD SWAP1 SWAP6 AND SWAP5 SWAP1 SWAP5 DIV SWAP4 DUP5 ADD DUP2 SWAP1 DIV DUP2 MUL DUP3 ADD DUP2 ADD SWAP1 SWAP3 MSTORE DUP3 DUP2 MSTORE PUSH1 0x60 SWAP4 SWAP1 SWAP3 SWAP1 SWAP2 DUP4 ADD DUP3 DUP3 DUP1 ISZERO PUSH2 0xBB8 JUMPI DUP1 PUSH1 0x1F LT PUSH2 0xB8D JUMPI PUSH2 0x100 DUP1 DUP4 SLOAD DIV MUL DUP4 MSTORE SWAP2 PUSH1 0x20 ADD SWAP2 PUSH2 0xBB8 JUMP JUMPDEST DUP3 ADD SWAP2 SWAP1 PUSH1 0x0 MSTORE PUSH1 0x20 PUSH1 0x0 KECCAK256 SWAP1 JUMPDEST DUP2 SLOAD DUP2 MSTORE SWAP1 PUSH1 0x1 ADD SWAP1 PUSH1 0x20 ADD DUP1 DUP4 GT PUSH2 0xB9B JUMPI DUP3 SWAP1 SUB PUSH1 0x1F AND DUP3 ADD SWAP2 JUMPDEST POP POP POP POP POP SWAP1 POP SWAP1 JUMP JUMPDEST PUSH1 0x0 PUSH2 0xBCF CALLER DUP5 DUP5 PUSH2 0x2C88 JUMP JUMPDEST POP PUSH1 0x1 JUMPDEST SWAP3 SWAP2 POP POP JUMP JUMPDEST PUSH1 0x11 PUSH1 0x20 MSTORE PUSH1 0x0 SWAP1 DUP2 MSTORE PUSH1 0x40 SWAP1 KECCAK256 SLOAD DUP2 JUMP JUMPDEST PUSH1 0x2 SLOAD SWAP1 JUMP JUMPDEST PUSH1 0x12 PUSH1 0x20 MSTORE PUSH1 0x0 SWAP1 DUP2 MSTORE PUSH1 0x40 SWAP1 KECCAK256 SLOAD DUP2 JUMP JUMPDEST PUSH1 0x0 PUSH2 0xC10 DUP5 DUP5 DUP5 PUSH2 0x2D7A JUMP JUMPDEST PUSH2 0xC34 DUP5 CALLER PUSH2 0xC2F DUP6 PUSH2 0xC23 DUP10 CALLER PUSH2 0x2928 JUMP JUMPDEST SWAP1 PUSH4 0xFFFFFFFF PUSH2 0x2FE1 AND JUMP JUMPDEST PUSH2 0x2C88 JUMP JUMPDEST POP PUSH1 0x1 SWAP4 SWAP3 POP POP POP JUMP JUMPDEST PUSH1 0xE SLOAD PUSH1 0x1 PUSH1 0x1 PUSH1 0xA0 SHL SUB AND DUP2 JUMP JUMPDEST PUSH1 0x1 TIMESTAMP LT ISZERO PUSH2 0xC90 JUMPI PUSH1 0x40 MLOAD PUSH1 0x1 PUSH1 0xE5 SHL PUSH3 0x461BCD MUL DUP2 MSTORE PUSH1 0x4 ADD DUP1 DUP1 PUSH1 0x20 ADD DUP3 DUP2 SUB DUP3 MSTORE PUSH1 0x2C DUP2 MSTORE PUSH1 0x20 ADD DUP1 PUSH2 0x3395 PUSH1 0x2C SWAP2 CODECOPY PUSH1 0x40 ADD SWAP2 POP POP PUSH1 0x40 MLOAD DUP1 SWAP2 SUB SWAP1 REVERT JUMPDEST CALLER PUSH1 0x0 SWAP1 DUP2 MSTORE PUSH1 0x15 PUSH1 0x20 MSTORE PUSH1 0x40 SWAP1 KECCAK256 SLOAD PUSH1 0xFF AND PUSH2 0xCF7 JUMPI PUSH1 0x40 DUP1 MLOAD PUSH1 0x1 PUSH1 0xE5 SHL PUSH3 0x461BCD MUL DUP2 MSTORE PUSH1 0x20 PUSH1 0x4 DUP3 ADD MSTORE PUSH1 0x17 PUSH1 0x24 DUP3 ADD MSTORE PUSH32 0x546F6B656E73206D75737420626520756E6C6F636B6564000000000000000000 PUSH1 0x44 DUP3 ADD MSTORE SWAP1 MLOAD SWAP1 DUP2 SWAP1 SUB PUSH1 0x64 ADD SWAP1 REVERT JUMPDEST PUSH4 0x692CDA80 TIMESTAMP LT PUSH2 0xD3C JUMPI PUSH1 0x40 MLOAD PUSH1 0x1 PUSH1 0xE5 SHL PUSH3 0x461BCD MUL DUP2 MSTORE PUSH1 0x4 ADD DUP1 DUP1 PUSH1 0x20 ADD DUP3 DUP2 SUB DUP3 MSTORE PUSH1 0x2D DUP2 MSTORE PUSH1 0x20 ADD DUP1 PUSH2 0x344A PUSH1 0x2D SWAP2 CODECOPY PUSH1 0x40 ADD SWAP2 POP POP PUSH1 0x40 MLOAD DUP1 SWAP2 SUB SWAP1 REVERT JUMPDEST CALLER PUSH1 0x0 DUP2 DUP2 MSTORE PUSH1 0x15 PUSH1 0x20 MSTORE PUSH1 0x40 SWAP1 KECCAK256 DUP1 SLOAD PUSH1 0xFF NOT AND SWAP1 SSTORE PUSH2 0xD9C SWAP1 PUSH2 0xD80 SWAP1 PUSH2 0xD64 SWAP1 PUSH2 0x1656 JUMP JUMPDEST CALLER PUSH1 0x0 SWAP1 DUP2 MSTORE PUSH1 0x11 PUSH1 0x20 MSTORE PUSH1 0x40 SWAP1 KECCAK256 SLOAD SWAP1 PUSH4 0xFFFFFFFF PUSH2 0x2FE1 AND JUMP JUMPDEST CALLER PUSH1 0x0 SWAP1 DUP2 MSTORE PUSH1 0x17 PUSH1 0x20 MSTORE PUSH1 0x40 SWAP1 KECCAK256 SLOAD SWAP1 PUSH4 0xFFFFFFFF PUSH2 0x3041 AND JUMP JUMPDEST CALLER PUSH1 0x0 DUP2 DUP2 MSTORE PUSH1 0x17 PUSH1 0x20 SWAP1 DUP2 MSTORE PUSH1 0x40 DUP1 DUP4 KECCAK256 SWAP5 SWAP1 SWAP5 SSTORE PUSH1 0x11 SWAP1 MSTORE SWAP2 DUP3 KECCAK256 SWAP2 SWAP1 SWAP2 SSTORE PUSH2 0xDEA SWAP1 PUSH2 0xD80 SWAP1 PUSH2 0xDCE SWAP1 PUSH2 0x1FA0 JUMP JUMPDEST CALLER PUSH1 0x0 SWAP1 DUP2 MSTORE PUSH1 0x13 PUSH1 0x20 MSTORE PUSH1 0x40 SWAP1 KECCAK256 SLOAD SWAP1 PUSH4 0xFFFFFFFF PUSH2 0x2FE1 AND JUMP JUMPDEST CALLER PUSH1 0x0 SWAP1 DUP2 MSTORE PUSH1 0x17 PUSH1 0x20 SWAP1 DUP2 MSTORE PUSH1 0x40 DUP1 DUP4 KECCAK256 SWAP4 SWAP1 SWAP4 SSTORE PUSH1 0x13 SWAP1 MSTORE SWAP1 DUP2 KECCAK256 SSTORE JUMP JUMPDEST PUSH1 0x5 SLOAD PUSH1 0xFF AND SWAP1 JUMP JUMPDEST PUSH1 0xC SLOAD PUSH1 0x1 PUSH1 0x1 PUSH1 0xA0 SHL SUB AND CALLER EQ PUSH2 0xE63 JUMPI PUSH1 0x40 DUP1 MLOAD PUSH1 0x1 PUSH1 0xE5 SHL PUSH3 0x461BCD MUL DUP2 MSTORE PUSH1 0x20 PUSH1 0x4 DUP3 ADD MSTORE PUSH1 0x1E PUSH1 0x24 DUP3 ADD MSTORE PUSH1 0x0 DUP1 MLOAD PUSH1 0x20 PUSH2 0x34BD DUP4 CODECOPY DUP2 MLOAD SWAP2 MSTORE PUSH1 0x44 DUP3 ADD MSTORE SWAP1 MLOAD SWAP1 DUP2 SWAP1 SUB PUSH1 0x64 ADD SWAP1 REVERT JUMPDEST PUSH1 0xC SLOAD PUSH1 0x9 SLOAD PUSH2 0xE7C SWAP2 PUSH1 0x1 PUSH1 0x1 PUSH1 0xA0 SHL SUB AND SWAP1 PUSH2 0x309E JUMP JUMPDEST PUSH1 0x0 PUSH1 0x9 SSTORE JUMP JUMPDEST CALLER PUSH1 0x0 DUP2 DUP2 MSTORE PUSH1 0x1 PUSH1 0x20 SWAP1 DUP2 MSTORE PUSH1 0x40 DUP1 DUP4 KECCAK256 PUSH1 0x1 PUSH1 0x1 PUSH1 0xA0 SHL SUB DUP8 AND DUP5 MSTORE SWAP1 SWAP2 MSTORE DUP2 KECCAK256 SLOAD SWAP1 SWAP2 PUSH2 0xBCF SWAP2 DUP6 SWAP1 PUSH2 0xC2F SWAP1 DUP7 PUSH4 0xFFFFFFFF PUSH2 0x3041 AND JUMP JUMPDEST PUSH1 0x1 DUP2 JUMP JUMPDEST PUSH1 0x0 PUSH4 0x5DE30280 TIMESTAMP LT ISZERO PUSH2 0xEDA JUMPI POP PUSH1 0x0 PUSH2 0x1309 JUMP JUMPDEST PUSH4 0x5E34BF80 TIMESTAMP LT ISZERO PUSH2 0xF1E JUMPI PUSH1 0x1 PUSH1 0x1 PUSH1 0xA0 SHL SUB DUP3 AND PUSH1 0x0 SWAP1 DUP2 MSTORE PUSH1 0x12 PUSH1 0x20 MSTORE PUSH1 0x40 SWAP1 KECCAK256 SLOAD PUSH2 0xF17 SWAP1 PUSH1 0x64 SWAP1 PUSH2 0x93D SWAP1 PUSH1 0xF PUSH4 0xFFFFFFFF PUSH2 0x2BBF AND JUMP JUMPDEST SWAP1 POP PUSH2 0x1309 JUMP JUMPDEST PUSH4 0x5EAB6680 TIMESTAMP LT ISZERO PUSH2 0xF5B JUMPI PUSH1 0x1 PUSH1 0x1 PUSH1 0xA0 SHL SUB DUP3 AND PUSH1 0x0 SWAP1 DUP2 MSTORE PUSH1 0x12 PUSH1 0x20 MSTORE PUSH1 0x40 SWAP1 KECCAK256 SLOAD PUSH2 0xF17 SWAP1 PUSH1 0x64 SWAP1 PUSH2 0x93D SWAP1 PUSH1 0x14 PUSH4 0xFFFFFFFF PUSH2 0x2BBF AND JUMP JUMPDEST PUSH4 0x5FC58780 TIMESTAMP LT ISZERO PUSH2 0xF98 JUMPI PUSH1 0x1 PUSH1 0x1 PUSH1 0xA0 SHL SUB DUP3 AND PUSH1 0x0 SWAP1 DUP2 MSTORE PUSH1 0x12 PUSH1 0x20 MSTORE PUSH1 0x40 SWAP1 KECCAK256 SLOAD PUSH2 0xF17 SWAP1 PUSH1 0x64 SWAP1 PUSH2 0x93D SWAP1 PUSH1 0x19 PUSH4 0xFFFFFFFF PUSH2 0x2BBF AND JUMP JUMPDEST PUSH4 0x60650D00 TIMESTAMP LT ISZERO PUSH2 0xFD5 JUMPI PUSH1 0x1 PUSH1 0x1 PUSH1 0xA0 SHL SUB DUP3 AND PUSH1 0x0 SWAP1 DUP2 MSTORE PUSH1 0x12 PUSH1 0x20 MSTORE PUSH1 0x40 SWAP1 KECCAK256 SLOAD PUSH2 0xF17 SWAP1 PUSH1 0x64 SWAP1 PUSH2 0x93D SWAP1 PUSH1 0x1E PUSH4 0xFFFFFFFF PUSH2 0x2BBF AND JUMP JUMPDEST PUSH4 0x608C9A00 TIMESTAMP LT ISZERO PUSH2 0x1012 JUMPI PUSH1 0x1 PUSH1 0x1 PUSH1 0xA0 SHL SUB DUP3 AND PUSH1 0x0 SWAP1 DUP2 MSTORE PUSH1 0x12 PUSH1 0x20 MSTORE PUSH1 0x40 SWAP1 KECCAK256 SLOAD PUSH2 0xF17 SWAP1 PUSH1 0x64 SWAP1 PUSH2 0x93D SWAP1 PUSH1 0x23 PUSH4 0xFFFFFFFF PUSH2 0x2BBF AND JUMP JUMPDEST PUSH4 0x6105E400 TIMESTAMP LT ISZERO PUSH2 0x104F JUMPI PUSH1 0x1 PUSH1 0x1 PUSH1 0xA0 SHL SUB DUP3 AND PUSH1 0x0 SWAP1 DUP2 MSTORE PUSH1 0x12 PUSH1 0x20 MSTORE PUSH1 0x40 SWAP1 KECCAK256 SLOAD PUSH2 0xF17 SWAP1 PUSH1 0x64 SWAP1 PUSH2 0x93D SWAP1 PUSH1 0x28 PUSH4 0xFFFFFFFF PUSH2 0x2BBF AND JUMP JUMPDEST PUSH4 0x61A6BB00 TIMESTAMP LT ISZERO PUSH2 0x108C JUMPI PUSH1 0x1 PUSH1 0x1 PUSH1 0xA0 SHL SUB DUP3 AND PUSH1 0x0 SWAP1 DUP2 MSTORE PUSH1 0x12 PUSH1 0x20 MSTORE PUSH1 0x40 SWAP1 KECCAK256 SLOAD PUSH2 0xF17 SWAP1 PUSH1 0x64 SWAP1 PUSH2 0x93D SWAP1 PUSH1 0x2D PUSH4 0xFFFFFFFF PUSH2 0x2BBF AND JUMP JUMPDEST PUSH4 0x621D6200 TIMESTAMP LT ISZERO PUSH2 0x10C9 JUMPI PUSH1 0x1 PUSH1 0x1 PUSH1 0xA0 SHL SUB DUP3 AND PUSH1 0x0 SWAP1 DUP2 MSTORE PUSH1 0x12 PUSH1 0x20 MSTORE PUSH1 0x40 SWAP1 KECCAK256 SLOAD PUSH2 0xF17 SWAP1 PUSH1 0x64 SWAP1 PUSH2 0x93D SWAP1 PUSH1 0x32 PUSH4 0xFFFFFFFF PUSH2 0x2BBF AND JUMP JUMPDEST PUSH4 0x62BE3900 TIMESTAMP LT ISZERO PUSH2 0x1106 JUMPI PUSH1 0x1 PUSH1 0x1 PUSH1 0xA0 SHL SUB DUP3 AND PUSH1 0x0 SWAP1 DUP2 MSTORE PUSH1 0x12 PUSH1 0x20 MSTORE PUSH1 0x40 SWAP1 KECCAK256 SLOAD PUSH2 0xF17 SWAP1 PUSH1 0x64 SWAP1 PUSH2 0x93D SWAP1 PUSH1 0x37 PUSH4 0xFFFFFFFF PUSH2 0x2BBF AND JUMP JUMPDEST PUSH4 0x63378300 TIMESTAMP LT ISZERO PUSH2 0x1143 JUMPI PUSH1 0x1 PUSH1 0x1 PUSH1 0xA0 SHL SUB DUP3 AND PUSH1 0x0 SWAP1 DUP2 MSTORE PUSH1 0x12 PUSH1 0x20 MSTORE PUSH1 0x40 SWAP1 KECCAK256 SLOAD PUSH2 0xF17 SWAP1 PUSH1 0x64 SWAP1 PUSH2 0x93D SWAP1 PUSH1 0x3C PUSH4 0xFFFFFFFF PUSH2 0x2BBF AND JUMP JUMPDEST PUSH4 0x6387EE80 TIMESTAMP LT ISZERO PUSH2 0x1180 JUMPI PUSH1 0x1 PUSH1 0x1 PUSH1 0xA0 SHL SUB DUP3 AND PUSH1 0x0 SWAP1 DUP2 MSTORE PUSH1 0x12 PUSH1 0x20 MSTORE PUSH1 0x40 SWAP1 KECCAK256 SLOAD PUSH2 0xF17 SWAP1 PUSH1 0x64 SWAP1 PUSH2 0x93D SWAP1 PUSH1 0x41 PUSH4 0xFFFFFFFF PUSH2 0x2BBF AND JUMP JUMPDEST PUSH4 0x64277400 TIMESTAMP LT ISZERO PUSH2 0x11BD JUMPI PUSH1 0x1 PUSH1 0x1 PUSH1 0xA0 SHL SUB DUP3 AND PUSH1 0x0 SWAP1 DUP2 MSTORE PUSH1 0x12 PUSH1 0x20 MSTORE PUSH1 0x40 SWAP1 KECCAK256 SLOAD PUSH2 0xF17 SWAP1 PUSH1 0x64 SWAP1 PUSH2 0x93D SWAP1 PUSH1 0x46 PUSH4 0xFFFFFFFF PUSH2 0x2BBF AND JUMP JUMPDEST PUSH4 0x649F6C80 TIMESTAMP LT ISZERO PUSH2 0x11FA JUMPI PUSH1 0x1 PUSH1 0x1 PUSH1 0xA0 SHL SUB DUP3 AND PUSH1 0x0 SWAP1 DUP2 MSTORE PUSH1 0x12 PUSH1 0x20 MSTORE PUSH1 0x40 SWAP1 KECCAK256 SLOAD PUSH2 0xF17 SWAP1 PUSH1 0x64 SWAP1 PUSH2 0x93D SWAP1 PUSH1 0x4B PUSH4 0xFFFFFFFF PUSH2 0x2BBF AND JUMP JUMPDEST PUSH4 0x6518B680 TIMESTAMP LT ISZERO PUSH2 0x1237 JUMPI PUSH1 0x1 PUSH1 0x1 PUSH1 0xA0 SHL SUB DUP3 AND PUSH1 0x0 SWAP1 DUP2 MSTORE PUSH1 0x12 PUSH1 0x20 MSTORE PUSH1 0x40 SWAP1 KECCAK256 SLOAD PUSH2 0xF17 SWAP1 PUSH1 0x64 SWAP1 PUSH2 0x93D SWAP1 PUSH1 0x50 PUSH4 0xFFFFFFFF PUSH2 0x2BBF AND JUMP JUMPDEST PUSH4 0x65692200 TIMESTAMP LT ISZERO PUSH2 0x1274 JUMPI PUSH1 0x1 PUSH1 0x1 PUSH1 0xA0 SHL SUB DUP3 AND PUSH1 0x0 SWAP1 DUP2 MSTORE PUSH1 0x12 PUSH1 0x20 MSTORE PUSH1 0x40 SWAP1 KECCAK256 SLOAD PUSH2 0xF17 SWAP1 PUSH1 0x64 SWAP1 PUSH2 0x93D SWAP1 PUSH1 0x55 PUSH4 0xFFFFFFFF PUSH2 0x2BBF AND JUMP JUMPDEST PUSH4 0x65E11A80 TIMESTAMP LT ISZERO PUSH2 0x12B1 JUMPI PUSH1 0x1 PUSH1 0x1 PUSH1 0xA0 SHL SUB DUP3 AND PUSH1 0x0 SWAP1 DUP2 MSTORE PUSH1 0x12 PUSH1 0x20 MSTORE PUSH1 0x40 SWAP1 KECCAK256 SLOAD PUSH2 0xF17 SWAP1 PUSH1 0x64 SWAP1 PUSH2 0x93D SWAP1 PUSH1 0x5A PUSH4 0xFFFFFFFF PUSH2 0x2BBF AND JUMP JUMPDEST PUSH4 0x6681F180 TIMESTAMP LT ISZERO PUSH2 0x12EE JUMPI PUSH1 0x1 PUSH1 0x1 PUSH1 0xA0 SHL SUB DUP3 AND PUSH1 0x0 SWAP1 DUP2 MSTORE PUSH1 0x12 PUSH1 0x20 MSTORE PUSH1 0x40 SWAP1 KECCAK256 SLOAD PUSH2 0xF17 SWAP1 PUSH1 0x64 SWAP1 PUSH2 0x93D SWAP1 PUSH1 0x5F PUSH4 0xFFFFFFFF PUSH2 0x2BBF AND JUMP JUMPDEST POP PUSH1 0x1 PUSH1 0x1 PUSH1 0xA0 SHL SUB DUP2 AND PUSH1 0x0 SWAP1 DUP2 MSTORE PUSH1 0x12 PUSH1 0x20 MSTORE PUSH1 0x40 SWAP1 KECCAK256 SLOAD JUMPDEST SWAP2 SWAP1 POP JUMP JUMPDEST PUSH4 0x692CDA80 DUP2 JUMP JUMPDEST PUSH1 0x13 PUSH1 0x20 MSTORE PUSH1 0x0 SWAP1 DUP2 MSTORE PUSH1 0x40 SWAP1 KECCAK256 SLOAD DUP2 JUMP JUMPDEST PUSH1 0x8 SLOAD DUP2 JUMP JUMPDEST PUSH1 0x1 PUSH1 0x1 PUSH1 0xA0 SHL SUB AND PUSH1 0x0 SWAP1 DUP2 MSTORE PUSH1 0x20 DUP2 SWAP1 MSTORE PUSH1 0x40 SWAP1 KECCAK256 SLOAD SWAP1 JUMP JUMPDEST PUSH2 0x1351 PUSH2 0x23EF JUMP JUMPDEST PUSH2 0x1393 JUMPI PUSH1 0x40 DUP1 MLOAD PUSH1 0x1 PUSH1 0xE5 SHL PUSH3 0x461BCD MUL DUP2 MSTORE PUSH1 0x20 PUSH1 0x4 DUP3 ADD DUP2 SWAP1 MSTORE PUSH1 0x24 DUP3 ADD MSTORE PUSH1 0x0 DUP1 MLOAD PUSH1 0x20 PUSH2 0x342A DUP4 CODECOPY DUP2 MLOAD SWAP2 MSTORE PUSH1 0x44 DUP3 ADD MSTORE SWAP1 MLOAD SWAP1 DUP2 SWAP1 SUB PUSH1 0x64 ADD SWAP1 REVERT JUMPDEST PUSH1 0x5 SLOAD PUSH1 0x40 MLOAD PUSH1 0x0 SWAP2 PUSH2 0x100 SWAP1 DIV PUSH1 0x1 PUSH1 0x1 PUSH1 0xA0 SHL SUB AND SWAP1 PUSH32 0x8BE0079C531659141344CD1FD0A4F28419497F9722A3DAAFE3B4186F6B6457E0 SWAP1 DUP4 SWAP1 LOG3 PUSH1 0x5 DUP1 SLOAD PUSH2 0x100 PUSH1 0x1 PUSH1 0xA8 SHL SUB NOT AND SWAP1 SSTORE JUMP JUMPDEST PUSH1 0x1 PUSH1 0x1 PUSH1 0xA0 SHL SUB DUP2 AND PUSH1 0x0 SWAP1 DUP2 MSTORE PUSH1 0x14 PUSH1 0x20 MSTORE PUSH1 0x40 DUP2 KECCAK256 SLOAD DUP2 SWAP1 PUSH2 0x140F SWAP1 PUSH1 0x12 PUSH4 0xFFFFFFFF PUSH2 0x2C1B AND JUMP JUMPDEST SWAP1 POP PUSH4 0x5DE30280 TIMESTAMP LT ISZERO PUSH2 0x1427 JUMPI PUSH1 0x0 SWAP2 POP POP PUSH2 0x1309 JUMP JUMPDEST PUSH4 0x5E34BF80 TIMESTAMP LT ISZERO PUSH2 0x143A JUMPI SWAP1 POP PUSH2 0x1309 JUMP JUMPDEST PUSH4 0x5EAB6680 TIMESTAMP LT ISZERO PUSH2 0x145F JUMPI PUSH2 0x1457 DUP2 PUSH1 0x2 PUSH4 0xFFFFFFFF PUSH2 0x2BBF AND JUMP JUMPDEST SWAP2 POP POP PUSH2 0x1309 JUMP JUMPDEST PUSH4 0x5FC58780 TIMESTAMP LT ISZERO PUSH2 0x147C JUMPI PUSH2 0x1457 DUP2 PUSH1 0x3 PUSH4 0xFFFFFFFF PUSH2 0x2BBF AND JUMP JUMPDEST PUSH4 0x60650D00 TIMESTAMP LT ISZERO PUSH2 0x1499 JUMPI PUSH2 0x1457 DUP2 PUSH1 0x4 PUSH4 0xFFFFFFFF PUSH2 0x2BBF AND JUMP JUMPDEST PUSH4 0x608C9A00 TIMESTAMP LT ISZERO PUSH2 0x14B6 JUMPI PUSH2 0x1457 DUP2 PUSH1 0x5 PUSH4 0xFFFFFFFF PUSH2 0x2BBF AND JUMP JUMPDEST PUSH4 0x6105E400 TIMESTAMP LT ISZERO PUSH2 0x14D3 JUMPI PUSH2 0x1457 DUP2 PUSH1 0x6 PUSH4 0xFFFFFFFF PUSH2 0x2BBF AND JUMP JUMPDEST PUSH4 0x61A6BB00 TIMESTAMP LT ISZERO PUSH2 0x14F0 JUMPI PUSH2 0x1457 DUP2 PUSH1 0x7 PUSH4 0xFFFFFFFF PUSH2 0x2BBF AND JUMP JUMPDEST PUSH4 0x621D6200 TIMESTAMP LT ISZERO PUSH2 0x150D JUMPI PUSH2 0x1457 DUP2 PUSH1 0x8 PUSH4 0xFFFFFFFF PUSH2 0x2BBF AND JUMP JUMPDEST PUSH4 0x62BE3900 TIMESTAMP LT ISZERO PUSH2 0x152A JUMPI PUSH2 0x1457 DUP2 PUSH1 0x9 PUSH4 0xFFFFFFFF PUSH2 0x2BBF AND JUMP JUMPDEST PUSH4 0x63378300 TIMESTAMP LT ISZERO PUSH2 0x1547 JUMPI PUSH2 0x1457 DUP2 PUSH1 0xA PUSH4 0xFFFFFFFF PUSH2 0x2BBF AND JUMP JUMPDEST PUSH4 0x6387EE80 TIMESTAMP LT ISZERO PUSH2 0x1564 JUMPI PUSH2 0x1457 DUP2 PUSH1 0xB PUSH4 0xFFFFFFFF PUSH2 0x2BBF AND JUMP JUMPDEST PUSH4 0x64277400 TIMESTAMP LT ISZERO PUSH2 0x1581 JUMPI PUSH2 0x1457 DUP2 PUSH1 0xC PUSH4 0xFFFFFFFF PUSH2 0x2BBF AND JUMP JUMPDEST PUSH4 0x649F6C80 TIMESTAMP LT ISZERO PUSH2 0x159E JUMPI PUSH2 0x1457 DUP2 PUSH1 0xD PUSH4 0xFFFFFFFF PUSH2 0x2BBF AND JUMP JUMPDEST PUSH4 0x6518B680 TIMESTAMP LT ISZERO PUSH2 0x15BB JUMPI PUSH2 0x1457 DUP2 PUSH1 0xE PUSH4 0xFFFFFFFF PUSH2 0x2BBF AND JUMP JUMPDEST PUSH4 0x65692200 TIMESTAMP LT ISZERO PUSH2 0x15D8 JUMPI PUSH2 0x1457 DUP2 PUSH1 0xF PUSH4 0xFFFFFFFF PUSH2 0x2BBF AND JUMP JUMPDEST PUSH4 0x65E11A80 TIMESTAMP LT ISZERO PUSH2 0x15F5 JUMPI PUSH2 0x1457 DUP2 PUSH1 0x10 PUSH4 0xFFFFFFFF PUSH2 0x2BBF AND JUMP JUMPDEST PUSH4 0x6681F180 TIMESTAMP LT ISZERO PUSH2 0x1612 JUMPI PUSH2 0x1457 DUP2 PUSH1 0x11 PUSH4 0xFFFFFFFF PUSH2 0x2BBF AND JUMP JUMPDEST POP POP PUSH1 0x1 PUSH1 0x1 PUSH1 0xA0 SHL SUB DUP2 AND PUSH1 0x0 SWAP1 DUP2 MSTORE PUSH1 0x14 PUSH1 0x20 MSTORE PUSH1 0x40 SWAP1 KECCAK256 SLOAD PUSH2 0x1309 JUMP JUMPDEST PUSH1 0x10 SLOAD PUSH1 0x1 PUSH1 0x1 PUSH1 0xA0 SHL SUB AND DUP2 JUMP JUMPDEST PUSH1 0x15 PUSH1 0x20 MSTORE PUSH1 0x0 SWAP1 DUP2 MSTORE PUSH1 0x40 SWAP1 KECCAK256 SLOAD PUSH1 0xFF AND DUP2 JUMP JUMPDEST PUSH1 0x0 PUSH4 0x5DE30280 TIMESTAMP LT ISZERO PUSH2 0x166C JUMPI POP PUSH1 0x0 PUSH2 0x1309 JUMP JUMPDEST PUSH4 0x5E5AFB00 TIMESTAMP LT ISZERO PUSH2 0x16A9 JUMPI PUSH1 0x1 PUSH1 0x1 PUSH1 0xA0 SHL SUB DUP3 AND PUSH1 0x0 SWAP1 DUP2 MSTORE PUSH1 0x11 PUSH1 0x20 MSTORE PUSH1 0x40 SWAP1 KECCAK256 SLOAD PUSH2 0xF17 SWAP1 PUSH1 0x64 SWAP1 PUSH2 0x93D SWAP1 PUSH1 0x14 PUSH4 0xFFFFFFFF PUSH2 0x2BBF AND JUMP JUMPDEST PUSH4 0x5EFBD200 TIMESTAMP LT ISZERO PUSH2 0x16E6 JUMPI PUSH1 0x1 PUSH1 0x1 PUSH1 0xA0 SHL SUB DUP3 AND PUSH1 0x0 SWAP1 DUP2 MSTORE PUSH1 0x11 PUSH1 0x20 MSTORE PUSH1 0x40 SWAP1 KECCAK256 SLOAD PUSH2 0xF17 SWAP1 PUSH1 0x64 SWAP1 PUSH2 0x93D SWAP1 PUSH1 0x19 PUSH4 0xFFFFFFFF PUSH2 0x2BBF AND JUMP JUMPDEST PUSH4 0x5FC58780 TIMESTAMP LT ISZERO PUSH2 0x1723 JUMPI PUSH1 0x1 PUSH1 0x1 PUSH1 0xA0 SHL SUB DUP3 AND PUSH1 0x0 SWAP1 DUP2 MSTORE PUSH1 0x11 PUSH1 0x20 MSTORE PUSH1 0x40 SWAP1 KECCAK256 SLOAD PUSH2 0xF17 SWAP1 PUSH1 0x64 SWAP1 PUSH2 0x93D SWAP1 PUSH1 0x1E PUSH4 0xFFFFFFFF PUSH2 0x2BBF AND JUMP JUMPDEST PUSH4 0x60650D00 TIMESTAMP LT ISZERO PUSH2 0x1760 JUMPI PUSH1 0x1 PUSH1 0x1 PUSH1 0xA0 SHL SUB DUP3 AND PUSH1 0x0 SWAP1 DUP2 MSTORE PUSH1 0x11 PUSH1 0x20 MSTORE PUSH1 0x40 SWAP1 KECCAK256 SLOAD PUSH2 0xF17 SWAP1 PUSH1 0x64 SWAP1 PUSH2 0x93D SWAP1 PUSH1 0x23 PUSH4 0xFFFFFFFF PUSH2 0x2BBF AND JUMP JUMPDEST PUSH4 0x60DD0580 TIMESTAMP LT ISZERO PUSH2 0x179D JUMPI PUSH1 0x1 PUSH1 0x1 PUSH1 0xA0 SHL SUB DUP3 AND PUSH1 0x0 SWAP1 DUP2 MSTORE PUSH1 0x11 PUSH1 0x20 MSTORE PUSH1 0x40 SWAP1 KECCAK256 SLOAD PUSH2 0xF17 SWAP1 PUSH1 0x64 SWAP1 PUSH2 0x93D SWAP1 PUSH1 0x28 PUSH4 0xFFFFFFFF PUSH2 0x2BBF AND JUMP JUMPDEST PUSH4 0x61564F80 TIMESTAMP LT ISZERO PUSH2 0x17DA JUMPI PUSH1 0x1 PUSH1 0x1 PUSH1 0xA0 SHL SUB DUP3 AND PUSH1 0x0 SWAP1 DUP2 MSTORE PUSH1 0x11 PUSH1 0x20 MSTORE PUSH1 0x40 SWAP1 KECCAK256 SLOAD PUSH2 0xF17 SWAP1 PUSH1 0x64 SWAP1 PUSH2 0x93D SWAP1 PUSH1 0x2D PUSH4 0xFFFFFFFF PUSH2 0x2BBF AND JUMP JUMPDEST PUSH4 0x61A6BB00 TIMESTAMP LT ISZERO PUSH2 0x1817 JUMPI PUSH1 0x1 PUSH1 0x1 PUSH1 0xA0 SHL SUB DUP3 AND PUSH1 0x0 SWAP1 DUP2 MSTORE PUSH1 0x11 PUSH1 0x20 MSTORE PUSH1 0x40 SWAP1 KECCAK256 SLOAD PUSH2 0xF17 SWAP1 PUSH1 0x64 SWAP1 PUSH2 0x93D SWAP1 PUSH1 0x32 PUSH4 0xFFFFFFFF PUSH2 0x2BBF AND JUMP JUMPDEST PUSH4 0x621D6200 TIMESTAMP LT ISZERO PUSH2 0x1854 JUMPI PUSH1 0x1 PUSH1 0x1 PUSH1 0xA0 SHL SUB DUP3 AND PUSH1 0x0 SWAP1 DUP2 MSTORE PUSH1 0x11 PUSH1 0x20 MSTORE PUSH1 0x40 SWAP1 KECCAK256 SLOAD PUSH2 0xF17 SWAP1 PUSH1 0x64 SWAP1 PUSH2 0x93D SWAP1 PUSH1 0x37 PUSH4 0xFFFFFFFF PUSH2 0x2BBF AND JUMP JUMPDEST PUSH4 0x6296AC00 TIMESTAMP LT ISZERO PUSH2 0x1891 JUMPI PUSH1 0x1 PUSH1 0x1 PUSH1 0xA0 SHL SUB DUP3 AND PUSH1 0x0 SWAP1 DUP2 MSTORE PUSH1 0x11 PUSH1 0x20 MSTORE PUSH1 0x40 SWAP1 KECCAK256 SLOAD PUSH2 0xF17 SWAP1 PUSH1 0x64 SWAP1 PUSH2 0x93D SWAP1 PUSH1 0x3C PUSH4 0xFFFFFFFF PUSH2 0x2BBF AND JUMP JUMPDEST PUSH4 0x630FF600 TIMESTAMP LT ISZERO PUSH2 0x18CE JUMPI PUSH1 0x1 PUSH1 0x1 PUSH1 0xA0 SHL SUB DUP3 AND PUSH1 0x0 SWAP1 DUP2 MSTORE PUSH1 0x11 PUSH1 0x20 MSTORE PUSH1 0x40 SWAP1 KECCAK256 SLOAD PUSH2 0xF17 SWAP1 PUSH1 0x64 SWAP1 PUSH2 0x93D SWAP1 PUSH1 0x41 PUSH4 0xFFFFFFFF PUSH2 0x2BBF AND JUMP JUMPDEST PUSH4 0x6387EE80 TIMESTAMP LT ISZERO PUSH2 0x190B JUMPI PUSH1 0x1 PUSH1 0x1 PUSH1 0xA0 SHL SUB DUP3 AND PUSH1 0x0 SWAP1 DUP2 MSTORE PUSH1 0x11 PUSH1 0x20 MSTORE PUSH1 0x40 SWAP1 KECCAK256 SLOAD PUSH2 0xF17 SWAP1 PUSH1 0x64 SWAP1 PUSH2 0x93D SWAP1 PUSH1 0x46 PUSH4 0xFFFFFFFF PUSH2 0x2BBF AND JUMP JUMPDEST PUSH4 0x63FE9580 TIMESTAMP LT ISZERO PUSH2 0x1948 JUMPI PUSH1 0x1 PUSH1 0x1 PUSH1 0xA0 SHL SUB DUP3 AND PUSH1 0x0 SWAP1 DUP2 MSTORE PUSH1 0x11 PUSH1 0x20 MSTORE PUSH1 0x40 SWAP1 KECCAK256 SLOAD PUSH2 0xF17 SWAP1 PUSH1 0x64 SWAP1 PUSH2 0x93D SWAP1 PUSH1 0x4B PUSH4 0xFFFFFFFF PUSH2 0x2BBF AND JUMP JUMPDEST PUSH4 0x644F0100 TIMESTAMP LT ISZERO PUSH2 0x1985 JUMPI PUSH1 0x1 PUSH1 0x1 PUSH1 0xA0 SHL SUB DUP3 AND PUSH1 0x0 SWAP1 DUP2 MSTORE PUSH1 0x11 PUSH1 0x20 MSTORE PUSH1 0x40 SWAP1 KECCAK256 SLOAD PUSH2 0xF17 SWAP1 PUSH1 0x64 SWAP1 PUSH2 0x93D SWAP1 PUSH1 0x50 PUSH4 0xFFFFFFFF PUSH2 0x2BBF AND JUMP JUMPDEST PUSH4 0x649F6C80 TIMESTAMP LT ISZERO PUSH2 0x19C2 JUMPI PUSH1 0x1 PUSH1 0x1 PUSH1 0xA0 SHL SUB DUP3 AND PUSH1 0x0 SWAP1 DUP2 MSTORE PUSH1 0x11 PUSH1 0x20 MSTORE PUSH1 0x40 SWAP1 KECCAK256 SLOAD PUSH2 0xF17 SWAP1 PUSH1 0x64 SWAP1 PUSH2 0x93D SWAP1 PUSH1 0x55 PUSH4 0xFFFFFFFF PUSH2 0x2BBF AND JUMP JUMPDEST PUSH4 0x6518B680 TIMESTAMP LT ISZERO PUSH2 0x19FF JUMPI PUSH1 0x1 PUSH1 0x1 PUSH1 0xA0 SHL SUB DUP3 AND PUSH1 0x0 SWAP1 DUP2 MSTORE PUSH1 0x11 PUSH1 0x20 MSTORE PUSH1 0x40 SWAP1 KECCAK256 SLOAD PUSH2 0xF17 SWAP1 PUSH1 0x64 SWAP1 PUSH2 0x93D SWAP1 PUSH1 0x5A PUSH4 0xFFFFFFFF PUSH2 0x2BBF AND JUMP JUMPDEST PUSH4 0x65692200 TIMESTAMP LT ISZERO PUSH2 0x1A3C JUMPI PUSH1 0x1 PUSH1 0x1 PUSH1 0xA0 SHL SUB DUP3 AND PUSH1 0x0 SWAP1 DUP2 MSTORE PUSH1 0x11 PUSH1 0x20 MSTORE PUSH1 0x40 SWAP1 KECCAK256 SLOAD PUSH2 0xF17 SWAP1 PUSH1 0x64 SWAP1 PUSH2 0x93D SWAP1 PUSH1 0x5F PUSH4 0xFFFFFFFF PUSH2 0x2BBF AND JUMP JUMPDEST POP PUSH1 0x1 PUSH1 0x1 PUSH1 0xA0 SHL SUB DUP2 AND PUSH1 0x0 SWAP1 DUP2 MSTORE PUSH1 0x11 PUSH1 0x20 MSTORE PUSH1 0x40 SWAP1 KECCAK256 SLOAD PUSH2 0x1309 JUMP JUMPDEST PUSH1 0x0 PUSH4 0x5EAB6680 TIMESTAMP LT ISZERO PUSH2 0x1A71 JUMPI POP PUSH1 0x0 PUSH2 0xB29 JUMP JUMPDEST PUSH4 0x603C2E80 TIMESTAMP LT ISZERO PUSH2 0x1A98 JUMPI PUSH2 0x949 PUSH1 0x64 PUSH2 0x93D PUSH1 0xA PUSH1 0x7 SLOAD PUSH2 0x2BBF SWAP1 SWAP2 SWAP1 PUSH4 0xFFFFFFFF AND JUMP JUMPDEST PUSH4 0x62464080 TIMESTAMP LT ISZERO PUSH2 0x1ABF JUMPI PUSH2 0x949 PUSH1 0x64 PUSH2 0x93D PUSH1 0x14 PUSH1 0x7 SLOAD PUSH2 0x2BBF SWAP1 SWAP2 SWAP1 PUSH4 0xFFFFFFFF AND JUMP JUMPDEST PUSH4 0x62BE3900 TIMESTAMP LT ISZERO PUSH2 0x1AE6 JUMPI PUSH2 0x949 PUSH1 0x64 PUSH2 0x93D PUSH1 0x1E PUSH1 0x7 SLOAD PUSH2 0x2BBF SWAP1 SWAP2 SWAP1 PUSH4 0xFFFFFFFF AND JUMP JUMPDEST PUSH4 0x6387EE80 TIMESTAMP LT ISZERO PUSH2 0x1B0D JUMPI PUSH2 0x949 PUSH1 0x64 PUSH2 0x93D PUSH1 0x23 PUSH1 0x7 SLOAD PUSH2 0x2BBF SWAP1 SWAP2 SWAP1 PUSH4 0xFFFFFFFF AND JUMP JUMPDEST PUSH4 0x644F0100 TIMESTAMP LT ISZERO PUSH2 0x1B34 JUMPI PUSH2 0x949 PUSH1 0x64 PUSH2 0x93D PUSH1 0x28 PUSH1 0x7 SLOAD PUSH2 0x2BBF SWAP1 SWAP2 SWAP1 PUSH4 0xFFFFFFFF AND JUMP JUMPDEST PUSH4 0x64C84B00 TIMESTAMP LT ISZERO PUSH2 0x1B5B JUMPI PUSH2 0x949 PUSH1 0x64 PUSH2 0x93D PUSH1 0x32 PUSH1 0x7 SLOAD PUSH2 0x2BBF SWAP1 SWAP2 SWAP1 PUSH4 0xFFFFFFFF AND JUMP JUMPDEST PUSH4 0x6609F900 TIMESTAMP LT ISZERO PUSH2 0x1B82 JUMPI PUSH2 0x949 PUSH1 0x64 PUSH2 0x93D PUSH1 0x37 PUSH1 0x7 SLOAD PUSH2 0x2BBF SWAP1 SWAP2 SWAP1 PUSH4 0xFFFFFFFF AND JUMP JUMPDEST PUSH4 0x66AAD000 TIMESTAMP LT ISZERO PUSH2 0x1BA9 JUMPI PUSH2 0x949 PUSH1 0x64 PUSH2 0x93D PUSH1 0x3C PUSH1 0x7 SLOAD PUSH2 0x2BBF SWAP1 SWAP2 SWAP1 PUSH4 0xFFFFFFFF AND JUMP JUMPDEST PUSH4 0x674BA700 TIMESTAMP LT ISZERO PUSH2 0x1BD0 JUMPI PUSH2 0x949 PUSH1 0x64 PUSH2 0x93D PUSH1 0x41 PUSH1 0x7 SLOAD PUSH2 0x2BBF SWAP1 SWAP2 SWAP1 PUSH4 0xFFFFFFFF AND JUMP JUMPDEST PUSH4 0x67EB2C80 TIMESTAMP LT ISZERO PUSH2 0x1BF7 JUMPI PUSH2 0x949 PUSH1 0x64 PUSH2 0x93D PUSH1 0x46 PUSH1 0x7 SLOAD PUSH2 0x2BBF SWAP1 SWAP2 SWAP1 PUSH4 0xFFFFFFFF AND JUMP JUMPDEST PUSH4 0x688C0380 TIMESTAMP LT ISZERO PUSH2 0x1C1E JUMPI PUSH2 0x949 PUSH1 0x64 PUSH2 0x93D PUSH1 0x50 PUSH1 0x7 SLOAD PUSH2 0x2BBF SWAP1 SWAP2 SWAP1 PUSH4 0xFFFFFFFF AND JUMP JUMPDEST PUSH4 0x692CDA80 TIMESTAMP LT ISZERO PUSH2 0x1C45 JUMPI PUSH2 0x949 PUSH1 0x64 PUSH2 0x93D PUSH1 0x5A PUSH1 0x7 SLOAD PUSH2 0x2BBF SWAP1 SWAP2 SWAP1 PUSH4 0xFFFFFFFF AND JUMP JUMPDEST POP PUSH1 0x7 SLOAD PUSH2 0xB29 JUMP JUMPDEST PUSH1 0xC SLOAD PUSH1 0x0 SWAP1 PUSH1 0x1 PUSH1 0x1 PUSH1 0xA0 SHL SUB AND CALLER EQ PUSH2 0x1CA1 JUMPI PUSH1 0x40 DUP1 MLOAD PUSH1 0x1 PUSH1 0xE5 SHL PUSH3 0x461BCD MUL DUP2 MSTORE PUSH1 0x20 PUSH1 0x4 DUP3 ADD MSTORE PUSH1 0x1E PUSH1 0x24 DUP3 ADD MSTORE PUSH1 0x0 DUP1 MLOAD PUSH1 0x20 PUSH2 0x34BD DUP4 CODECOPY DUP2 MLOAD SWAP2 MSTORE PUSH1 0x44 DUP3 ADD MSTORE SWAP1 MLOAD SWAP1 DUP2 SWAP1 SUB PUSH1 0x64 ADD SWAP1 REVERT JUMPDEST PUSH1 0x0 PUSH1 0x9 SLOAD GT PUSH2 0x1CFB JUMPI PUSH1 0x40 DUP1 MLOAD PUSH1 0x1 PUSH1 0xE5 SHL PUSH3 0x461BCD MUL DUP2 MSTORE PUSH1 0x20 PUSH1 0x4 DUP3 ADD DUP2 SWAP1 MSTORE PUSH1 0x24 DUP3 ADD MSTORE PUSH32 0x546F6B656E7320617265206F766572206F722073616C6520697320656E646564 PUSH1 0x44 DUP3 ADD MSTORE SWAP1 MLOAD SWAP1 DUP2 SWAP1 SUB PUSH1 0x64 ADD SWAP1 REVERT JUMPDEST PUSH1 0x1 PUSH1 0x1 PUSH1 0xA0 SHL SUB DUP4 AND PUSH1 0x0 SWAP1 DUP2 MSTORE PUSH1 0x11 PUSH1 0x20 MSTORE PUSH1 0x40 SWAP1 KECCAK256 SLOAD PUSH2 0x1D24 SWAP1 DUP4 PUSH4 0xFFFFFFFF PUSH2 0x3041 AND JUMP JUMPDEST PUSH1 0x1 PUSH1 0x1 PUSH1 0xA0 SHL SUB DUP5 AND PUSH1 0x0 SWAP1 DUP2 MSTORE PUSH1 0x11 PUSH1 0x20 MSTORE PUSH1 0x40 DUP2 KECCAK256 SWAP2 SWAP1 SWAP2 SSTORE PUSH2 0x1D58 PUSH2 0x2710 PUSH2 0x93D DUP6 PUSH2 0x5D8 PUSH4 0xFFFFFFFF PUSH2 0x2BBF AND JUMP JUMPDEST PUSH1 0x1 PUSH1 0x1 PUSH1 0xA0 SHL SUB DUP6 AND PUSH1 0x0 SWAP1 DUP2 MSTORE PUSH1 0x13 PUSH1 0x20 MSTORE PUSH1 0x40 SWAP1 KECCAK256 SLOAD SWAP1 SWAP2 POP PUSH2 0x1D84 SWAP1 DUP3 PUSH4 0xFFFFFFFF PUSH2 0x3041 AND JUMP JUMPDEST PUSH1 0x1 PUSH1 0x1 PUSH1 0xA0 SHL SUB DUP6 AND PUSH1 0x0 SWAP1 DUP2 MSTORE PUSH1 0x13 PUSH1 0x20 SWAP1 DUP2 MSTORE PUSH1 0x40 DUP1 DUP4 KECCAK256 SWAP4 SWAP1 SWAP4 SSTORE PUSH1 0x15 SWAP1 MSTORE KECCAK256 DUP1 SLOAD PUSH1 0xFF NOT AND PUSH1 0x1 OR SWAP1 SSTORE PUSH1 0x9 SLOAD PUSH2 0x1DCC SWAP1 DUP3 SWAP1 PUSH2 0xC23 SWAP1 DUP7 PUSH4 0xFFFFFFFF PUSH2 0x2FE1 AND JUMP JUMPDEST PUSH1 0x9 SSTORE PUSH2 0x1DE8 DUP5 PUSH2 0x1DE3 DUP6 DUP5 PUSH4 0xFFFFFFFF PUSH2 0x3041 AND JUMP JUMPDEST PUSH2 0x25D4 JUMP JUMPDEST SWAP5 SWAP4 POP POP POP POP JUMP JUMPDEST PUSH1 0xD SLOAD PUSH1 0x1 PUSH1 0x1 PUSH1 0xA0 SHL SUB AND DUP2 JUMP JUMPDEST PUSH1 0x1 TIMESTAMP LT ISZERO PUSH2 0x1E42 JUMPI PUSH1 0x40 MLOAD PUSH1 0x1 PUSH1 0xE5 SHL PUSH3 0x461BCD MUL DUP2 MSTORE PUSH1 0x4 ADD DUP1 DUP1 PUSH1 0x20 ADD DUP3 DUP2 SUB DUP3 MSTORE PUSH1 0x2C DUP2 MSTORE PUSH1 0x20 ADD DUP1 PUSH2 0x3395 PUSH1 0x2C SWAP2 CODECOPY PUSH1 0x40 ADD SWAP2 POP POP PUSH1 0x40 MLOAD DUP1 SWAP2 SUB SWAP1 REVERT JUMPDEST CALLER PUSH1 0x0 SWAP1 DUP2 MSTORE PUSH1 0x16 PUSH1 0x20 MSTORE PUSH1 0x40 SWAP1 KECCAK256 SLOAD PUSH1 0xFF AND PUSH2 0x1EA9 JUMPI PUSH1 0x40 DUP1 MLOAD PUSH1 0x1 PUSH1 0xE5 SHL PUSH3 0x461BCD MUL DUP2 MSTORE PUSH1 0x20 PUSH1 0x4 DUP3 ADD MSTORE PUSH1 0x17 PUSH1 0x24 DUP3 ADD MSTORE PUSH32 0x546F6B656E73206D75737420626520756E6C6F636B6564000000000000000000 PUSH1 0x44 DUP3 ADD MSTORE SWAP1 MLOAD SWAP1 DUP2 SWAP1 SUB PUSH1 0x64 ADD SWAP1 REVERT JUMPDEST PUSH4 0x692CDA80 TIMESTAMP LT PUSH2 0x1EEE JUMPI PUSH1 0x40 MLOAD PUSH1 0x1 PUSH1 0xE5 SHL PUSH3 0x461BCD MUL DUP2 MSTORE PUSH1 0x4 ADD DUP1 DUP1 PUSH1 0x20 ADD DUP3 DUP2 SUB DUP3 MSTORE PUSH1 0x2D DUP2 MSTORE PUSH1 0x20 ADD DUP1 PUSH2 0x344A PUSH1 0x2D SWAP2 CODECOPY PUSH1 0x40 ADD SWAP2 POP POP PUSH1 0x40 MLOAD DUP1 SWAP2 SUB SWAP1 REVERT JUMPDEST CALLER PUSH1 0x0 DUP2 DUP2 MSTORE PUSH1 0x16 PUSH1 0x20 MSTORE PUSH1 0x40 SWAP1 KECCAK256 DUP1 SLOAD PUSH1 0xFF NOT AND SWAP1 SSTORE PUSH2 0x1F32 SWAP1 PUSH2 0xD80 SWAP1 PUSH2 0x1F16 SWAP1 PUSH2 0xEC4 JUMP JUMPDEST CALLER PUSH1 0x0 SWAP1 DUP2 MSTORE PUSH1 0x12 PUSH1 0x20 MSTORE PUSH1 0x40 SWAP1 KECCAK256 SLOAD SWAP1 PUSH4 0xFFFFFFFF PUSH2 0x2FE1 AND JUMP JUMPDEST CALLER PUSH1 0x0 DUP2 DUP2 MSTORE PUSH1 0x17 PUSH1 0x20 SWAP1 DUP2 MSTORE PUSH1 0x40 DUP1 DUP4 KECCAK256 SWAP5 SWAP1 SWAP5 SSTORE PUSH1 0x12 SWAP1 MSTORE SWAP2 DUP3 KECCAK256 SWAP2 SWAP1 SWAP2 SSTORE PUSH2 0x1F80 SWAP1 PUSH2 0xD80 SWAP1 PUSH2 0x1F64 SWAP1 PUSH2 0x13E3 JUMP JUMPDEST CALLER PUSH1 0x0 SWAP1 DUP2 MSTORE PUSH1 0x14 PUSH1 0x20 MSTORE PUSH1 0x40 SWAP1 KECCAK256 SLOAD SWAP1 PUSH4 0xFFFFFFFF PUSH2 0x2FE1 AND JUMP JUMPDEST CALLER PUSH1 0x0 SWAP1 DUP2 MSTORE PUSH1 0x17 PUSH1 0x20 SWAP1 DUP2 MSTORE PUSH1 0x40 DUP1 DUP4 KECCAK256 SWAP4 SWAP1 SWAP4 SSTORE PUSH1 0x14 SWAP1 MSTORE SWAP1 DUP2 KECCAK256 SSTORE JUMP JUMPDEST PUSH1 0x1 PUSH1 0x1 PUSH1 0xA0 SHL SUB DUP2 AND PUSH1 0x0 SWAP1 DUP2 MSTORE PUSH1 0x13 PUSH1 0x20 MSTORE PUSH1 0x40 DUP2 KECCAK256 SLOAD DUP2 SWAP1 PUSH2 0x1FCC SWAP1 PUSH1 0x11 PUSH4 0xFFFFFFFF PUSH2 0x2C1B AND JUMP JUMPDEST SWAP1 POP PUSH4 0x5DE30280 TIMESTAMP LT ISZERO PUSH2 0x1FE4 JUMPI PUSH1 0x0 SWAP2 POP POP PUSH2 0x1309 JUMP JUMPDEST PUSH4 0x5E5AFB00 TIMESTAMP LT ISZERO PUSH2 0x1FF7 JUMPI SWAP1 POP PUSH2 0x1309 JUMP JUMPDEST PUSH4 0x5EFBD200 TIMESTAMP LT ISZERO PUSH2 0x2014 JUMPI PUSH2 0x1457 DUP2 PUSH1 0x2 PUSH4 0xFFFFFFFF PUSH2 0x2BBF AND JUMP JUMPDEST PUSH4 0x5FC58780 TIMESTAMP LT ISZERO PUSH2 0x2031 JUMPI PUSH2 0x1457 DUP2 PUSH1 0x3 PUSH4 0xFFFFFFFF PUSH2 0x2BBF AND JUMP JUMPDEST PUSH4 0x60650D00 TIMESTAMP LT ISZERO PUSH2 0x204E JUMPI PUSH2 0x1457 DUP2 PUSH1 0x4 PUSH4 0xFFFFFFFF PUSH2 0x2BBF AND JUMP JUMPDEST PUSH4 0x60DD0580 TIMESTAMP LT ISZERO PUSH2 0x206B JUMPI PUSH2 0x1457 DUP2 PUSH1 0x5 PUSH4 0xFFFFFFFF PUSH2 0x2BBF AND JUMP JUMPDEST PUSH4 0x61564F80 TIMESTAMP LT ISZERO PUSH2 0x2088 JUMPI PUSH2 0x1457 DUP2 PUSH1 0x6 PUSH4 0xFFFFFFFF PUSH2 0x2BBF AND JUMP JUMPDEST PUSH4 0x61A6BB00 TIMESTAMP LT ISZERO PUSH2 0x20A5 JUMPI PUSH2 0x1457 DUP2 PUSH1 0x7 PUSH4 0xFFFFFFFF PUSH2 0x2BBF AND JUMP JUMPDEST PUSH4 0x621D6200 TIMESTAMP LT ISZERO PUSH2 0x20C2 JUMPI PUSH2 0x1457 DUP2 PUSH1 0x8 PUSH4 0xFFFFFFFF PUSH2 0x2BBF AND JUMP JUMPDEST PUSH4 0x6296AC00 TIMESTAMP LT ISZERO PUSH2 0x20DF JUMPI PUSH2 0x1457 DUP2 PUSH1 0x9 PUSH4 0xFFFFFFFF PUSH2 0x2BBF AND JUMP JUMPDEST PUSH4 0x630FF600 TIMESTAMP LT ISZERO PUSH2 0x20FC JUMPI PUSH2 0x1457 DUP2 PUSH1 0xA PUSH4 0xFFFFFFFF PUSH2 0x2BBF AND JUMP JUMPDEST PUSH4 0x6387EE80 TIMESTAMP LT ISZERO PUSH2 0x2119 JUMPI PUSH2 0x1457 DUP2 PUSH1 0xB PUSH4 0xFFFFFFFF PUSH2 0x2BBF AND JUMP JUMPDEST PUSH4 0x63FE9580 TIMESTAMP LT ISZERO PUSH2 0x2136 JUMPI PUSH2 0x1457 DUP2 PUSH1 0xC PUSH4 0xFFFFFFFF PUSH2 0x2BBF AND JUMP JUMPDEST PUSH4 0x644F0100 TIMESTAMP LT ISZERO PUSH2 0x2153 JUMPI PUSH2 0x1457 DUP2 PUSH1 0xD PUSH4 0xFFFFFFFF PUSH2 0x2BBF AND JUMP JUMPDEST PUSH4 0x649F6C80 TIMESTAMP LT ISZERO PUSH2 0x2170 JUMPI PUSH2 0x1457 DUP2 PUSH1 0xE PUSH4 0xFFFFFFFF PUSH2 0x2BBF AND JUMP JUMPDEST PUSH4 0x6518B680 TIMESTAMP LT ISZERO PUSH2 0x218D JUMPI PUSH2 0x1457 DUP2 PUSH1 0xF PUSH4 0xFFFFFFFF PUSH2 0x2BBF AND JUMP JUMPDEST PUSH4 0x65692200 TIMESTAMP LT ISZERO PUSH2 0x21AA JUMPI PUSH2 0x1457 DUP2 PUSH1 0x10 PUSH4 0xFFFFFFFF PUSH2 0x2BBF AND JUMP JUMPDEST POP POP PUSH1 0x1 PUSH1 0x1 PUSH1 0xA0 SHL SUB DUP2 AND PUSH1 0x0 SWAP1 DUP2 MSTORE PUSH1 0x13 PUSH1 0x20 MSTORE PUSH1 0x40 SWAP1 KECCAK256 SLOAD PUSH2 0x1309 JUMP JUMPDEST PUSH1 0x7 SLOAD DUP2 JUMP JUMPDEST PUSH1 0x5 SLOAD PUSH2 0x100 SWAP1 DIV PUSH1 0x1 PUSH1 0x1 PUSH1 0xA0 SHL SUB AND SWAP1 JUMP JUMPDEST PUSH1 0x0 DUP1 PUSH2 0x21F0 DUP4 PUSH2 0x132E JUMP JUMPDEST PUSH1 0xD SLOAD SWAP1 SWAP2 POP PUSH1 0x1 PUSH1 0x1 PUSH1 0xA0 SHL SUB DUP5 DUP2 AND SWAP2 AND EQ ISZERO PUSH2 0x2236 JUMPI PUSH2 0x2233 PUSH2 0x2226 PUSH2 0x2217 PUSH2 0x900 JUMP JUMPDEST PUSH1 0x6 SLOAD SWAP1 PUSH4 0xFFFFFFFF PUSH2 0x2FE1 AND JUMP JUMPDEST DUP3 SWAP1 PUSH4 0xFFFFFFFF PUSH2 0x2FE1 AND JUMP JUMPDEST SWAP1 POP JUMPDEST PUSH1 0xE SLOAD PUSH1 0x1 PUSH1 0x1 PUSH1 0xA0 SHL SUB DUP5 DUP2 AND SWAP2 AND EQ ISZERO PUSH2 0x226C JUMPI PUSH2 0x2269 PUSH2 0x2226 PUSH2 0x225A PUSH2 0x1A5B JUMP JUMPDEST PUSH1 0x7 SLOAD SWAP1 PUSH4 0xFFFFFFFF PUSH2 0x2FE1 AND JUMP JUMPDEST SWAP1 POP JUMPDEST PUSH1 0xF SLOAD PUSH1 0x1 PUSH1 0x1 PUSH1 0xA0 SHL SUB DUP5 DUP2 AND SWAP2 AND EQ ISZERO PUSH2 0x22A2 JUMPI PUSH2 0x229F PUSH2 0x2226 PUSH2 0x2290 PUSH2 0x2687 JUMP JUMPDEST PUSH1 0x8 SLOAD SWAP1 PUSH4 0xFFFFFFFF PUSH2 0x2FE1 AND JUMP JUMPDEST SWAP1 POP JUMPDEST PUSH1 0x1 PUSH1 0x1 PUSH1 0xA0 SHL SUB DUP4 AND PUSH1 0x0 SWAP1 DUP2 MSTORE PUSH1 0x15 PUSH1 0x20 MSTORE PUSH1 0x40 SWAP1 KECCAK256 SLOAD PUSH1 0xFF AND ISZERO PUSH2 0x2330 JUMPI PUSH2 0x22F7 PUSH2 0x2226 PUSH2 0x22D2 DUP6 PUSH2 0x1656 JUMP JUMPDEST PUSH1 0x1 PUSH1 0x1 PUSH1 0xA0 SHL SUB DUP7 AND PUSH1 0x0 SWAP1 DUP2 MSTORE PUSH1 0x11 PUSH1 0x20 MSTORE PUSH1 0x40 SWAP1 KECCAK256 SLOAD SWAP1 PUSH4 0xFFFFFFFF PUSH2 0x2FE1 AND JUMP JUMPDEST SWAP1 POP PUSH2 0x232D PUSH2 0x2226 PUSH2 0x2308 DUP6 PUSH2 0x1FA0 JUMP JUMPDEST PUSH1 0x1 PUSH1 0x1 PUSH1 0xA0 SHL SUB DUP7 AND PUSH1 0x0 SWAP1 DUP2 MSTORE PUSH1 0x13 PUSH1 0x20 MSTORE PUSH1 0x40 SWAP1 KECCAK256 SLOAD SWAP1 PUSH4 0xFFFFFFFF PUSH2 0x2FE1 AND JUMP JUMPDEST SWAP1 POP JUMPDEST PUSH1 0x1 PUSH1 0x1 PUSH1 0xA0 SHL SUB DUP4 AND PUSH1 0x0 SWAP1 DUP2 MSTORE PUSH1 0x16 PUSH1 0x20 MSTORE PUSH1 0x40 SWAP1 KECCAK256 SLOAD PUSH1 0xFF AND ISZERO PUSH2 0x23BE JUMPI PUSH2 0x2385 PUSH2 0x2226 PUSH2 0x2360 DUP6 PUSH2 0xEC4 JUMP JUMPDEST PUSH1 0x1 PUSH1 0x1 PUSH1 0xA0 SHL SUB DUP7 AND PUSH1 0x0 SWAP1 DUP2 MSTORE PUSH1 0x12 PUSH1 0x20 MSTORE PUSH1 0x40 SWAP1 KECCAK256 SLOAD SWAP1 PUSH4 0xFFFFFFFF PUSH2 0x2FE1 AND JUMP JUMPDEST SWAP1 POP PUSH2 0x23BB PUSH2 0x2226 PUSH2 0x2396 DUP6 PUSH2 0x13E3 JUMP JUMPDEST PUSH1 0x1 PUSH1 0x1 PUSH1 0xA0 SHL SUB DUP7 AND PUSH1 0x0 SWAP1 DUP2 MSTORE PUSH1 0x14 PUSH1 0x20 MSTORE PUSH1 0x40 SWAP1 KECCAK256 SLOAD SWAP1 PUSH4 0xFFFFFFFF PUSH2 0x2FE1 AND JUMP JUMPDEST SWAP1 POP JUMPDEST PUSH1 0x1 PUSH1 0x1 PUSH1 0xA0 SHL SUB DUP4 AND PUSH1 0x0 SWAP1 DUP2 MSTORE PUSH1 0x17 PUSH1 0x20 MSTORE PUSH1 0x40 SWAP1 KECCAK256 SLOAD PUSH2 0x23E8 SWAP1 DUP3 SWAP1 PUSH4 0xFFFFFFFF PUSH2 0x2FE1 AND JUMP JUMPDEST SWAP4 SWAP3 POP POP POP JUMP JUMPDEST PUSH1 0x5 SLOAD PUSH2 0x100 SWAP1 DIV PUSH1 0x1 PUSH1 0x1 PUSH1 0xA0 SHL SUB AND CALLER EQ SWAP1 JUMP JUMPDEST PUSH2 0x240D PUSH2 0x23EF JUMP JUMPDEST PUSH2 0x244F JUMPI PUSH1 0x40 DUP1 MLOAD PUSH1 0x1 PUSH1 0xE5 SHL PUSH3 0x461BCD MUL DUP2 MSTORE PUSH1 0x20 PUSH1 0x4 DUP3 ADD DUP2 SWAP1 MSTORE PUSH1 0x24 DUP3 ADD MSTORE PUSH1 0x0 DUP1 MLOAD PUSH1 0x20 PUSH2 0x342A DUP4 CODECOPY DUP2 MLOAD SWAP2 MSTORE PUSH1 0x44 DUP3 ADD MSTORE SWAP1 MLOAD SWAP1 DUP2 SWAP1 SUB PUSH1 0x64 ADD SWAP1 REVERT JUMPDEST PUSH1 0x10 SLOAD PUSH2 0x2466 SWAP1 PUSH1 0x1 PUSH1 0x1 PUSH1 0xA0 SHL SUB AND DUP4 DUP4 PUSH2 0x317A JUMP JUMPDEST POP POP JUMP JUMPDEST PUSH1 0x4 DUP1 SLOAD PUSH1 0x40 DUP1 MLOAD PUSH1 0x20 PUSH1 0x1F PUSH1 0x2 PUSH1 0x0 NOT PUSH2 0x100 PUSH1 0x1 DUP9 AND ISZERO MUL ADD SWAP1 SWAP6 AND SWAP5 SWAP1 SWAP5 DIV SWAP4 DUP5 ADD DUP2 SWAP1 DIV DUP2 MUL DUP3 ADD DUP2 ADD SWAP1 SWAP3 MSTORE DUP3 DUP2 MSTORE PUSH1 0x60 SWAP4 SWAP1 SWAP3 SWAP1 SWAP2 DUP4 ADD DUP3 DUP3 DUP1 ISZERO PUSH2 0xBB8 JUMPI DUP1 PUSH1 0x1F LT PUSH2 0xB8D JUMPI PUSH2 0x100 DUP1 DUP4 SLOAD DIV MUL DUP4 MSTORE SWAP2 PUSH1 0x20 ADD SWAP2 PUSH2 0xBB8 JUMP JUMPDEST PUSH1 0xC SLOAD PUSH1 0x0 SWAP1 PUSH1 0x1 PUSH1 0x1 PUSH1 0xA0 SHL SUB AND CALLER EQ PUSH2 0x251E JUMPI PUSH1 0x40 DUP1 MLOAD PUSH1 0x1 PUSH1 0xE5 SHL PUSH3 0x461BCD MUL DUP2 MSTORE PUSH1 0x20 PUSH1 0x4 DUP3 ADD MSTORE PUSH1 0x1E PUSH1 0x24 DUP3 ADD MSTORE PUSH1 0x0 DUP1 MLOAD PUSH1 0x20 PUSH2 0x34BD DUP4 CODECOPY DUP2 MLOAD SWAP2 MSTORE PUSH1 0x44 DUP3 ADD MSTORE SWAP1 MLOAD SWAP1 DUP2 SWAP1 SUB PUSH1 0x64 ADD SWAP1 REVERT JUMPDEST PUSH1 0x0 PUSH1 0xB SLOAD GT PUSH2 0x2578 JUMPI PUSH1 0x40 DUP1 MLOAD PUSH1 0x1 PUSH1 0xE5 SHL PUSH3 0x461BCD MUL DUP2 MSTORE PUSH1 0x20 PUSH1 0x4 DUP3 ADD DUP2 SWAP1 MSTORE PUSH1 0x24 DUP3 ADD MSTORE PUSH32 0x546F6B656E7320617265206F766572206F722073616C6520697320656E646564 PUSH1 0x44 DUP3 ADD MSTORE SWAP1 MLOAD SWAP1 DUP2 SWAP1 SUB PUSH1 0x64 ADD SWAP1 REVERT JUMPDEST PUSH1 0xB SLOAD PUSH2 0x258B SWAP1 DUP4 PUSH4 0xFFFFFFFF PUSH2 0x2FE1 AND JUMP JUMPDEST PUSH1 0xB SSTORE PUSH2 0x23E8 DUP4 DUP4 PUSH2 0x25D4 JUMP JUMPDEST CALLER PUSH1 0x0 DUP2 DUP2 MSTORE PUSH1 0x1 PUSH1 0x20 SWAP1 DUP2 MSTORE PUSH1 0x40 DUP1 DUP4 KECCAK256 PUSH1 0x1 PUSH1 0x1 PUSH1 0xA0 SHL SUB DUP8 AND DUP5 MSTORE SWAP1 SWAP2 MSTORE DUP2 KECCAK256 SLOAD SWAP1 SWAP2 PUSH2 0xBCF SWAP2 DUP6 SWAP1 PUSH2 0xC2F SWAP1 DUP7 PUSH4 0xFFFFFFFF PUSH2 0x2FE1 AND JUMP JUMPDEST PUSH1 0x0 PUSH2 0xBCF CALLER DUP5 DUP5 PUSH2 0x2D7A JUMP JUMPDEST PUSH1 0xC SLOAD PUSH1 0x1 PUSH1 0x1 PUSH1 0xA0 SHL SUB AND DUP2 JUMP JUMPDEST PUSH1 0x17 PUSH1 0x20 MSTORE PUSH1 0x0 SWAP1 DUP2 MSTORE PUSH1 0x40 SWAP1 KECCAK256 SLOAD DUP2 JUMP JUMPDEST PUSH1 0xC SLOAD PUSH1 0x1 PUSH1 0x1 PUSH1 0xA0 SHL SUB AND CALLER EQ PUSH2 0x2652 JUMPI PUSH1 0x40 DUP1 MLOAD PUSH1 0x1 PUSH1 0xE5 SHL PUSH3 0x461BCD MUL DUP2 MSTORE PUSH1 0x20 PUSH1 0x4 DUP3 ADD MSTORE PUSH1 0x1E PUSH1 0x24 DUP3 ADD MSTORE PUSH1 0x0 DUP1 MLOAD PUSH1 0x20 PUSH2 0x34BD DUP4 CODECOPY DUP2 MLOAD SWAP2 MSTORE PUSH1 0x44 DUP3 ADD MSTORE SWAP1 MLOAD SWAP1 DUP2 SWAP1 SUB PUSH1 0x64 ADD SWAP1 REVERT JUMPDEST PUSH1 0xC SLOAD PUSH1 0xB SLOAD PUSH2 0x266B SWAP2 PUSH1 0x1 PUSH1 0x1 PUSH1 0xA0 SHL SUB AND SWAP1 PUSH2 0x309E JUMP JUMPDEST PUSH1 0x0 PUSH1 0xB SSTORE JUMP JUMPDEST PUSH1 0x16 PUSH1 0x20 MSTORE PUSH1 0x0 SWAP1 DUP2 MSTORE PUSH1 0x40 SWAP1 KECCAK256 SLOAD PUSH1 0xFF AND DUP2 JUMP JUMPDEST PUSH1 0x0 PUSH4 0x5F4D8F00 TIMESTAMP LT ISZERO PUSH2 0x269D JUMPI POP PUSH1 0x0 PUSH2 0xB29 JUMP JUMPDEST PUSH4 0x608C9A00 TIMESTAMP LT ISZERO PUSH2 0x26C4 JUMPI PUSH2 0x949 PUSH1 0x64 PUSH2 0x93D PUSH1 0xA PUSH1 0x8 SLOAD PUSH2 0x2BBF SWAP1 SWAP2 SWAP1 PUSH4 0xFFFFFFFF AND JUMP JUMPDEST PUSH4 0x612EC280 TIMESTAMP LT ISZERO PUSH2 0x26EB JUMPI PUSH2 0x949 PUSH1 0x64 PUSH2 0x93D PUSH1 0xF PUSH1 0x8 SLOAD PUSH2 0x2BBF SWAP1 SWAP2 SWAP1 PUSH4 0xFFFFFFFF AND JUMP JUMPDEST PUSH4 0x6296AC00 TIMESTAMP LT ISZERO PUSH2 0x2712 JUMPI PUSH2 0x949 PUSH1 0x64 PUSH2 0x93D PUSH1 0x14 PUSH1 0x8 SLOAD PUSH2 0x2BBF SWAP1 SWAP2 SWAP1 PUSH4 0xFFFFFFFF AND JUMP JUMPDEST PUSH4 0x63378300 TIMESTAMP LT ISZERO PUSH2 0x2739 JUMPI PUSH2 0x949 PUSH1 0x64 PUSH2 0x93D PUSH1 0x19 PUSH1 0x8 SLOAD PUSH2 0x2BBF SWAP1 SWAP2 SWAP1 PUSH4 0xFFFFFFFF AND JUMP JUMPDEST PUSH4 0x644F0100 TIMESTAMP LT ISZERO PUSH2 0x2760 JUMPI PUSH2 0x949 PUSH1 0x64 PUSH2 0x93D PUSH1 0x1E PUSH1 0x8 SLOAD PUSH2 0x2BBF SWAP1 SWAP2 SWAP1 PUSH4 0xFFFFFFFF AND JUMP JUMPDEST PUSH4 0x64C84B00 TIMESTAMP LT ISZERO PUSH2 0x2787 JUMPI PUSH2 0x949 PUSH1 0x64 PUSH2 0x93D PUSH1 0x28 PUSH1 0x8 SLOAD PUSH2 0x2BBF SWAP1 SWAP2 SWAP1 PUSH4 0xFFFFFFFF AND JUMP JUMPDEST PUSH4 0x66318600 TIMESTAMP LT ISZERO PUSH2 0x27AE JUMPI PUSH2 0x949 PUSH1 0x64 PUSH2 0x93D PUSH1 0x2D PUSH1 0x8 SLOAD PUSH2 0x2BBF SWAP1 SWAP2 SWAP1 PUSH4 0xFFFFFFFF AND JUMP JUMPDEST PUSH4 0x6681F180 TIMESTAMP LT ISZERO PUSH2 0x27D5 JUMPI PUSH2 0x949 PUSH1 0x64 PUSH2 0x93D PUSH1 0x37 PUSH1 0x8 SLOAD PUSH2 0x2BBF SWAP1 SWAP2 SWAP1 PUSH4 0xFFFFFFFF AND JUMP JUMPDEST PUSH4 0x66FB3B80 TIMESTAMP LT ISZERO PUSH2 0x27FC JUMPI PUSH2 0x949 PUSH1 0x64 PUSH2 0x93D PUSH1 0x3C PUSH1 0x8 SLOAD PUSH2 0x2BBF SWAP1 SWAP2 SWAP1 PUSH4 0xFFFFFFFF AND JUMP JUMPDEST PUSH4 0x674BA700 TIMESTAMP LT ISZERO PUSH2 0x2823 JUMPI PUSH2 0x949 PUSH1 0x64 PUSH2 0x93D PUSH1 0x41 PUSH1 0x8 SLOAD PUSH2 0x2BBF SWAP1 SWAP2 SWAP1 PUSH4 0xFFFFFFFF AND JUMP JUMPDEST PUSH4 0x6812B980 TIMESTAMP LT ISZERO PUSH2 0x284A JUMPI PUSH2 0x949 PUSH1 0x64 PUSH2 0x93D PUSH1 0x46 PUSH1 0x8 SLOAD PUSH2 0x2BBF SWAP1 SWAP2 SWAP1 PUSH4 0xFFFFFFFF AND JUMP JUMPDEST PUSH4 0x68B4E200 TIMESTAMP LT ISZERO PUSH2 0x2871 JUMPI PUSH2 0x949 PUSH1 0x64 PUSH2 0x93D PUSH1 0x50 PUSH1 0x8 SLOAD PUSH2 0x2BBF SWAP1 SWAP2 SWAP1 PUSH4 0xFFFFFFFF AND JUMP JUMPDEST PUSH4 0x692CDA80 TIMESTAMP LT ISZERO PUSH2 0x2898 JUMPI PUSH2 0x949 PUSH1 0x64 PUSH2 0x93D PUSH1 0x5A PUSH1 0x8 SLOAD PUSH2 0x2BBF SWAP1 SWAP2 SWAP1 PUSH4 0xFFFFFFFF AND JUMP JUMPDEST POP PUSH1 0x8 SLOAD PUSH2 0xB29 JUMP JUMPDEST PUSH1 0xF SLOAD PUSH1 0x1 PUSH1 0x1 PUSH1 0xA0 SHL SUB AND DUP2 JUMP JUMPDEST PUSH1 0xB SLOAD DUP2 JUMP JUMPDEST PUSH1 0x6 SLOAD DUP2 JUMP JUMPDEST PUSH2 0x28C4 PUSH2 0x23EF JUMP JUMPDEST PUSH2 0x2906 JUMPI PUSH1 0x40 DUP1 MLOAD PUSH1 0x1 PUSH1 0xE5 SHL PUSH3 0x461BCD MUL DUP2 MSTORE PUSH1 0x20 PUSH1 0x4 DUP3 ADD DUP2 SWAP1 MSTORE PUSH1 0x24 DUP3 ADD MSTORE PUSH1 0x0 DUP1 MLOAD PUSH1 0x20 PUSH2 0x342A DUP4 CODECOPY DUP2 MLOAD SWAP2 MSTORE PUSH1 0x44 DUP3 ADD MSTORE SWAP1 MLOAD SWAP1 DUP2 SWAP1 SUB PUSH1 0x64 ADD SWAP1 REVERT JUMPDEST PUSH1 0x10 DUP1 SLOAD PUSH1 0x1 PUSH1 0x1 PUSH1 0xA0 SHL SUB NOT AND PUSH1 0x1 PUSH1 0x1 PUSH1 0xA0 SHL SUB SWAP3 SWAP1 SWAP3 AND SWAP2 SWAP1 SWAP2 OR SWAP1 SSTORE JUMP JUMPDEST PUSH1 0x1 PUSH1 0x1 PUSH1 0xA0 SHL SUB SWAP2 DUP3 AND PUSH1 0x0 SWAP1 DUP2 MSTORE PUSH1 0x1 PUSH1 0x20 SWAP1 DUP2 MSTORE PUSH1 0x40 DUP1 DUP4 KECCAK256 SWAP4 SWAP1 SWAP5 AND DUP3 MSTORE SWAP2 SWAP1 SWAP2 MSTORE KECCAK256 SLOAD SWAP1 JUMP JUMPDEST PUSH1 0xC SLOAD PUSH1 0x1 PUSH1 0x1 PUSH1 0xA0 SHL SUB AND CALLER EQ PUSH2 0x29A3 JUMPI PUSH1 0x40 DUP1 MLOAD PUSH1 0x1 PUSH1 0xE5 SHL PUSH3 0x461BCD MUL DUP2 MSTORE PUSH1 0x20 PUSH1 0x4 DUP3 ADD MSTORE PUSH1 0x1E PUSH1 0x24 DUP3 ADD MSTORE PUSH1 0x0 DUP1 MLOAD PUSH1 0x20 PUSH2 0x34BD DUP4 CODECOPY DUP2 MLOAD SWAP2 MSTORE PUSH1 0x44 DUP3 ADD MSTORE SWAP1 MLOAD SWAP1 DUP2 SWAP1 SUB PUSH1 0x64 ADD SWAP1 REVERT JUMPDEST PUSH1 0xC SLOAD PUSH1 0xA SLOAD PUSH2 0x29BC SWAP2 PUSH1 0x1 PUSH1 0x1 PUSH1 0xA0 SHL SUB AND SWAP1 PUSH2 0x309E JUMP JUMPDEST PUSH1 0x0 PUSH1 0xA SSTORE JUMP JUMPDEST PUSH1 0x14 PUSH1 0x20 MSTORE PUSH1 0x0 SWAP1 DUP2 MSTORE PUSH1 0x40 SWAP1 KECCAK256 SLOAD DUP2 JUMP JUMPDEST PUSH2 0x29DD PUSH2 0x23EF JUMP JUMPDEST PUSH2 0x2A1F JUMPI PUSH1 0x40 DUP1 MLOAD PUSH1 0x1 PUSH1 0xE5 SHL PUSH3 0x461BCD MUL DUP2 MSTORE PUSH1 0x20 PUSH1 0x4 DUP3 ADD DUP2 SWAP1 MSTORE PUSH1 0x24 DUP3 ADD MSTORE PUSH1 0x0 DUP1 MLOAD PUSH1 0x20 PUSH2 0x342A DUP4 CODECOPY DUP2 MLOAD SWAP2 MSTORE PUSH1 0x44 DUP3 ADD MSTORE SWAP1 MLOAD SWAP1 DUP2 SWAP1 SUB PUSH1 0x64 ADD SWAP1 REVERT JUMPDEST PUSH2 0x2A28 DUP2 PUSH2 0x32C2 JUMP JUMPDEST POP JUMP JUMPDEST PUSH1 0xC SLOAD PUSH1 0x0 SWAP1 PUSH1 0x1 PUSH1 0x1 PUSH1 0xA0 SHL SUB AND CALLER EQ PUSH2 0x2A7E JUMPI PUSH1 0x40 DUP1 MLOAD PUSH1 0x1 PUSH1 0xE5 SHL PUSH3 0x461BCD MUL DUP2 MSTORE PUSH1 0x20 PUSH1 0x4 DUP3 ADD MSTORE PUSH1 0x1E PUSH1 0x24 DUP3 ADD MSTORE PUSH1 0x0 DUP1 MLOAD PUSH1 0x20 PUSH2 0x34BD DUP4 CODECOPY DUP2 MLOAD SWAP2 MSTORE PUSH1 0x44 DUP3 ADD MSTORE SWAP1 MLOAD SWAP1 DUP2 SWAP1 SUB PUSH1 0x64 ADD SWAP1 REVERT JUMPDEST PUSH1 0x0 PUSH1 0xA SLOAD GT PUSH2 0x2AD8 JUMPI PUSH1 0x40 DUP1 MLOAD PUSH1 0x1 PUSH1 0xE5 SHL PUSH3 0x461BCD MUL DUP2 MSTORE PUSH1 0x20 PUSH1 0x4 DUP3 ADD DUP2 SWAP1 MSTORE PUSH1 0x24 DUP3 ADD MSTORE PUSH32 0x546F6B656E7320617265206F766572206F722073616C6520697320656E646564 PUSH1 0x44 DUP3 ADD MSTORE SWAP1 MLOAD SWAP1 DUP2 SWAP1 SUB PUSH1 0x64 ADD SWAP1 REVERT JUMPDEST PUSH1 0x1 PUSH1 0x1 PUSH1 0xA0 SHL SUB DUP4 AND PUSH1 0x0 SWAP1 DUP2 MSTORE PUSH1 0x12 PUSH1 0x20 MSTORE PUSH1 0x40 SWAP1 KECCAK256 SLOAD PUSH2 0x2B01 SWAP1 DUP4 PUSH4 0xFFFFFFFF PUSH2 0x3041 AND JUMP JUMPDEST PUSH1 0x1 PUSH1 0x1 PUSH1 0xA0 SHL SUB DUP5 AND PUSH1 0x0 SWAP1 DUP2 MSTORE PUSH1 0x12 PUSH1 0x20 MSTORE PUSH1 0x40 DUP2 KECCAK256 SWAP2 SWAP1 SWAP2 SSTORE PUSH2 0x2B34 PUSH2 0x3E8 PUSH2 0x93D DUP6 PUSH1 0x63 PUSH4 0xFFFFFFFF PUSH2 0x2BBF AND JUMP JUMPDEST PUSH1 0x1 PUSH1 0x1 PUSH1 0xA0 SHL SUB DUP6 AND PUSH1 0x0 SWAP1 DUP2 MSTORE PUSH1 0x14 PUSH1 0x20 MSTORE PUSH1 0x40 SWAP1 KECCAK256 SLOAD SWAP1 SWAP2 POP PUSH2 0x2B60 SWAP1 DUP3 PUSH4 0xFFFFFFFF PUSH2 0x3041 AND JUMP JUMPDEST PUSH1 0x1 PUSH1 0x1 PUSH1 0xA0 SHL SUB DUP6 AND PUSH1 0x0 SWAP1 DUP2 MSTORE PUSH1 0x14 PUSH1 0x20 SWAP1 DUP2 MSTORE PUSH1 0x40 DUP1 DUP4 KECCAK256 SWAP4 SWAP1 SWAP4 SSTORE PUSH1 0x16 SWAP1 MSTORE KECCAK256 DUP1 SLOAD PUSH1 0xFF NOT AND PUSH1 0x1 OR SWAP1 SSTORE PUSH1 0xA SLOAD PUSH2 0x2BA8 SWAP1 DUP3 SWAP1 PUSH2 0xC23 SWAP1 DUP7 PUSH4 0xFFFFFFFF PUSH2 0x2FE1 AND JUMP JUMPDEST PUSH1 0xA SSTORE PUSH2 0x1DE8 DUP5 PUSH2 0x1DE3 DUP6 DUP5 PUSH4 0xFFFFFFFF PUSH2 0x3041 AND JUMP JUMPDEST PUSH1 0x0 DUP3 PUSH2 0x2BCE JUMPI POP PUSH1 0x0 PUSH2 0xBD3 JUMP JUMPDEST DUP3 DUP3 MUL DUP3 DUP5 DUP3 DUP2 PUSH2 0x2BDB JUMPI INVALID JUMPDEST DIV EQ PUSH2 0x23E8 JUMPI PUSH1 0x40 MLOAD PUSH1 0x1 PUSH1 0xE5 SHL PUSH3 0x461BCD MUL DUP2 MSTORE PUSH1 0x4 ADD DUP1 DUP1 PUSH1 0x20 ADD DUP3 DUP2 SUB DUP3 MSTORE PUSH1 0x21 DUP2 MSTORE PUSH1 0x20 ADD DUP1 PUSH2 0x3409 PUSH1 0x21 SWAP2 CODECOPY PUSH1 0x40 ADD SWAP2 POP POP PUSH1 0x40 MLOAD DUP1 SWAP2 SUB SWAP1 REVERT JUMPDEST PUSH1 0x0 DUP1 DUP3 GT PUSH2 0x2C74 JUMPI PUSH1 0x40 DUP1 MLOAD PUSH1 0x1 PUSH1 0xE5 SHL PUSH3 0x461BCD MUL DUP2 MSTORE PUSH1 0x20 PUSH1 0x4 DUP3 ADD MSTORE PUSH1 0x1A PUSH1 0x24 DUP3 ADD MSTORE PUSH32 0x536166654D6174683A206469766973696F6E206279207A65726F000000000000 PUSH1 0x44 DUP3 ADD MSTORE SWAP1 MLOAD SWAP1 DUP2 SWAP1 SUB PUSH1 0x64 ADD SWAP1 REVERT JUMPDEST PUSH1 0x0 DUP3 DUP5 DUP2 PUSH2 0x2C7F JUMPI INVALID JUMPDEST DIV SWAP5 SWAP4 POP POP POP POP JUMP JUMPDEST PUSH1 0x1 PUSH1 0x1 PUSH1 0xA0 SHL SUB DUP4 AND PUSH2 0x2CD0 JUMPI PUSH1 0x40 MLOAD PUSH1 0x1 PUSH1 0xE5 SHL PUSH3 0x461BCD MUL DUP2 MSTORE PUSH1 0x4 ADD DUP1 DUP1 PUSH1 0x20 ADD DUP3 DUP2 SUB DUP3 MSTORE PUSH1 0x24 DUP2 MSTORE PUSH1 0x20 ADD DUP1 PUSH2 0x34DD PUSH1 0x24 SWAP2 CODECOPY PUSH1 0x40 ADD SWAP2 POP POP PUSH1 0x40 MLOAD DUP1 SWAP2 SUB SWAP1 REVERT JUMPDEST PUSH1 0x1 PUSH1 0x1 PUSH1 0xA0 SHL SUB DUP3 AND PUSH2 0x2D18 JUMPI PUSH1 0x40 MLOAD PUSH1 0x1 PUSH1 0xE5 SHL PUSH3 0x461BCD MUL DUP2 MSTORE PUSH1 0x4 ADD DUP1 DUP1 PUSH1 0x20 ADD DUP3 DUP2 SUB DUP3 MSTORE PUSH1 0x22 DUP2 MSTORE PUSH1 0x20 ADD DUP1 PUSH2 0x33E7 PUSH1 0x22 SWAP2 CODECOPY PUSH1 0x40 ADD SWAP2 POP POP PUSH1 0x40 MLOAD DUP1 SWAP2 SUB SWAP1 REVERT JUMPDEST PUSH1 0x1 PUSH1 0x1 PUSH1 0xA0 SHL SUB DUP1 DUP5 AND PUSH1 0x0 DUP2 DUP2 MSTORE PUSH1 0x1 PUSH1 0x20 SWAP1 DUP2 MSTORE PUSH1 0x40 DUP1 DUP4 KECCAK256 SWAP5 DUP8 AND DUP1 DUP5 MSTORE SWAP5 DUP3 MSTORE SWAP2 DUP3 SWAP1 KECCAK256 DUP6 SWAP1 SSTORE DUP2 MLOAD DUP6 DUP2 MSTORE SWAP2 MLOAD PUSH32 0x8C5BE1E5EBEC7D5BD14F71427D1E84F3DD0314C0F7B2291E5B200AC8C7C3B925 SWAP3 DUP2 SWAP1 SUB SWAP1 SWAP2 ADD SWAP1 LOG3 POP POP POP JUMP JUMPDEST PUSH4 0x692CDA80 TIMESTAMP LT ISZERO PUSH2 0x2FD1 JUMPI PUSH1 0x10 SLOAD PUSH1 0x1 PUSH1 0x1 PUSH1 0xA0 SHL SUB DUP4 DUP2 AND SWAP2 AND EQ ISZERO PUSH2 0x2F71 JUMPI PUSH1 0x1 PUSH1 0x1 PUSH1 0xA0 SHL SUB DUP4 AND PUSH1 0x0 SWAP1 DUP2 MSTORE PUSH1 0x17 PUSH1 0x20 MSTORE PUSH1 0x40 SWAP1 KECCAK256 SLOAD DUP2 GT ISZERO PUSH2 0x2E0C JUMPI PUSH1 0x40 DUP1 MLOAD PUSH1 0x1 PUSH1 0xE5 SHL PUSH3 0x461BCD MUL DUP2 MSTORE PUSH1 0x20 PUSH1 0x4 DUP3 ADD MSTORE PUSH1 0x17 PUSH1 0x24 DUP3 ADD MSTORE PUSH32 0x546F6B656E73206D75737420626520756E6C6F636B6564000000000000000000 PUSH1 0x44 DUP3 ADD MSTORE SWAP1 MLOAD SWAP1 DUP2 SWAP1 SUB PUSH1 0x64 ADD SWAP1 REVERT JUMPDEST PUSH4 0x692CDA80 TIMESTAMP LT PUSH2 0x2E51 JUMPI PUSH1 0x40 MLOAD PUSH1 0x1 PUSH1 0xE5 SHL PUSH3 0x461BCD MUL DUP2 MSTORE PUSH1 0x4 ADD DUP1 DUP1 PUSH1 0x20 ADD DUP3 DUP2 SUB DUP3 MSTORE PUSH1 0x2D DUP2 MSTORE PUSH1 0x20 ADD DUP1 PUSH2 0x344A PUSH1 0x2D SWAP2 CODECOPY PUSH1 0x40 ADD SWAP2 POP POP PUSH1 0x40 MLOAD DUP1 SWAP2 SUB SWAP1 REVERT JUMPDEST PUSH1 0x10 SLOAD PUSH1 0x40 DUP1 MLOAD PUSH1 0x1 PUSH1 0xE3 SHL PUSH4 0x9444B13 MUL DUP2 MSTORE PUSH1 0x1 PUSH1 0x1 PUSH1 0xA0 SHL SUB DUP7 DUP2 AND PUSH1 0x4 DUP4 ADD MSTORE PUSH1 0x24 DUP3 ADD DUP6 SWAP1 MSTORE SWAP2 MLOAD SWAP2 SWAP1 SWAP3 AND SWAP2 PUSH4 0x4A225898 SWAP2 PUSH1 0x44 DUP1 DUP4 ADD SWAP3 PUSH1 0x20 SWAP3 SWAP2 SWAP1 DUP3 SWAP1 SUB ADD DUP2 PUSH1 0x0 DUP8 DUP1 EXTCODESIZE ISZERO DUP1 ISZERO PUSH2 0x2EAA JUMPI PUSH1 0x0 DUP1 REVERT JUMPDEST POP GAS CALL ISZERO DUP1 ISZERO PUSH2 0x2EBE JUMPI RETURNDATASIZE PUSH1 0x0 DUP1 RETURNDATACOPY RETURNDATASIZE PUSH1 0x0 REVERT JUMPDEST POP POP POP POP PUSH1 0x40 MLOAD RETURNDATASIZE PUSH1 0x20 DUP2 LT ISZERO PUSH2 0x2ED4 JUMPI PUSH1 0x0 DUP1 REVERT JUMPDEST POP MLOAD PUSH2 0x2F2A JUMPI PUSH1 0x40 DUP1 MLOAD PUSH1 0x1 PUSH1 0xE5 SHL PUSH3 0x461BCD MUL DUP2 MSTORE PUSH1 0x20 PUSH1 0x4 DUP3 ADD MSTORE PUSH1 0xC PUSH1 0x24 DUP3 ADD MSTORE PUSH32 0x42616E6B2070726F626C656D0000000000000000000000000000000000000000 PUSH1 0x44 DUP3 ADD MSTORE SWAP1 MLOAD SWAP1 DUP2 SWAP1 SUB PUSH1 0x64 ADD SWAP1 REVERT JUMPDEST PUSH1 0x1 PUSH1 0x1 PUSH1 0xA0 SHL SUB DUP4 AND PUSH1 0x0 SWAP1 DUP2 MSTORE PUSH1 0x17 PUSH1 0x20 MSTORE PUSH1 0x40 SWAP1 KECCAK256 SLOAD PUSH2 0x2F53 SWAP1 DUP3 PUSH4 0xFFFFFFFF PUSH2 0x2FE1 AND JUMP JUMPDEST PUSH1 0x1 PUSH1 0x1 PUSH1 0xA0 SHL SUB DUP5 AND PUSH1 0x0 SWAP1 DUP2 MSTORE PUSH1 0x17 PUSH1 0x20 MSTORE PUSH1 0x40 SWAP1 KECCAK256 SSTORE PUSH2 0x2FD1 JUMP JUMPDEST PUSH2 0x2F7A DUP4 PUSH2 0x21E4 JUMP JUMPDEST DUP2 GT ISZERO PUSH2 0x2FD1 JUMPI PUSH1 0x40 DUP1 MLOAD PUSH1 0x1 PUSH1 0xE5 SHL PUSH3 0x461BCD MUL DUP2 MSTORE PUSH1 0x20 PUSH1 0x4 DUP3 ADD MSTORE PUSH1 0x14 PUSH1 0x24 DUP3 ADD MSTORE PUSH32 0x4E6F20617661696C61626C652062616C616E6365000000000000000000000000 PUSH1 0x44 DUP3 ADD MSTORE SWAP1 MLOAD SWAP1 DUP2 SWAP1 SUB PUSH1 0x64 ADD SWAP1 REVERT JUMPDEST PUSH2 0x2FDC DUP4 DUP4 DUP4 PUSH2 0x317A JUMP JUMPDEST POP POP POP JUMP JUMPDEST PUSH1 0x0 DUP3 DUP3 GT ISZERO PUSH2 0x303B JUMPI PUSH1 0x40 DUP1 MLOAD PUSH1 0x1 PUSH1 0xE5 SHL PUSH3 0x461BCD MUL DUP2 MSTORE PUSH1 0x20 PUSH1 0x4 DUP3 ADD MSTORE PUSH1 0x1E PUSH1 0x24 DUP3 ADD MSTORE PUSH32 0x536166654D6174683A207375627472616374696F6E206F766572666C6F770000 PUSH1 0x44 DUP3 ADD MSTORE SWAP1 MLOAD SWAP1 DUP2 SWAP1 SUB PUSH1 0x64 ADD SWAP1 REVERT JUMPDEST POP SWAP1 SUB SWAP1 JUMP JUMPDEST PUSH1 0x0 DUP3 DUP3 ADD DUP4 DUP2 LT ISZERO PUSH2 0x23E8 JUMPI PUSH1 0x40 DUP1 MLOAD PUSH1 0x1 PUSH1 0xE5 SHL PUSH3 0x461BCD MUL DUP2 MSTORE PUSH1 0x20 PUSH1 0x4 DUP3 ADD MSTORE PUSH1 0x1B PUSH1 0x24 DUP3 ADD MSTORE PUSH32 0x536166654D6174683A206164646974696F6E206F766572666C6F770000000000 PUSH1 0x44 DUP3 ADD MSTORE SWAP1 MLOAD SWAP1 DUP2 SWAP1 SUB PUSH1 0x64 ADD SWAP1 REVERT JUMPDEST PUSH1 0x1 PUSH1 0x1 PUSH1 0xA0 SHL SUB DUP3 AND PUSH2 0x30E6 JUMPI PUSH1 0x40 MLOAD PUSH1 0x1 PUSH1 0xE5 SHL PUSH3 0x461BCD MUL DUP2 MSTORE PUSH1 0x4 ADD DUP1 DUP1 PUSH1 0x20 ADD DUP3 DUP2 SUB DUP3 MSTORE PUSH1 0x21 DUP2 MSTORE PUSH1 0x20 ADD DUP1 PUSH2 0x3477 PUSH1 0x21 SWAP2 CODECOPY PUSH1 0x40 ADD SWAP2 POP POP PUSH1 0x40 MLOAD DUP1 SWAP2 SUB SWAP1 REVERT JUMPDEST PUSH1 0x2 SLOAD PUSH2 0x30F9 SWAP1 DUP3 PUSH4 0xFFFFFFFF PUSH2 0x2FE1 AND JUMP JUMPDEST PUSH1 0x2 SSTORE PUSH1 0x1 PUSH1 0x1 PUSH1 0xA0 SHL SUB DUP3 AND PUSH1 0x0 SWAP1 DUP2 MSTORE PUSH1 0x20 DUP2 SWAP1 MSTORE PUSH1 0x40 SWAP1 KECCAK256 SLOAD PUSH2 0x3125 SWAP1 DUP3 PUSH4 0xFFFFFFFF PUSH2 0x2FE1 AND JUMP JUMPDEST PUSH1 0x1 PUSH1 0x1 PUSH1 0xA0 SHL SUB DUP4 AND PUSH1 0x0 DUP2 DUP2 MSTORE PUSH1 0x20 DUP2 DUP2 MSTORE PUSH1 0x40 DUP1 DUP4 KECCAK256 SWAP5 SWAP1 SWAP5 SSTORE DUP4 MLOAD DUP6 DUP2 MSTORE SWAP4 MLOAD SWAP2 SWAP4 PUSH32 0xDDF252AD1BE2C89B69C2B068FC378DAA952BA7F163C4A11628F55A4DF523B3EF SWAP3 SWAP1 DUP2 SWAP1 SUB SWAP1 SWAP2 ADD SWAP1 LOG3 POP POP JUMP JUMPDEST PUSH1 0x1 PUSH1 0x1 PUSH1 0xA0 SHL SUB DUP4 AND PUSH2 0x31C2 JUMPI PUSH1 0x40 MLOAD PUSH1 0x1 PUSH1 0xE5 SHL PUSH3 0x461BCD MUL DUP2 MSTORE PUSH1 0x4 ADD DUP1 DUP1 PUSH1 0x20 ADD DUP3 DUP2 SUB DUP3 MSTORE PUSH1 0x25 DUP2 MSTORE PUSH1 0x20 ADD DUP1 PUSH2 0x3498 PUSH1 0x25 SWAP2 CODECOPY PUSH1 0x40 ADD SWAP2 POP POP PUSH1 0x40 MLOAD DUP1 SWAP2 SUB SWAP1 REVERT JUMPDEST PUSH1 0x1 PUSH1 0x1 PUSH1 0xA0 SHL SUB DUP3 AND PUSH2 0x320A JUMPI PUSH1 0x40 MLOAD PUSH1 0x1 PUSH1 0xE5 SHL PUSH3 0x461BCD MUL DUP2 MSTORE PUSH1 0x4 ADD DUP1 DUP1 PUSH1 0x20 ADD DUP3 DUP2 SUB DUP3 MSTORE PUSH1 0x23 DUP2 MSTORE PUSH1 0x20 ADD DUP1 PUSH2 0x3372 PUSH1 0x23 SWAP2 CODECOPY PUSH1 0x40 ADD SWAP2 POP POP PUSH1 0x40 MLOAD DUP1 SWAP2 SUB SWAP1 REVERT JUMPDEST PUSH1 0x1 PUSH1 0x1 PUSH1 0xA0 SHL SUB DUP4 AND PUSH1 0x0 SWAP1 DUP2 MSTORE PUSH1 0x20 DUP2 SWAP1 MSTORE PUSH1 0x40 SWAP1 KECCAK256 SLOAD PUSH2 0x3233 SWAP1 DUP3 PUSH4 0xFFFFFFFF PUSH2 0x2FE1 AND JUMP JUMPDEST PUSH1 0x1 PUSH1 0x1 PUSH1 0xA0 SHL SUB DUP1 DUP6 AND PUSH1 0x0 SWAP1 DUP2 MSTORE PUSH1 0x20 DUP2 SWAP1 MSTORE PUSH1 0x40 DUP1 DUP3 KECCAK256 SWAP4 SWAP1 SWAP4 SSTORE SWAP1 DUP5 AND DUP2 MSTORE KECCAK256 SLOAD PUSH2 0x3268 SWAP1 DUP3 PUSH4 0xFFFFFFFF PUSH2 0x3041 AND JUMP JUMPDEST PUSH1 0x1 PUSH1 0x1 PUSH1 0xA0 SHL SUB DUP1 DUP5 AND PUSH1 0x0 DUP2 DUP2 MSTORE PUSH1 0x20 DUP2 DUP2 MSTORE PUSH1 0x40 SWAP2 DUP3 SWAP1 KECCAK256 SWAP5 SWAP1 SWAP5 SSTORE DUP1 MLOAD DUP6 DUP2 MSTORE SWAP1 MLOAD SWAP2 SWAP4 SWAP3 DUP8 AND SWAP3 PUSH32 0xDDF252AD1BE2C89B69C2B068FC378DAA952BA7F163C4A11628F55A4DF523B3EF SWAP3 SWAP2 DUP3 SWAP1 SUB ADD SWAP1 LOG3 POP POP POP JUMP JUMPDEST PUSH1 0x1 PUSH1 0x1 PUSH1 0xA0 SHL SUB DUP2 AND PUSH2 0x330A JUMPI PUSH1 0x40 MLOAD PUSH1 0x1 PUSH1 0xE5 SHL PUSH3 0x461BCD MUL DUP2 MSTORE PUSH1 0x4 ADD DUP1 DUP1 PUSH1 0x20 ADD DUP3 DUP2 SUB DUP3 MSTORE PUSH1 0x26 DUP2 MSTORE PUSH1 0x20 ADD DUP1 PUSH2 0x33C1 PUSH1 0x26 SWAP2 CODECOPY PUSH1 0x40 ADD SWAP2 POP POP PUSH1 0x40 MLOAD DUP1 SWAP2 SUB SWAP1 REVERT JUMPDEST PUSH1 0x5 SLOAD PUSH1 0x40 MLOAD PUSH1 0x1 PUSH1 0x1 PUSH1 0xA0 SHL SUB DUP1 DUP5 AND SWAP3 PUSH2 0x100 SWAP1 DIV AND SWAP1 PUSH32 0x8BE0079C531659141344CD1FD0A4F28419497F9722A3DAAFE3B4186F6B6457E0 SWAP1 PUSH1 0x0 SWAP1 LOG3 PUSH1 0x5 DUP1 SLOAD PUSH1 0x1 PUSH1 0x1 PUSH1 0xA0 SHL SUB SWAP1 SWAP3 AND PUSH2 0x100 MUL PUSH2 0x100 PUSH1 0x1 PUSH1 0xA8 SHL SUB NOT SWAP1 SWAP3 AND SWAP2 SWAP1 SWAP2 OR SWAP1 SSTORE JUMP INVALID GASLIMIT MSTORE NUMBER ORIGIN ADDRESS GASPRICE KECCAK256 PUSH21 0x72616E7366657220746F20746865207A65726F2061 PUSH5 0x6472657373 SLOAD PUSH9 0x652074696D65206D75 PUSH20 0x74206265206C6F6E676572207468616E20746865 KECCAK256 PUSH22 0x6E6C6F636B2074696D654F776E61626C653A206E6577 KECCAK256 PUSH16 0x776E657220697320746865207A65726F KECCAK256 PUSH2 0x6464 PUSH19 0x65737345524332303A20617070726F76652074 PUSH16 0x20746865207A65726F20616464726573 PUSH20 0x536166654D6174683A206D756C7469706C696361 PUSH21 0x696F6E206F766572666C6F774F776E61626C653A20 PUSH4 0x616C6C65 PUSH19 0x206973206E6F7420746865206F776E65725468 PUSH6 0x2074696D6520 PUSH14 0x757374206265206C657373207468 PUSH2 0x6E20 PUSH21 0x68652073746F702073656C6C2074696D6545524332 ADDRESS GASPRICE KECCAK256 PUSH3 0x75726E KECCAK256 PUSH7 0x726F6D20746865 KECCAK256 PUSH27 0x65726F206164647265737345524332303A207472616E7366657220 PUSH7 0x726F6D20746865 KECCAK256 PUSH27 0x65726F206164647265737353656E646572206D7573742062652061 KECCAK256 PUSH21 0x6F6B656E7320686F6C646572000045524332303A20 PUSH2 0x7070 PUSH19 0x6F76652066726F6D20746865207A65726F2061 PUSH5 0x6472657373 LOG1 PUSH6 0x627A7A723058 KECCAK256 PUSH13 0xF9D88EFC1353E9467216F803AC BLOCKHASH 0xa9 PUSH3 0x8CECB 0x29 0xdc 0x5c PUSH24 0x17A77A7E600CDAE800290000000000000000000000000000 ",
  "sha1": "ee020695c60275daeddbd1f6647249b629915c1a",
  "source": "pragma solidity^0.5.0;\n\n// import \"https://github.com/OpenZeppelin/openzeppelin-solidity/blob/master/contracts/token/ERC20/ERC20.sol\";\n// import \"https://github.com/OpenZeppelin/openzeppelin-solidity/blob/master/contracts/token/ERC20/ERC20Detailed.sol\";\n//import \"https://github.com/OpenZeppelin/openzeppelin-solidity/blob/master/contracts/ownership/Ownable.sol\";\nimport \"contracts/open-zeppelin/contracts/token/ERC20/ERC20.sol\";\nimport \"contracts/open-zeppelin/contracts/token/ERC20/ERC20Detailed.sol\";\nimport \"contracts/open-zeppelin/contracts/ownership/Ownable.sol\";\nimport \"./IsinaBank.sol\";\n\ncontract IsinaToken is ERC20, ERC20Detailed, Ownable {\n    using SafeMath for uint256;\n\n    uint256 constant public UNLOCK_TIME = 1;\n    uint256 constant public STOP_ALL_LOCKS_TIME = 1764547200; // 01.12.2025\n    uint256 constant public STOP_SELL_TIME = 1764547200;\n\n    uint256 public team_tokens;\n    uint256 public marketing_tokens;\n    uint256 public reserve_tokens;\n    uint256 public seed_tokens;\n    uint256 public private_tokens;\n    uint256 public launchpad_tokens;\n\n    address public tokens_holder;\n    address public team;\n    address public marketing;\n    address public reserve;\n\n    IsinaBank public bank;\n\n    mapping(address => uint256) public seed_balance;\n    mapping(address => uint256) public private_balance;\n    mapping(address => uint256) public seed_bonus;\n    mapping(address => uint256) public private_bonus;\n    mapping(address => bool) public seed_locked;\n    mapping(address => bool) public private_locked;\n    mapping(address => uint256) public tokens_for_sell;\n\n    modifier only_tokens_holder() {\n        require(\n            msg.sender == tokens_holder,\n            \"Sender must be a tokens holder\"\n        );\n        _;\n    }\n\n    modifier after_unlock_time() {\n        require(\n            block.timestamp >= UNLOCK_TIME,\n            \"The time must be longer than the unlock time\"\n        );\n        _;\n    }\n\n    constructor(\n        address _tokens_holder,\n        address _team,\n        address _marketing,\n        address _reserve\n    )\n        public\n        ERC20Detailed(\"Isina Token\", \"ISN\", 18)\n    {\n        tokens_holder = _tokens_holder;\n        seed_tokens = 102203100 * (10 ** uint256(decimals()));\n        private_tokens = 163524960 * (10 ** uint256(decimals()));\n        launchpad_tokens = 81762480 * (10 ** uint256(decimals()));\n        _mint(tokens_holder, seed_tokens + private_tokens + launchpad_tokens);\n        team = _team;\n        team_tokens = 28616868 * (10 ** uint256(decimals()));\n        _mint(team, team_tokens);\n        marketing = _marketing;\n        marketing_tokens = 4088124 * (10 ** uint256(decimals()));\n        _mint(marketing, marketing_tokens);\n        reserve = _reserve;\n        reserve_tokens = 28616868 * (10 ** uint256(decimals()));\n        _mint(reserve, reserve_tokens);\n    }\n\n    function transfer_from_bank(\n        address recipient,\n        uint256 amount\n    )\n        external\n        onlyOwner\n    {\n        super._transfer(address(bank), recipient, amount);\n    }\n\n    function unlock_seed() external after_unlock_time {\n        require(\n            seed_locked[msg.sender],\n            \"Tokens must be unlocked\"\n        );\n        require(\n            block.timestamp < STOP_SELL_TIME,\n            \"The time must be less than the stop sell time\"\n        );\n        seed_locked[msg.sender] = false;\n        tokens_for_sell[msg.sender] = tokens_for_sell[msg.sender].add(\n            seed_balance[msg.sender].sub(\n                get_available_seed_balance(msg.sender)\n            )\n        );\n        seed_balance[msg.sender] = 0;\n        tokens_for_sell[msg.sender] = tokens_for_sell[msg.sender].add(\n            seed_bonus[msg.sender].sub(\n                get_available_seed_bonus(msg.sender)\n            )\n        );\n        seed_bonus[msg.sender] = 0;\n    }\n\n    function unlock_private() external after_unlock_time {\n        require(\n            private_locked[msg.sender],\n            \"Tokens must be unlocked\"\n        );\n        require(\n            block.timestamp < STOP_SELL_TIME,\n            \"The time must be less than the stop sell time\"\n        );\n        private_locked[msg.sender] = false;\n        tokens_for_sell[msg.sender] = tokens_for_sell[msg.sender].add(\n            private_balance[msg.sender].sub(\n                get_available_private_balance(msg.sender)\n            )\n        );\n        private_balance[msg.sender] = 0;\n        tokens_for_sell[msg.sender] = tokens_for_sell[msg.sender].add(\n            private_bonus[msg.sender].sub(\n                get_available_private_bonus(msg.sender)\n            )\n        );\n        private_bonus[msg.sender] = 0;\n    }\n\n    function burn_seed_tokens() external only_tokens_holder {\n        _burn(tokens_holder, seed_tokens);\n        seed_tokens = 0;\n    }\n\n    function burn_private_tokens() external only_tokens_holder {\n        _burn(tokens_holder, private_tokens);\n        private_tokens = 0;\n    }\n\n    function burn_launchpad_tokens() external only_tokens_holder {\n        _burn(tokens_holder, launchpad_tokens);\n        launchpad_tokens = 0;\n    }\n\n    function set_bank(address payable bank_address) external onlyOwner {\n        bank = IsinaBank(bank_address);\n    }\n\n    function transfer(\n        address recipient,\n        uint256 amount\n    )\n        public\n        returns (bool)\n    {\n        _transfer(msg.sender, recipient, amount);\n        return true;\n    }\n\n    function transferFrom(\n        address sender,\n        address recipient,\n        uint256 amount\n    )\n        public\n        returns (bool)\n    {\n        _transfer(sender, recipient, amount);\n        _approve(\n            sender,\n            msg.sender,\n            allowance(sender, msg.sender).sub(amount)\n        );\n        return true;\n    }\n\n    function send_seed_tokens(\n        address recipient,\n        uint256 amount\n    )\n        public\n        only_tokens_holder\n        returns (bool)\n    {\n        require(\n            seed_tokens > 0,\n            \"Tokens are over or sale is ended\"\n        );\n        seed_balance[recipient] = seed_balance[recipient].add(amount);\n        uint256 bonus_amount = amount.mul(1496).div(10000);\n        seed_bonus[recipient] = seed_bonus[recipient].add(bonus_amount);\n        seed_locked[recipient] = true;\n        seed_tokens = seed_tokens.sub(amount).sub(bonus_amount);\n        return super.transfer(recipient, amount.add(bonus_amount));\n    }\n\n    function send_private_tokens(\n        address recipient,\n        uint256 amount\n    )\n        public\n        only_tokens_holder\n        returns (bool)\n    {\n        require(\n            private_tokens > 0,\n            \"Tokens are over or sale is ended\"\n        );\n        private_balance[recipient] = private_balance[recipient].add(amount);\n        uint256 bonus_amount = amount.mul(99).div(1000);\n        private_bonus[recipient] = private_bonus[recipient].add(bonus_amount);\n        private_locked[recipient] = true;\n        private_tokens = private_tokens.sub(amount).sub(bonus_amount);\n        return super.transfer(recipient, amount.add(bonus_amount));\n    }\n\n    function send_launchpad_tokens(\n        address recipient,\n        uint256 amount\n    )\n        public\n        only_tokens_holder\n        returns (bool)\n    {\n        require(\n            launchpad_tokens > 0,\n            \"Tokens are over or sale is ended\"\n        );\n        launchpad_tokens = launchpad_tokens.sub(amount);\n        return super.transfer(recipient, amount);\n    }\n\n    function get_available_balance(\n        address sender\n    )\n        public\n        view\n        returns (uint256)\n    {\n        uint256 available_balance = balanceOf(sender);\n        if (sender == team) {\n            available_balance = available_balance.sub(\n                team_tokens.sub(\n                    get_available_team_balance()\n                )\n            );\n        }\n        if (sender == marketing) {\n            available_balance = available_balance.sub(\n                marketing_tokens.sub(\n                    get_available_marketing_balance()\n                )\n            );\n        }\n        if (sender == reserve) {\n            available_balance = available_balance.sub(\n                    reserve_tokens.sub(\n                        get_available_reserve_balance()\n                    )\n            );\n        }\n        if (seed_locked[sender]) {\n            available_balance = available_balance.sub(\n                seed_balance[sender].sub(\n                    get_available_seed_balance(sender)\n                )\n            );\n            available_balance = available_balance.sub(\n                seed_bonus[sender].sub(\n                    get_available_seed_bonus(sender)\n                )\n            );\n        }\n        if (private_locked[sender]) {\n            available_balance = available_balance.sub(\n                private_balance[sender].sub(\n                    get_available_private_balance(sender)\n                )\n            );\n            available_balance = available_balance.sub(\n                private_bonus[sender].sub(\n                    get_available_private_bonus(sender)\n                )\n            );\n        }\n        available_balance = available_balance.sub(tokens_for_sell[sender]);\n        return (available_balance);\n    }\n\n    function get_available_team_balance()\n        public\n        view\n        returns (uint256)\n    {\n        if (block.timestamp < 1590969600) { // 01.06.2020\n            return 0;\n        } else if (block.timestamp < 1614556800) { // 01.03.2021\n            return team_tokens.mul(10).div(100);\n        } else if (block.timestamp < 1646092800) { // 01.03.2022\n            return team_tokens.mul(20).div(100);\n        } else if (block.timestamp < 1669852800) { // 01.12.2022\n            return team_tokens.mul(30).div(100);\n        } else if (block.timestamp < 1677628800) { // 01.03.2023\n            return team_tokens.mul(35).div(100);\n        } else if (block.timestamp < 1690848000) { // 01.08.2023\n            return team_tokens.mul(40).div(100);\n        } else if (block.timestamp < 1706745600) { // 01.02.2024\n            return team_tokens.mul(45).div(100);\n        } else if (block.timestamp < 1711929600) { // 01.04.2024\n            return team_tokens.mul(50).div(100);\n        } else if (block.timestamp < 1722470400) { // 01.08.2024\n            return team_tokens.mul(55).div(100);\n        } else if (block.timestamp < 1727740800) { // 01.10.2024\n            return team_tokens.mul(60).div(100);\n        } else if (block.timestamp < 1733011200) { // 01.12.2024\n            return team_tokens.mul(65).div(100);\n        } else if (block.timestamp < 1740787200) { // 01.03.2025\n            return team_tokens.mul(70).div(100);\n        } else if (block.timestamp < 1751328000) { // 01.07.2025\n            return team_tokens.mul(80).div(100);\n        } else if (block.timestamp < 1764547200) { // 01.12.2025\n            return team_tokens.mul(90).div(100);\n        } else {\n            return team_tokens;\n        }\n    }\n\n    function get_available_marketing_balance()\n        public\n        view\n        returns (uint256)\n    {\n        if (block.timestamp < 1588291200) { // 01.05.2020\n            return 0;\n        } else if (block.timestamp < 1614556800) { // 01.03.2021\n            return marketing_tokens.mul(10).div(100);\n        } else if (block.timestamp < 1648771200) { // 01.04.2022\n            return marketing_tokens.mul(20).div(100);\n        } else if (block.timestamp < 1656633600) { // 01.07.2022\n            return marketing_tokens.mul(30).div(100);\n        } else if (block.timestamp < 1669852800) { // 01.12.2022\n            return marketing_tokens.mul(35).div(100);\n        } else if (block.timestamp < 1682899200) { // 01.05.2023\n            return marketing_tokens.mul(40).div(100);\n        } else if (block.timestamp < 1690848000) { // 01.08.2023\n            return marketing_tokens.mul(50).div(100);\n        } else if (block.timestamp < 1711929600) { // 01.04.2024\n            return marketing_tokens.mul(55).div(100);\n        } else if (block.timestamp < 1722470400) { // 01.08.2024\n            return marketing_tokens.mul(60).div(100);\n        } else if (block.timestamp < 1733011200) { // 01.12.2024\n            return marketing_tokens.mul(65).div(100);\n        } else if (block.timestamp < 1743465600) { // 01.04.2025\n            return marketing_tokens.mul(70).div(100);\n        } else if (block.timestamp < 1754006400) { // 01.08.2025\n            return marketing_tokens.mul(80).div(100);\n        } else if (block.timestamp < 1764547200) { // 01.12.2025\n            return marketing_tokens.mul(90).div(100);\n        } else {\n            return marketing_tokens;\n        }\n    }\n\n    function get_available_reserve_balance()\n        public\n        view\n        returns (uint256)\n    {\n        if (block.timestamp < 1598918400) { // 01.09.2020\n            return 0;\n        } else if (block.timestamp < 1619827200) { // 01.05.2021\n            return reserve_tokens.mul(10).div(100);\n        } else if (block.timestamp < 1630454400) { // 01.09.2021\n            return reserve_tokens.mul(15).div(100);\n        } else if (block.timestamp < 1654041600) { // 01.06.2022\n            return reserve_tokens.mul(20).div(100);\n        } else if (block.timestamp < 1664582400) { // 01.10.2022\n            return reserve_tokens.mul(25).div(100);\n        } else if (block.timestamp < 1682899200) { // 01.05.2023\n            return reserve_tokens.mul(30).div(100);\n        } else if (block.timestamp < 1690848000) { // 01.08.2023\n            return reserve_tokens.mul(40).div(100);\n        } else if (block.timestamp < 1714521600) { // 01.05.2024\n            return reserve_tokens.mul(45).div(100);\n        } else if (block.timestamp < 1719792000) { // 01.07.2024\n            return reserve_tokens.mul(55).div(100);\n        } else if (block.timestamp < 1727740800) { // 01.10.2024\n            return reserve_tokens.mul(60).div(100);\n        } else if (block.timestamp < 1733011200) { // 01.12.2024\n            return reserve_tokens.mul(65).div(100);\n        } else if (block.timestamp < 1746057600) { // 01.05.2025\n            return reserve_tokens.mul(70).div(100);\n        } else if (block.timestamp < 1756684800) { // 01.09.2025\n            return reserve_tokens.mul(80).div(100);\n        } else if (block.timestamp < 1764547200) { // 01.12.2025\n            return reserve_tokens.mul(90).div(100);\n        } else {\n            return reserve_tokens;\n        }\n    }\n\n    function get_available_seed_balance(\n        address sender\n    )\n        public\n        view\n        returns (uint256)\n    {\n        if (block.timestamp < 1575158400) { // 01.12.2019\n            return 0;\n        } else if (block.timestamp < 1583020800) { // 01.03.2020\n            return seed_balance[sender].mul(20).div(100);\n        } else if (block.timestamp < 1593561600) { // 01.07.2020\n            return seed_balance[sender].mul(25).div(100);\n        } else if (block.timestamp < 1606780800) { // 01.12.2020\n            return seed_balance[sender].mul(30).div(100);\n        } else if (block.timestamp < 1617235200) { // 01.04.2021\n            return seed_balance[sender].mul(35).div(100);\n        } else if (block.timestamp < 1625097600) { // 01.07.2021\n            return seed_balance[sender].mul(40).div(100);\n        } else if (block.timestamp < 1633046400) { // 01.10.2021\n            return seed_balance[sender].mul(45).div(100);\n        } else if (block.timestamp < 1638316800) { // 01.12.2021\n            return seed_balance[sender].mul(50).div(100);\n        } else if (block.timestamp < 1646092800) { // 01.03.2022\n            return seed_balance[sender].mul(55).div(100);\n        } else if (block.timestamp < 1654041600) { // 01.06.2022\n            return seed_balance[sender].mul(60).div(100);\n        } else if (block.timestamp < 1661990400) { // 01.09.2022\n            return seed_balance[sender].mul(65).div(100);\n        } else if (block.timestamp < 1669852800) { // 01.12.2022\n            return seed_balance[sender].mul(70).div(100);\n        } else if (block.timestamp < 1677628800) { // 01.03.2023\n            return seed_balance[sender].mul(75).div(100);\n        } else if (block.timestamp < 1682899200) { // 01.05.2023\n            return seed_balance[sender].mul(80).div(100);\n        } else if (block.timestamp < 1688169600) { // 01.07.2023\n            return seed_balance[sender].mul(85).div(100);\n        } else if (block.timestamp < 1696118400) { // 01.10.2023\n            return seed_balance[sender].mul(90).div(100);\n        } else if (block.timestamp < 1701388800) { // 01.12.2023\n            return seed_balance[sender].mul(95).div(100);\n        } else {\n            return seed_balance[sender];\n        }\n    }\n\n    function get_available_private_balance(\n        address sender\n    )\n        public\n        view\n        returns (uint256)\n    {\n        if (block.timestamp < 1575158400) { // 01.12.2019\n            return 0;\n        } else if (block.timestamp < 1580515200) { // 01.02.2020\n            return private_balance[sender].mul(15).div(100);\n        } else if (block.timestamp < 1588291200) { // 01.05.2020\n            return private_balance[sender].mul(20).div(100);\n        } else if (block.timestamp < 1606780800) { // 01.12.2020\n            return private_balance[sender].mul(25).div(100);\n        } else if (block.timestamp < 1617235200) { // 01.04.2021\n            return private_balance[sender].mul(30).div(100);\n        } else if (block.timestamp < 1619827200) { // 01.05.2021\n            return private_balance[sender].mul(35).div(100);\n        } else if (block.timestamp < 1627776000) { // 01.08.2021\n            return private_balance[sender].mul(40).div(100);\n        } else if (block.timestamp < 1638316800) { // 01.12.2021\n            return private_balance[sender].mul(45).div(100);\n        } else if (block.timestamp < 1646092800) { // 01.03.2022\n            return private_balance[sender].mul(50).div(100);\n        } else if (block.timestamp < 1656633600) { // 01.07.2022\n            return private_balance[sender].mul(55).div(100);\n        } else if (block.timestamp < 1664582400) { // 01.10.2022\n            return private_balance[sender].mul(60).div(100);\n        } else if (block.timestamp < 1669852800) { // 01.12.2022\n            return private_balance[sender].mul(65).div(100);\n        } else if (block.timestamp < 1680307200) { // 01.04.2023\n            return private_balance[sender].mul(70).div(100);\n        } else if (block.timestamp < 1688169600) { // 01.07.2023\n            return private_balance[sender].mul(75).div(100);\n        } else if (block.timestamp < 1696118400) { // 01.10.2023\n            return private_balance[sender].mul(80).div(100);\n        } else if (block.timestamp < 1701388800) { // 01.12.2023\n            return private_balance[sender].mul(85).div(100);\n        } else if (block.timestamp < 1709251200) { // 01.03.2024\n            return private_balance[sender].mul(90).div(100);\n        } else if (block.timestamp < 1719792000) { // 01.07.2024\n            return private_balance[sender].mul(95).div(100);\n        } else {\n            return private_balance[sender];\n        }\n    }\n\n    function get_available_seed_bonus(\n        address sender\n    )\n        public\n        view\n        returns (uint256)\n    {\n        uint256 available_bonus = seed_bonus[sender].div(17);\n        if (block.timestamp < 1575158400) { // 01.12.2019\n            return 0;\n        } else if (block.timestamp < 1583020800) { // 01.03.2020\n            return available_bonus;\n        } else if (block.timestamp < 1593561600) { // 01.07.2020\n            return available_bonus.mul(2);\n        } else if (block.timestamp < 1606780800) { // 01.12.2020\n            return available_bonus.mul(3);\n        } else if (block.timestamp < 1617235200) { // 01.04.2021\n            return available_bonus.mul(4);\n        } else if (block.timestamp < 1625097600) { // 01.07.2021\n            return available_bonus.mul(5);\n        } else if (block.timestamp < 1633046400) { // 01.10.2021\n            return available_bonus.mul(6);\n        } else if (block.timestamp < 1638316800) { // 01.12.2021\n            return available_bonus.mul(7);\n        } else if (block.timestamp < 1646092800) { // 01.03.2022\n            return available_bonus.mul(8);\n        } else if (block.timestamp < 1654041600) { // 01.06.2022\n            return available_bonus.mul(9);\n        } else if (block.timestamp < 1661990400) { // 01.09.2022\n            return available_bonus.mul(10);\n        } else if (block.timestamp < 1669852800) { // 01.12.2022\n            return available_bonus.mul(11);\n        } else if (block.timestamp < 1677628800) { // 01.03.2023\n            return available_bonus.mul(12);\n        } else if (block.timestamp < 1682899200) { // 01.05.2023\n            return available_bonus.mul(13);\n        } else if (block.timestamp < 1688169600) { // 01.07.2023\n            return available_bonus.mul(14);\n        } else if (block.timestamp < 1696118400) { // 01.10.2023\n            return available_bonus.mul(15);\n        } else if (block.timestamp < 1701388800) { // 01.12.2023\n            return available_bonus.mul(16);\n        } else {\n            return seed_bonus[sender];\n        }\n    }\n\n    function get_available_private_bonus(\n        address sender\n    )\n        public\n        view\n        returns (uint256)\n    {\n        uint256 available_bonus = private_bonus[sender].div(18);\n        if (block.timestamp < 1575158400) { // 01.12.2019\n            return 0;\n        } else if (block.timestamp < 1580515200) { // 01.02.2020\n            return available_bonus;\n        } else if (block.timestamp < 1588291200) { // 01.05.2020\n            return available_bonus.mul(2);\n        } else if (block.timestamp < 1606780800) { // 01.12.2020\n            return available_bonus.mul(3);\n        } else if (block.timestamp < 1617235200) { // 01.04.2021\n            return available_bonus.mul(4);\n        } else if (block.timestamp < 1619827200) { // 01.05.2021\n            return available_bonus.mul(5);\n        } else if (block.timestamp < 1627776000) { // 01.08.2021\n            return available_bonus.mul(6);\n        } else if (block.timestamp < 1638316800) { // 01.12.2021\n            return available_bonus.mul(7);\n        } else if (block.timestamp < 1646092800) { // 01.03.2022\n            return available_bonus.mul(8);\n        } else if (block.timestamp < 1656633600) { // 01.07.2022\n            return available_bonus.mul(9);\n        } else if (block.timestamp < 1664582400) { // 01.10.2022\n            return available_bonus.mul(10);\n        } else if (block.timestamp < 1669852800) { // 01.12.2022\n            return available_bonus.mul(11);\n        } else if (block.timestamp < 1680307200) { // 01.04.2023\n            return available_bonus.mul(12);\n        } else if (block.timestamp < 1688169600) { // 01.07.2023\n            return available_bonus.mul(13);\n        } else if (block.timestamp < 1696118400) { // 01.10.2023\n            return available_bonus.mul(14);\n        } else if (block.timestamp < 1701388800) { // 01.12.2023\n            return available_bonus.mul(15);\n        } else if (block.timestamp < 1709251200) { // 01.03.2024\n            return available_bonus.mul(16);\n        } else if (block.timestamp < 1719792000) { // 01.07.2024\n            return available_bonus.mul(17);\n        } else {\n            return private_bonus[sender];\n        }\n    }\n\n    function _transfer(\n        address sender,\n        address recipient,\n        uint256 amount\n    )\n        internal\n    {\n        if (block.timestamp < STOP_ALL_LOCKS_TIME) {\n            if (recipient == address(bank)) {\n                require(\n                    tokens_for_sell[sender] >= amount,\n                    \"Tokens must be unlocked\"\n                );\n                require(\n                    block.timestamp < STOP_SELL_TIME,\n                    \"The time must be less than the stop sell time\"\n                );\n                require(\n                    bank.send_ether(\n                        address(uint160(sender)),\n                        amount\n                    ),\n                    \"Bank problem\"\n                );\n                tokens_for_sell[sender] = tokens_for_sell[sender].sub(\n                    amount\n                );\n            } else {\n                require(\n                    amount <= get_available_balance(sender),\n                    \"No available balance\"\n                );\n            }\n        }\n        super._transfer(sender, recipient, amount);\n    }\n}\n",
  "sourcePath": "contracts/IsinaToken.sol",
  "type": "contract"
}